:100000000C9404030C943C030C94EC230C943C03DC
:100010000C943C030C943C030C943C030C943C0364
:100020000C943C030C943C030C94162B0C94EA2B7C
:100030000C94F7250C943C030C943C030C943C0367
:100040000C943C030C943C030C943C030C943C0334
:100050000C943C030C9499260C943C030C943C03A4
:100060000C943C030C943C030C943C030C943C0314
:100070000C943C030C943C030C943C030C943C0304
:100080000C943C030C943C030C943C030C943C03F4
:100090000C943C030C943C030C943C030C943C03E4
:1000A0000C943C030C943C030C943C032200210070
:1000B00020001F001E002E001700150008001A0067
:1000C00014002B000A000900070016000400290094
:1000D0000500190006001B001D00E100F20001519F
:1000E000E200E00000000000F3000F552A000000CD
:1000F00000000000F100E30000000000000000002C
:10010000230024002500260027002D001C001800D5
:100110000C001200130031000B000D000E000F0048
:100120003300340011001000360037003800E500BD
:100130004D000251E000E600000000004B000755B2
:100140002C000000000000004E002800000000000D
:10015000000000003F003E003D003C003B003A0034
:10016000010030002F001F021E023500010027028F
:100170002602010001000100010030022F020100EF
:100180000100010001000100010001000100010067
:10019000010001004C00000000000000010001000F
:1001A0000000000000000000400041004200430049
:1001B00044004500010001000100010001000100B0
:1001C0005000510052004F000100010001000100E9
:1001D000C55CC45CC35C01000100CA5CCB5CC85C4C
:1001E000C95C0100010001000100000000000000E6
:1001F0000100010000000000000000003F003E0080
:100200003D003C003B003A000100010001000100FC
:100210000100010001000100005C0100010001007B
:1002200001000100010001000100010001000100C6
:1002300001000100010001000100010001000000B7
:1002400000000000010001000000000000000000AC
:10025000400041004200430044004500010001000D
:1002600001000100010001000100A8000100AE0032
:1002700001000100AC00AA00A900AB0001000100D0
:10028000010001000100C85CC95C0100010001001F
:10029000010000000000000001000100000000005B
:1002A0000000000000047F3F1F64321464321478A1
:1002B0003C1E1E140A052223252628292A2C2D2F10
:1002C0003032333536383A3B3D3E4042434547496C
:1002D0004A4C4E5051535557595A5C5E60626466A1
:1002E00068696B6D6F71737577797B7D7F818385AD
:1002F00087898A8C8E90929496989A9C9E9FA1A3AF
:10030000A5A7A8AAACAEAFB1B3B4B6B8B9BBBCBED2
:10031000BFC1C2C3C5C6C7C9CACBCCCDCED0D1D24E
:10032000D2D3D4D5D6D7D7D8D9D9DADADBDBDBDC50
:10033000DCDCDCDCDDDDDDDDDCDCDCDCDCDBDBDBFC
:10034000DADAD9D9D8D7D7D6D5D4D3D2D2D1D0CE5C
:10035000CDCCCBCAC9C7C6C5C3C2C1BFBEBCBBB961
:10036000B8B6B4B3B1AFAEACAAA8A7A5A3A19F9EDF
:100370009C9A98969492908E8C8A89878583817FA7
:100380007D7B79777573716F6D6B69686664626088
:100390005E5C5A5957555351504E4C4A4947454354
:1003A00042403E3D3B3A3836353332302F2D2C2AF1
:1003B000292826252322FFAA7F554000010101019B
:1003C0000101010101020202020202020202030310
:1003D00003030303030304040404040404050505E0
:1003E00005050606060606070707070708080808A2
:1003F000090909090A0A0A0B0B0B0C0C0C0D0D0D4F
:100400000E0E0E0F0F0F10101111111212131314E4
:1004100014151516161717181819191A1A1B1B1C5C
:100420001D1D1E1E1F2020212222232424252626B6
:10043000272829292A2B2C2D2D2E2F3031323233EB
:100440003435363738393A3B3C3D3E3F40414243F4
:100450004445464748494A4C4D4E4F5051535455D8
:100460005658595A5B5D5E5F616264656668696B88
:100470006C6D6F7072737577787A7B7D7E80828306
:100480008587888A8C8E8F91939596989A9C9EA04A
:10049000A2A3A5A7A9ABADAFB1B3B5B7BABCBEC057
:1004A000C2C4C6C9CBCDCFD1D4D6D8DBDDDFE2E420
:1004B000E7E9EBEEF0F3F5F8FAFDFF18034D006FF6
:1004C000006D006F006B0061002000450072006746
:1004D000006F000000240353007400650066006193
:1004E000006E004700720069006E00640065006CD9
:1004F00000770061006C0064000000040309040937
:10050000023B00020100A0FA0904000001030101FE
:1005100000092111010001224000070581030800A4
:10052000010904010001030000000921110100017B
:10053000227B000705820320000112010002000057
:100540000008EDFE000001000102000105010902A2
:10055000A10185020901A100050919012908150059
:1005600025019508750181020501093009311581C0
:10057000257F95027508810609381581257F95012B
:1005800075088106050C0A38021581257F950175CD
:10059000088106C0C005010980A101850319012A4F
:1005A000B700150126B700950175108100C0050C34
:1005B0000901A101850419012AA002150126A00242
:1005C000950175108100C005010906A101050719F3
:1005D000E029E7150025019508750181029501754F
:1005E0000881010507190029FF150026FF0095065F
:1005F0007508810005081901290595057501910205
:10060000950175039101C00011241FBECFEFDAE000
:10061000DEBFCDBF04B603FE18C080917003909179
:100620007103A0917203B09173038730904BA74080
:10063000B04B59F410927003109271031092720330
:1006400010927303E0E0F8E3099511E0A0E0B1E057
:10065000EAE8FDE502C005900D92A43EB107D9F786
:1006600023E0A4EEB1E001C01D92A037B207E1F78C
:100670000E945C160C94AD2E0C94000081E008954D
:1006800081E008950C94400308950C9444031F9353
:10069000CF93DF9300D000D00F92CDB7DEB7498360
:1006A0005A836B833091E70189819A8131111DC092
:1006B0006623B9F02223A9F00E94A509182F682FFC
:1006C00089819A810E944E0969817A81812F0F90D8
:1006D0000F900F900F900F90DF91CF911F910C947E
:1006E00076100E947C09182FEFCF0E94A50969811E
:1006F0007A81EDCFFC01262F408151816281738187
:1007000084810C94470381E00895CF93DF93EC013B
:1007100060E00E947A03BE01DF91CF910C94450303
:100720000C94F1110C94F41108950E94FB070E949F
:1007300094032FEF84E39CE0215080409040E1F748
:1007400000C000000C94BD260F931F93CF93DF933E
:100750008C0161E00E947A03EC01B8010E9442031F
:100760008823D9F1B801CE010E94EA228823A9F199
:10077000B801CE010E941721882379F1B801CE017A
:100780000E945422882349F1B801CE010E940B2017
:10079000882319F1F8018281882361F0CB35FDE5CA
:1007A000DF0721F170F4C115ECE5DE07A1F0CF3DC4
:1007B000DC45C9F0C801DF91CF911F910F910C94D6
:1007C0003E03CC358DE5D807A1F0CD35DD4591F759
:1007D0000E94DA0DEFCF0E94950380E0DF91CF9168
:1007E0001F910F9108950E94940EF7CF0E94E30D80
:1007F000E1CF0E94E60DDECF0E94DC250C941404AC
:100800000E9417040C94E02508950C94040481E0E0
:1008100008950C9407040895CF93C82F0E940504EF
:100820008C2FCF910C94090480E00C940C040E944E
:1008300015250C940C040E9415259091E60198173B
:1008400021F08093E6010C940C040895CF93DF937C
:10085000CDB7DEB72B970FB6F894DEBF0FBECDBF76
:100860004F83588769877A878B8761110E94280D8B
:100870001E821D8285E0FE013796DE0111960190F1
:100880000D928A95E1F78C819D81892B89F44981AC
:100890005A816B817C818D819E810E94490C2B96AF
:1008A0000FB6F894DEBF0FBECDBFDF91CF91089594
:1008B00089819A8189238F3F51F3CE0101960E944D
:1008C00083038111E4CFEBCFFC01808191810C94F3
:1008D000E709CF93C82F882309F48BC08238C1F46D
:1008E0000E94152581FD85C089E30E94E30C0E94CA
:1008F000480D2FEF81EE94E0215080409040E1F7C9
:1009000000C0000089E30E94EA0CCF910C94480DCE
:100910008338A1F40E94152580FD6BC083E50E94F9
:10092000E30C0E94480D2FEF81EE94E021508040AF
:100930009040E1F700C0000083E5E5CF8438A1F4E2
:100940000E94152582FD55C087E40E94E30C0E9499
:10095000480D2FEF81EE94E0215080409040E1F768
:1009600000C0000087E4CFCF8CEF8C0F813A90F469
:100970006C2F80910201909103010E947F258823B2
:1009800029F08C2F0E94EA0C0E94480D8C2F0E94A7
:10099000E30CBBCF80E28C0F883048F4C77081E055
:1009A00001C0880FCA95EAF70E940B0DAECFEBE5A8
:1009B000EC0FE33040F4F0E0E558FE4F808190E02A
:1009C000CF910C944125E8E5EC0FE73150F4F0E0CD
:1009D000EE0FFF1FE35BFE4F80819181CF910C945E
:1009E0005725CD3E30F08C2F0E94E016CF910C940D
:1009F000B317CF910895882309F452C0823871F457
:100A00000E94152581FF4CC089E30E94E30C0E94DF
:100A1000480D89E30E94EA0C0C94480D833859F480
:100A20000E94152580FF3CC083E50E94E30C0E94D4
:100A3000480D83E5EFCF843859F40E94152582FFD5
:100A40002FC087E40E94E30C0E94480D87E4E2CFA8
:100A50009CEF980F913AF0F290E2980F983050F492
:100A6000877091E001C0990F8A95EAF7892F0E945B
:100A7000110DD2CF9BE5980F933020F490E080E0E9
:100A80000C94412598E5980F973120F490E080E090
:100A90000C9457258D3E20F00E943A170C94B31702
:100AA00008951F93CF93DF93182FEB010E946904E1
:100AB000209731F4812FDF91CF911F910C94FB048B
:100AC0008FE99FE00197F1F700C000002197F0CF78
:100AD00070E060E0893311F460E570E00C9451053A
:100AE000882321F00E940B0D0C94480D0895882353
:100AF00021F00E94110D0C94480D0895BF92CF92E1
:100B0000DF92EF92FF920F931F93CF93DF936C01CD
:100B1000D62FC72FFC011281F580F2949FE0F922B5
:100B20000E94010DE82E8823B9F0E12E1123A1F0D7
:100B30008C2F807F803421F080E28D0F8830D0F0C0
:100B40008091F90282FD16C082E00E94A90D0E94E8
:100B5000010D91E0E82EE926BC2EB2948FE0B82278
:100B6000FBE0FB1508F468C0EB2DF0E0E155F14D1A
:100B70000C94FF2DE12CF0CF0C2F0F70C07F11F0E3
:100B80000295007F112399F0002359F080E28D0F28
:100B9000883010F0D11107C0802F0E940B0D0E94E9
:100BA000480D8D2F41C0802F0E941B0DF8CF8D2F37
:100BB0000E94FB04002309F43FC080E28D0F8830BF
:100BC00010F0D11104C0802F0E94110D03C0802F9E
:100BD0000E94210D0E94480D2FC00C2F0F70C07F66
:100BE000C03211F00295007FDD2381F0D13009F48D
:100BF00069C0112309F473C0FF2009F469C0F6012C
:100C0000858180FFCECF8F70858362C08091F9028D
:100C100082FF38C0112359F0002329F0802F0E9451
:100C20000B0D0E94480D80E00E94690405C080E021
:100C30000E94FB040111C7CFEB2DE850FF0B349746
:100C400020F40E9415250E940C04EE2009F472C1C4
:100C50000E94FD0C80FD6EC1F60112820E94F70C0D
:100C60000E94B208C6010E94BB070E94F70CDF91E8
:100C7000CF911F910F91FF90EF90DF90CF90BF9099
:100C80000C94D308112389F0F11006C00E942B0D9B
:100C9000802B0E947005D0CF21E0F212F7CF0E9486
:100CA0002B0D802B0E94310DC7CFF11006C00E9482
:100CB0003E0D802F0E947705BFCF31E0F31609F477
:100CC000BBCFF5CF112331F085E08F1508F4B4CFF9
:100CD000802FDFCF94E09F1508F4AECFEACFFF203E
:100CE00041F3D93349F4FFEF27EE33E0F1502040D0
:100CF0003040E1F700C000008D2F0E94FB049CCF24
:100D00008C2F86958695837069F0813009F094CF99
:100D10008D2F9C2F9370111102C090E080E00E94F3
:100D200057258ACF8D2F9C2F9370111102C090E010
:100D300080E00E94412580CF8D2F112329F00E9451
:100D4000E0160E94B31778CF0E943A17FACF8C2F83
:100D5000837009F041C011116FCF4D2F4295469518
:100D60004770440F440F0D2F0F7010E030E020E06B
:100D7000042E04C0000F111F221F331F0A94D2F744
:100D800060E070E0CB01D4FF0FC06FE070E080E066
:100D900090E004C0660F771F881F991F4A95D2F70D
:100DA0006095709580959095C695C695C370602B9B
:100DB000712B822B932BC23049F058F4C13019F0BB
:100DC0000E94640839CF0E94520836CF0E947608EC
:100DD00033CF0E94500830CF8695112311F08C2F0D
:100DE0008170882309F428CF4D2F4295469547708E
:100DF000440F440F0D2F0F7010E030E020E0042E60
:100E000004C0000F111F221F331F0A94D2F760E0A5
:100E100070E0CB01D4FF0FC06FE070E080E090E0A5
:100E200004C0660F771F881F991F4A95D2F76095F7
:100E3000709580959095C695C695C370602B712B63
:100E4000822B932BC23049F058F4C13019F00E9424
:100E50002909F2CE0E941709EFCE0E943B09ECCE81
:100E60000E948C08E9CECF70112329F08C2F0E94AC
:100E7000B2088D2F0ECF8D2F0E9477058C2F0E94E8
:100E8000D308DACED23F51F160F4D03FB9F0D13F70
:100E900081F0112309F449C0F11083CE8C2F8F719A
:100EA00021C0D33F11F1D43FA1F78091F90282FF15
:100EB00026C08C2F8F71112311F314C0112349F018
:100EC00084E08F1508F4B8CE8C2F8F710E94F6083D
:100ED000B3CE95E09F1508F4AFCEF6CF8C2F8F716F
:100EE0001111CDCF0E94B208A7CE112329F08C2F6B
:100EF0008F710E949D08A0CE0E9498089DCE11235C
:100F000049F0CF718C2F0E94B20863E08C2F0E94B1
:100F10008E0D92CE81E00E94A90DE1E0EF1508F060
:100F20008BCE82E00E94A90D87CEF110DACE8C2FF5
:100F30008F71A5CFDF91CF911F910F91FF90EF900F
:100F4000DF90CF90BF9008950F931F93CF93DF93BF
:100F5000EC01688179818A810E94F1098C010E94EB
:100F60004D090E944F08B801CE01DF91CF911F912A
:100F70000F910C947E05CF93DF93EC018B819C81C4
:100F8000892B29F08881998189238F3F59F4DF913A
:100F9000CF910895CE010E94A407CE01DF91CF9199
:100FA0000C948503CE010E94A4038111F3CF0E940B
:100FB000010D882361F38A81882349F38091F90226
:100FC00082FDE5CF82E0DF91CF910C94A90D90E0F6
:100FD00080E00E94412590E080E00E9457250E9419
:100FE000280D0E94480D0E94DA180C94B3170E9435
:100FF000F10C0C94E7070E94180D0C94F7079295DA
:101000009F70963091F058F4925F9F70923058F430
:10101000803F19F030F4883E30F481E008959A5F03
:10102000F4CF843FD1F380E00895883EB0F3813F50
:10103000D1F7F3CFFC01808191810E94E7090C94E4
:10104000FF07CF93DF9300D000D00F92CDB7DEB76C
:101050000F900F900F900F900F90DF91CF91089508
:10106000CF93DF9300D000D000D0CDB7DEB7269667
:101070000FB6F894DEBF0FBECDBFDF91CF910895BC
:1010800008950C9440080E944108609323027093D5
:10109000240280932502909326020C94E70708957A
:1010A0000C9443080F931F93009123021091240284
:1010B0002091250230912602602B712B822B932BDD
:1010C0001F910F910C9443080F931F9300912302DB
:1010D0001091240220912502309126026023712371
:1010E000822393231F910F910C9443080F931F9316
:1010F00000912302109124022091250230912602B2
:1011000060277127822793271F910F910C94430822
:101110000C9440080C9488080E948A0860931F026F
:101120007093200280932102909322020C94E7078F
:1011300060E070E0CB010C948C080F931F9341E0AA
:1011400050E060E070E08A019B0104C0000F111FB5
:10115000221F331F8A95D2F7C901B8011F910F9141
:101160000C948C080F931F9341E050E060E070E016
:1011700004C0440F551F661F771F8A95D2F78091D0
:101180001F0290912002A0912102B09122028A01B7
:101190009B01082B192B2A2B3B2BC901B8011F914E
:1011A0000F910C948C080F931F9341E050E060E086
:1011B00070E004C0440F551F661F771F8A95D2F751
:1011C000CB01BA01609570958095909500911F02B2
:1011D000109120022091210230912202602371237C
:1011E000822393231F910F910C948C080F931F93CC
:1011F00041E050E060E070E004C0440F551F661FFE
:10120000771F8A95D2F780911F0290912002A091BA
:101210002102B09122028A019B01082719272A275F
:101220003B27C901B8011F910F910C948C080F93B3
:101230001F9300911F0210912002209121023091F2
:101240002202602B712B822B932B1F910F910C94F8
:101250008C080F931F9300911F0210912002209180
:1012600021023091220260237123822393231F9154
:101270000F910C948C080F931F9300911F021091F3
:1012800020022091210230912202602771278227BB
:1012900093271F910F910C948C080895E92FEE0F5E
:1012A000E90FEE0F8E0F982F977041E001C0440FA9
:1012B0009A95EAF786958695869595E0899FF0013F
:1012C0001124E851FE4F30E020E070E05191DF0141
:1012D0001197CB01022E02C0969587950A94E2F7EA
:1012E000817081958527842385278C932F5F3F4FBD
:1012F0002530310559F70895E92FEE0FE90FEE0F6C
:101300008E0F982F977086958695869525E0829FFB
:10131000F0011124E851FE4F50E040E080E02191BF
:1013200030E0092E02C0369527950A94E2F7217025
:101330003327042E01C0220F0A94EAF7822B4F5F55
:101340005F4F4530510559F70895BF92CF92DF9214
:10135000EF92FF920F931F93CF93DF938C01C09076
:101360001F02D0902002E0902102F0902202809192
:10137000230290912402A0912502B0912602C82A4E
:10138000D92AEA2AFB2ACFE1D0E0BC2ED701C60138
:101390000C2E04C0B695A795979587950A94D2F719
:1013A00080FD0EC0219788F7B12C8B2DDF91CF9156
:1013B0001F910F91FF90EF90DF90CF90BF90089515
:1013C000B8018C2F0E948A10019761F3EECFCF9362
:1013D000DF93EC010E94A509BE01DF91CF910C942F
:1013E0008A101F93CF93DF93EB019091E70199232C
:1013F00031F0CB01DF91CF911F910C94E709882345
:1014000079F0CB010E94A509182F682FCE010E9408
:101410004E09BE01812FDF91CF911F910C948A104C
:10142000CB010E947C09182FF4CF1F93CF93DF9339
:10143000C091270216E0809128028C1304C0DF912E
:10144000CF911F910895D0E01C9FF0011D9FF00DDA
:101450001124E75DFD4F4081518162817381848158
:1014600095810E9430082196C770E5CF40915902BE
:1014700050915A0260915B0270915C0280915D0212
:1014800090915E020C943008FF920F931F93CF93BC
:10149000DF9380915E02807FD1F480915B0288238C
:1014A000B1F0809127021091280260915902709149
:1014B0005A02A0915C02B0915D02062F0723C091F1
:1014C0000001D091010196E0F92E181306C0DF91BA
:1014D000CF911F910F91FF90089590E0109711F018
:1014E0000F3F19F401968770F0CFF89E9001F99E96
:1014F000300D1124F901E75DFD4F41814713F2CF13
:1015000040814613EFCF42814111ECCF438154819A
:101510004A1B5B0B4C175D0728F780915E028F70AA
:10152000806180935E02F901E25DFD4F80818F70E2
:101530008061808389E592E00E94BB07DF91CF91B3
:101540001F910F91FF900C94150AAF92BF92CF920A
:10155000DF92EF92FF920F931F93CF93DF93CDB75C
:10156000DEB761970FB6F894DEBF0FBECDBF8C011A
:1015700085E0F801DE011D9601900D928A95E1F754
:10158000F801E28089E5C82E82E0D82E60915C02E5
:1015900070915D026115710509F45FC19091590266
:1015A00020915A02892F82238F3F09F456C140812E
:1015B0005181A380B480F0905B02F501E61BF70B2C
:1015C000BF01E0910001F0910101FF2009F4F6C094
:1015D00080915E02382F307F6E177F0708F0AFC012
:1015E000311179C0FE2C251323C0941321C0E110C2
:1015F0001FC08F70806180935E020E94360AC60110
:101600000E94BB0780915E02F80185838F2D619651
:101610000FB6F894DEBF0FBECDBFDF91CF911F9103
:101620000F91FF90EF90DF90CF90BF90AF90089513
:10163000AB2829F0842F85238F3F09F027C180E054
:10164000F82FF170DF2E80FF3CC08091270220919F
:10165000280236E0821315C04D875E878D859E85F2
:101660000E94E709292F22952F702230F0F02430B4
:1016700018F59F70F1F0F8019581907FD1F4D12C8D
:101680001EC090E0389FF001399FF00D1124E75DF6
:10169000FD4F6181651306C06081641303C06281E0
:1016A0006E110FC001968770D5CF9F7011F08823FF
:1016B00031F3805E883018F3C8010E94BB07FD2C0F
:1016C000A5CFEE2009F4A2CF80915E0281608093C5
:1016D0005E02F12C9BCF251306C0941304C0F801C1
:1016E000EE2009F487C0C8010E941A08882319F166
:1016F000EE2009F180915E02803270F02091590253
:1017000030915A0238872F831986BB86AA868C8728
:10171000CE0107960E94BB0786E0F801A9E5B2E07A
:1017200001900D928A95E1F70E94440A0E94360AC0
:10173000FF24F3946BCFC8010E94BB07F9CF31118E
:1017400013C07A2DB98AA88A6E2D89890E94210832
:1017500089E592E00E94BB0786E0F60111928A9526
:10176000E9F70E94360AB5CF25130FC094130DC0B8
:10177000E1100BC0F8018583C8010E94BB0786E019
:10178000F60111928A95E9F741CFC8010E941A0823
:10179000882389F2EE2079F280915E02803208F48B
:1017A000BBCF2091590230915A023A8329831B8280
:1017B000BD82AC828E83CE010196ACCF6E177F07BF
:1017C00008F03EC0FE2CEE2009F4B5CF25132AC048
:1017D000941328C080915E0280FD1BC0982F907FDB
:1017E000C1F0F8018583903F31F0982F907F905F92
:1017F0008F70892B8583C8010E94BB0786E0F801A2
:10180000A9E5B2E001900D928A95E1F70E94360AAF
:10181000FDCE86E0F801A9E5B2E001900D928A952F
:10182000E1F7F4CEC8010E941A08811175CF8091AA
:101830005E02816080935E02C8010E94BB07E6CE13
:101840007A2DB98AA88A6E2D89890E94210886E09E
:10185000F60111928A95E9F7D9CFEE2009F46BCF02
:10186000C8010E941A08F82E882309F464CF86E084
:10187000F801A9E5B2E001900D928A95E1F789E5BA
:1018800092E00E9464040E94440AC0CF81E08E2549
:10189000D7CE1F93CF93DF93CDB7DEB72C970FB67C
:1018A000F894DEBF0FBECDBF4F83588769877A8714
:1018B0008B879C87CE0107960E94A50A882369F032
:1018C0008A859B85892B39F04F815885842F852304
:1018D0008F3F09F071C016E05FC086E0FE013796C9
:1018E000DE01119601900D928A95E1F78A859B851C
:1018F000892B89F38F81988589238F3F61F320910C
:10190000280230E0C901019687709927409127028B
:101910004817190671F40E94FB07109228021092D2
:10192000270286E0E9E5F2E0DF011D928A95E9F7FA
:10193000D2CF96E0929FD001939FB00D1124A75D66
:10194000BD4FFE01319601900D929A95E1F780937B
:1019500028020E94150ABFCF819FC0011124875D14
:101960009D4F0E94A50A8823E9F0E09127021E9F5F
:10197000F0011124E75DFD4F408151816281738147
:10198000848195810E9430088091270290E0019621
:1019900087709927809327028091270290912802CF
:1019A0008913DACF2C960FB6F894DEBF0FBECDBFE9
:1019B000DF91CF911F91089569857A858B859C85EC
:1019C0000E94300888CF682F809102019091030116
:1019D0000C94B525682F80910201909103010C941D
:1019E000B72580910201909103010C94B925809153
:1019F0006702859585958595089580916702877022
:101A0000089590916702977081E009F480E008954D
:101A100080917202089590917202892B80937202D4
:101A20000895809590917202982390937202089580
:101A300010927202089590917102892B8093710225
:101A40000895809590917102982390937102089562
:101A500010927102089580916802089508950C947F
:101A60002E0D9091F90292FD08C09091680298178E
:101A700021F0809368020C942F0D089580916802E4
:101A8000882329F01092680280E00C942F0D0895AD
:101A9000CF93DF93E0910201F091030180917202F4
:101AA0008083E0910201F0910301808190917102A5
:101AB000892B808390916802992381F0E091020143
:101AC000F09103018081892B8083809102019091A4
:101AD00003010E946D2581110E943E0DC0910201FB
:101AE000D091030148E050E06FE572E0CE010E9422
:101AF0004F2E892B69F088E0FE01AFE5B2E001903E
:101B00000D928A95E1F7CE01DF91CF910C942825B3
:101B1000DF91CF91089508950C948B0D9091F90267
:101B200092FD10C098E0899F90011124622B609370
:101B300067020E94B2088091670285958595859518
:101B40000C948C0D0C94B2081092670280E00C94F7
:101B50008C0D909167028095892380936702282FCE
:101B6000277091F4282F082E000C330B92171306C0
:101B700059F09091F90292FD07C08595859585955C
:101B80000E94D3080C94A40D08959091F90292FB41
:101B9000222720F9281769F080FB92F99093F90227
:101BA0008091F8029091F9020E94100E82E00C944C
:101BB000A90D08958091F90282FB882780F991E0B0
:101BC00089270C94C50D81E00C94C50D80E00C9420
:101BD000C50D6FEF7FEF90E080E00C94972E90E0C2
:101BE00080E00E94732E21E0893E9E4F09F020E0A4
:101BF000822F089582E090E00C94652E83E090E0BF
:101C00000C94652ECF9384E090E00E94652EC82F3F
:101C100082E290E00E94652E982F8C2FCF9108953C
:101C2000CF93C92F682F84E090E00E94792E6C2F0B
:101C300082E290E0CF910C94792EAB01BC018FE051
:101C400090E00C948B2EAB01BC0183E190E00C94EE
:101C50008B2E60E070E0CB010C94230E60E070E00E
:101C6000CB010E941D0E0C94290E69EE7EEF90E0D0
:101C700080E00E94972E60E082E090E00E94792E42
:101C800060E083E090E00E94792E1092230210928F
:101C90002402109225021092260260E084E090E077
:101CA0000E94792E60E082E290E00E94792E60E04E
:101CB00085E090E00E94792E60E086E090E00E944E
:101CC000792E6FEF87E090E00E94792E40E050E09F
:101CD000BA0188E090E00E948B2E60E08DE090E0F9
:101CE0000E94792E40E050E0BA0188E190E00E9425
:101CF0008B2E60E087E190E00E94792E40E050E07A
:101D0000BA018CE190E00E948B2E70E060E080E2EE
:101D100090E00E94972E40E050E0BA0188E190E008
:101D20000E948B2E0C942E0E0C94350E8EE090E0BB
:101D30000E94652E91E0811101C090E0892F0895E5
:101D4000682F8EE090E00C94792E0E9462266093BA
:101D50008502709386028093870290938802609335
:101D6000810270938202809383029093840208958B
:101D700085B7806885BF85B7806885BF0895089559
:101D800008950C94C00E08950C94C30E0E94B80ED2
:101D900082EB91E10E940B250E94BF0E0C94C10EB4
:101DA0000C94B713089508950E94D20E0C94D30E8C
:101DB0000E94CC110C940B040E944D260E946811C5
:101DC0000E94DA130E9409130E94D80E0E94FF207D
:101DD0000E94C61E0E94EF130C94C40E9F92AF92F5
:101DE000BF92CF92DF92EF92FF920F931F93CF9308
:101DF000DF93CDB7DEB72A970FB6F894DEBF0FBEDC
:101E0000CDBF0E942B13C82E81110E94A50E83E71F
:101E1000A82E82E0B82E10E000E0902E802F0E94C5
:101E2000F611E82EF501F1905F01F81609F445C0AE
:101E30008091890281FD0E94FC118F2D8E25D12C6D
:101E4000FF24F394982F9F2199F10E94D00E8823AC
:101E500099F0DE829F82EF2081E009F480E088879C
:101E60000E9456268160782F9A8789874E815F81EC
:101E700068858A850E942604F801ED58FD4F80810F
:101E8000F826F08281E0C11001C080E02A960FB6EA
:101E9000F894DEBF0FBECDBFDF91CF911F910F91A0
:101EA000FF90EF90DF90CF90BF90AF909F900895FC
:101EB000D394FF0CF6E0DF12C5CF0F5F1F4F0E303B
:101EC000110509F0AACF8FEF89838A831B820E94B4
:101ED00056268160782F9D838C8349815A816B813E
:101EE0008D810E942604CECF0E94EE0E0E94B71371
:101EF0000E94331F0E94CE170C941B04CF93DF93D4
:101F00000E948E10EC01811521E5920708F042C075
:101F1000811530E5930708F09DC0883E910530F5A6
:101F2000803E910508F092C0883A910588F4853A80
:101F3000910508F084C08130910509F487C00097AD
:101F400009F484C0049708F081C0D0E0C0E07EC0EE
:101F50008F3B9105D0F7C85AD0E0CC0FDD1FC25897
:101F6000DE4F0990D881C02DD46470C08115904295
:101F700050F4C11581E0D80708F068C0CD3ED10506
:101F800020F3D06563C0C11590E4D907F0F2DF708B
:101F9000D06A5CC0811525E5920700F5811534E50E
:101FA000930708F08BC0811543E5940708F073C0D0
:101FB000C11582E5D80708F469C0CE01837099275E
:101FC00021E030E002C0220F331F8A95E2F7C69568
:101FD000C69580E2C89FE001112454C0C11599E55F
:101FE000D907A8F4C11528E5D20708F06CC0C115BF
:101FF00036E5D30708F0A9CF8C2F0E942511C82FF2
:10200000D0E0DC2FCC27CC27DF71D0621FC0C115F8
:102010004AE5D40708F45CC0CE0190568115904281
:1020200008F093CF8D2F8F710E94251190E0982F8B
:10203000882788279F719C012C2BE901E6CFC55A80
:10204000D0E0C455DE4FC881D0E0D064CE01DF912E
:10205000CF910895E4E096958795EA95E1F783702E
:102060002C2F26952695237040E2249F9001112461
:10207000382B8C2F8370C1E0D0E002C0CC0FDD1F65
:102080008A95E2F7C22BD32BDC68E0CFDC2FCC277C
:10209000C16FD06ADBCF8370992721E030E002C0A6
:1020A000220F331F8A95E2F7C695C69590E2C99F25
:1020B000E0011124C22BD32BDA68C8CFD82FCC274C
:1020C000C46FD06AC3CFDC2FCC27C06FD06ABECF1D
:1020D0008C2F8F700E94251134E0D695C7953A95C4
:1020E000E1F7CF709C2FEC01D069B0CF972F70E053
:1020F00026E0929F600D711D1124FB0194E5899FDC
:10210000E00DF11D1124EE0FFF1FE455FF4F8591E7
:10211000949108950E9476100C947E0F8238910558
:10212000B1F1B0F48133910509F475C048F48932F6
:10213000910509F469C08A32910509F473C00895C4
:102140008533910509F459C08933910501F108954A
:10215000833E9105A9F138F4803E9105F9F0823E65
:10216000910549F10895863E9105A9F1873E9105B3
:10217000C9F1843E910519F52091F90221FF1FC094
:102180008091F80284FD14C087EE90E008952091BC
:10219000F8022370A1F080EE90E008952091F802FB
:1021A00020FD47C03091F90230FF09C024FF44C030
:1021B00090E080E004C02091F80222FDF7CF08955E
:1021C0002091F80222FD3BC03091F90230FDE3CFAF
:1021D00024FFF5CFEDCF2091F80223FFF0CF24FDAF
:1021E000E7CFD2CF2091F80223FD2CC03091F90225
:1021F00031FFEECF84EE90E008952091F80225FFA4
:10220000DECF89E290E008952091F80225FFD7CF34
:1022100085E390E008952091F80226FFD0CF8AE26E
:1022200090E008952091F80226FFC9CF81E390E065
:10223000089589E390E0089583EE90E0089582EE9A
:1022400090E0089586EE90E008959091F80292FF54
:1022500006C0282F28712830F9F4877F846093FF07
:1022600006C0282F28712831F1F4877E84612091DF
:10227000F90220FF06C0382F38713830D9F4877F33
:10228000816021FF06C0282F28712831D1F4877E74
:10229000816194FD877E0895282F24712430F9F6FA
:1022A0008B7F8860DCCF282F2471243101F78B7E4F
:1022B0008861DDCF382F3171313019F78E7F88601A
:1022C000E0CF282F2171213121F78E7E8861E1CF67
:1022D0001092F4021092F5021092F6021092F70298
:1022E0000895CF92DF92EF92FF926B017C010E94E2
:1022F000B71381110EC00E946226C61AD70AE80AD7
:10230000F90AC092F402D092F502E092F602F0923D
:10231000F702FF90EF90DF90CF9008950F931F93F7
:102320000E94B713882321F01F910F910C9462260D
:102330000E9462260091F4021091F5022091F602AB
:102340003091F702600F711F821F931F1F910F9131
:1023500008950E94B71381110C9456260E948E1185
:10236000CB01089580E008950C94E90D0E942B1391
:102370008FEB9DE50197F1F700C000000E942B1341
:1023800080E00E94F61180FF04C00E94B4110C94FA
:10239000BD2608950C94B6110E94EF0D811102C064
:1023A0000E94940E0E94FA0D809389020E94020EF0
:1023B0009093F9028093F8020E94CA110E94FE0DC8
:1023C000682F70E090E080E00E94500860911F024A
:1023D0007091200280912102909122020C948A082F
:1023E00008950C94F01108950C94F311E82FF0E087
:1023F000E75FFC4F80810895089580EA8A95F1F7A0
:10240000089500C008950C94FD1108950C940512D0
:10241000EF92FF920F931F93CF93DF9300D000D0E2
:1024200000D00F92CDB7DEB70E94B713F82E60919F
:102430001703882309F449C087E0E82E8E010F5F57
:102440001F4FF8018E2D11928A95E9F7862F90E0A3
:10245000B801875F9C4F0E94FD13882301F1809192
:10246000FA0290E047E050E0B801875F9C4F0E947D
:102470004F2E21E020938A02892BD9F4F12C0E945F
:1024800092038F2D27960FB6F894DEBF0FBECDBFF7
:10249000DF91CF911F910F91FF90EF900895809160
:1024A0008A02882359F3F8011192EA94E9F710920D
:1024B0008A02A091FA02B0E0A75FBC4F87E0F80162
:1024C00001900D928A95E1F7DACF70E0675F7C4F5B
:1024D0008091FA0290E0875F9C4F0E9485140E94D1
:1024E0000612CFCFF894E82FE295EF70F0E031A11B
:1024F000282F2F7081E090E001C0880F2A95EAF71D
:10250000982F9095932391A392A1892B82A37894DD
:102510000895CF93DF93C5EBD1E089918F3F11F000
:102520000E94721281E0CC3BD807B9F7CFEAD1E024
:1025300089918F3F11F00E94721281E0C53BD8074C
:10254000B9F7DF91CF910895CF92DF92EF92FF928A
:102550000F931F93CF93DF93EC01D62E062F10E03D
:10256000C8018B549E4F7C01FC0180818F3F09F490
:1025700045C0F894E82FE295EF70F0E091A18F70DC
:1025800021E030E001C0220F8A95EAF7892F822BE3
:1025900081A382A12095282322A378940E9401126E
:1025A000EFEAF1E045EB51E031E0C12C21912F3F02
:1025B00071F1A22FA295AF70B0E090968C9190E04F
:1025C0002F7002C0959587952A95E2F780FD1FC070
:1025D000832FC82A330F4E175F0741F7F701808119
:1025E0008F3F11F00E94721261E0C11001C060E0E3
:1025F0008D2D0E940312C00FD11FC882DF91CF9191
:102600001F910F91FF90EF90DF90CF90089580E0A1
:10261000E0CF809104018091040197E0811190E066
:102620009093170387E0891B8093FA020E94891216
:102630008EE0E9E0F3E0DF01982F1D929A95E9F72B
:10264000EBEFF2E0DF011D928A95E9F787E00E9447
:102650007E130C949003EF92FF920F931F93CF93EE
:10266000DF93CDB7DEB72E970FB6F894DEBF0FBE5F
:10267000CDBF8E010F5F1F4F8EE0F80111928A953A
:10268000E9F7F12C6F2DC8010E94A412F394F7E032
:10269000FF12F8CF4EE050E0B8018BEF92E00E94BD
:1026A0004F2E7C0121E0892B09F420E0E114F10494
:1026B00041F08EE0F801ABEFB2E001900D928A9507
:1026C000E1F76091170370E0675F7C4F47E08BEFA5
:1026D00092E00E947F1381E090E0EF2811F40E94C5
:1026E00008122E960FB6F894DEBF0FBECDBFDF9155
:1026F000CF911F910F91FF90EF9008950895FF9251
:102700000F931F93CF93DF93F82E092F162FD72FF8
:10271000C42F222349F081E080938D020E94562627
:1027200090938C0280938B0280918D028823A1F07C
:1027300080918B0290918C020E946E26039760F02C
:10274000EF2DF02FA12FBD2FCE0FDF2FD11DEC17B6
:10275000FD0741F410928D02DF91CF911F910F91EF
:10276000FF90089581918D93F2CF0C94960ECF93A4
:1027700080919002811116C0C8EC0E94A12D811198
:102780000EC08FE39CE90197F1F700C00000C15033
:10279000A1F782E0809390020E949C2D03C081E00B
:1027A0008093900281E090919002913009F080E056
:1027B000CF9108950E94B513809304018091040184
:1027C0006BE0882349F080E00E9481190E94B713D2
:1027D000882321F00C9433148BE0F6CF08950E94E7
:1027E000B713811102C00C943514089581E09091C3
:1027F00091029A3008F080E008950F931F93CF93D1
:10280000DF93EC018B01809191028A30B8F4B8011A
:10281000CE010E948314C82F811122C080919102A1
:102820008F3FB9F40E94562690938F0280938E02B8
:102830008C2FDF91CF911F910F91089580918E027F
:1028400090918F020E946E26843F914000F7C0E075
:10285000EFCF8F5F809391028A3020F7C1E0E8CFFD
:1028600010929102E5CF0C949F230C94A223DF9247
:10287000EF92FF920F931F93CF93DF937901C82FAD
:10288000880FDD0B41155105A9F0FE0193E0EE0F15
:10289000FF1F9A95E1F7EB5FFE4F818192818E5683
:1028A0009D4F208130E04217530708F49A01A90197
:1028B0000E945C2ECE010E949224D82E8823D1F053
:1028C00001151105B9F083E0CC0FDD1F8A95E1F702
:1028D000FE01EB5FFE4F438150E00417150708F43B
:1028E000A801CB5FDE4F6C817D816E567D4FC701A5
:1028F0000E945C2E8D2DDF91CF911F910F91FF9043
:10290000EF90DF9008950C94E7150C940B160F933D
:102910001F93CF93DF9300D000D0CDB7DEB7609187
:10292000B5027091B6028091B7029091B8020E94F0
:102930007D2611E0643671058105910518F10E942C
:102940008E116E5F7F4F8F4F9F4F69837A838B838A
:102950009C8310E000E030E020E044E050E0BE0165
:102960006F5F7F4F82E00E943714182F882351F049
:102970000E9462266093B5027093B6028093B702FC
:102980009093B802812F0F900F900F900F90DF91CE
:10299000CF911F910F9108950F931F93CF93DF93C2
:1029A000CDB7DEB728970FB6F894DEBF0FBECDBF08
:1029B000CE0101960E94EE1D18856091B9027091BA
:1029C000BA028091BB029091BC020E947D266436BF
:1029D00071058105910510F41123C1F010E000E0AC
:1029E00030E020E048E050E0BE016F5F7F4F83E0C1
:1029F0000E943714882369F00E9462266093B9020E
:102A00007093BA028093BB029093BC020E94EB1DAC
:102A100081E028960FB6F894DEBF0FBECDBFDF91E0
:102A2000CF911F910F910895AF92BF92CF92DF92F5
:102A3000EF92FF920F931F93CF93DF93CDB7DEB743
:102A400028970FB6F894DEBF0FBECDBF7B01C090B4
:102A5000BC01D090BD0101E010E09E01285F3F4F16
:102A600050E040E070E060E080E00E943714182FF2
:102A7000882309F448C056018FEFA81AB80A60915C
:102A8000B1027091B2028091B3029091B4020E949F
:102A90007D26643671058105910568F107E010E037
:102AA0009E012F5F3F4F50E040E070E060E081E02A
:102AB0000E943714D82E67E070E0C5010E94002103
:102AC00011E09885981310E01D2141F10E946226C3
:102AD0006093B1027093B2028093B3029093B402F8
:102AE00087E0FE013196AAEAB2E001900D928A9544
:102AF000E1F711E013C067E070E0C5010E9400211A
:102B000098858913CBCF87E0F6013196DE011196C7
:102B100001900D928A95E1F71111E2CF87E0EAEA80
:102B2000F2E0D70101900D928A95E1F7812F289666
:102B30000FB6F894DEBF0FBECDBFDF91CF911F91CE
:102B40000F91FF90EF90DF90CF90BF90AF900895DE
:102B5000AF92BF92CF92DF92EF92FF920F931F93AB
:102B6000CF93DF937C015B016A010E94F61301E0C1
:102B700010E0882311F00AE010E0C1E0D0E0F89402
:102B8000B501C701F60109957894811104C0219619
:102B90000C171D075CF4DF91CF911F910F91FF90EF
:102BA000EF90DF90CF90BF90AF900895CC9F9001B1
:102BB000CD9F300D300D112490E080E045E34A9523
:102BC000F1F70000019682179307C1F7D8CF0F9352
:102BD0001F93CF93DF93EC018B0144E155E10E94F9
:102BE000A815882391F047E854E1B801CE010E946E
:102BF000A815882351F04CEC54E1B801CE01DF91C7
:102C0000CF911F910F910C94A81580E0DF91CF9187
:102C10001F910F9108950F931F93CF93DF93F89413
:102C2000C091BC01D091BD01CE01019627E0FB010E
:102C3000DC0101900D922A95E1F767E070E00E94B7
:102C4000002188837894F894688579858A859B85A6
:102C50000091A6021091A7022091A8023091A9022A
:102C6000601771078207930751F06093A602709373
:102C7000A7028093A8029093A9020E9471117894F0
:102C8000F8948B89882331F060E0CE010C960E9485
:102C9000FE1E1B8A7894DF91CF911F910F910895AA
:102CA0000E9470280E94DC0E0C947C280E948028D0
:102CB0000E94740F0C949A280E94F6250E945728AF
:102CC0000E94C60E0E9450160E9456160E94D40EF4
:102CD000FBCF8091C30280FF0DC060912A0170E09C
:102CE000660F771F6038710570F56115710569F120
:102CF000862F089581FF07C060912A0184E0689FB4
:102D0000B0011124EFCF60912A0182FD0AC08091A9
:102D1000C2028823A9F02091290160912A0182171B
:102D200010F088E0ECCF869FC001112433E0880FBB
:102D3000991F3A95E1F7622F70E00E94C92DD2CF1A
:102D400068E070E0D5CF8FE7089581E00895809125
:102D5000C30280FF0CC06091260170E075956795F5
:102D6000759567956115710549F1862F089581FF65
:102D700006C06091260170E075956795F3CF60916C
:102D8000260182FD0BC09091C1029923A1F06091B0
:102D9000250180912601961738F0682F70E0603881
:102DA000710500F38FE70895899FC001112470E039
:102DB0000E94C92DF4CF61E070E0D7CF81E0089583
:102DC0008D3E31F40E94691681958093C702089563
:102DD0008E3E19F40E946916F8CF8F3E31F40E949E
:102DE000691681958093C6020895803F19F40E9468
:102DF0006916F8CF893F29F40E94A7168093C8026C
:102E000008958A3F21F40E94A7168195F7CF8B3F42
:102E100031F40E94A71681958093C90208958C3FD2
:102E200019F40E94A716F8CF9FE0980F983070F41D
:102E3000815F990B21E030E001C0220F8A95EAF70B
:102E40008091C502822B8093C50208958D3F31F495
:102E50008091C30281608093C30208958E3F21F464
:102E60008091C3028260F7CF8F3FB9F78091C30290
:102E70008460F1CF4091C6028D3E59F48091C70223
:102E800087FF0DC01092C70241110BC01092C20201
:102E900008C08E3E81F48091C70218169CF344232B
:102EA00081F08091C8029091C902892B09F05AC023
:102EB0001092C10208958F3E49F447FFF0CF10925F
:102EC000C6028091C7028111ECCFE0CF803F19F498
:102ED0001416ACF3E4CF9091C802893F29F4191677
:102EE000F4F61092C802DBCF8A3F19F497FFD7CFD0
:102EF000F8CF9091C9028B3F29F497FFD0CF109261
:102F0000C902CDCF8C3F19F41916CCF3C8CF9FE07E
:102F1000980F983090F4815F990B21E030E0B9016F
:102F200002C0660F771F8A95E2F7CB0180959091DA
:102F3000C50289238093C502B2CF8D3F31F48091C1
:102F4000C3028E7F8093C302AACF8E3F21F480916B
:102F5000C3028D7FF7CF8F3F09F0A1CF8091C302CD
:102F60008B7FF0CF08950E9456269C019091C60257
:102F70008091C702982B21F03093C0022093BF02AA
:102F80009091C8028091C902982B21F03093BE0223
:102F90002093BD0284EC92E00C943325EF92FF92D3
:102FA0000F931F93CF93DF9300D000D000D0CDB705
:102FB000DEB786E0E4ECF2E0DE01119601900D92BE
:102FC0008A95E1F7E090C602F090C7020091C8022E
:102FD0001091C9021092C6021092C7021092C80244
:102FE0001092C9028E2D8F2991F08091BF0290918D
:102FF000C0020E946E26AC019091C202992309F48E
:103000003FC080912B018417150608F447C0802F1C
:10301000812B91F08091BD029091BE020E946E269C
:10302000AC019091C102992309F477C080912701E6
:103030008417150608F47FC08091C6029091C702DC
:10304000892B9091C802892B9091C902892B11F08C
:103050000E94B31786E0FE013196A4ECB2E0019025
:103060000D928A95E1F726960FB6F894DEBF0FBE53
:10307000CDBFDF91CF911F910F91FF90EF900895F9
:1030800020912C018AE0289F9001112424173507F4
:1030900008F0BDCF9F5F9093C20202C09F3FD1F75F
:1030A000EE2059F00E9469169FEF1E140CF491E077
:1030B000899F802D11248093C602FF2059F00E9421
:1030C00069169FEF1F140CF491E0899F802D112445
:1030D0008093C7023091C602332309F498CF209120
:1030E000C702222309F493CF45EB3403C001112416
:1030F000992359F09093C60245EB240390011124C3
:10310000332339F03093C70282CF81E08093C60227
:10311000F3CF81E08093C7027ACF209128018AE023
:10312000289F900111242417350708F085CF9F5F51
:103130009093C10202C09F3FD1F7002359F00E9433
:10314000A7169FEF10160CF491E0899F802D112493
:103150008093C802112359F00E94A7169FEF111601
:103160000CF491E0899F802D11248093C902309145
:10317000C802332309F460CF2091C902222309F445
:103180005BCF45EB3403C0011124992359F0909390
:10319000C80245EB240390011124332339F0309306
:1031A000C9024ACF81E08093C802F3CF81E08093C7
:1031B000C90242CF86E0E4ECF2E0DF011D928A957D
:1031C000E9F71092C2021092C1021092C302089550
:1031D000EF92FF920F931F93CF93DF93EB01E82FB2
:1031E000D11110C0442321F0F0E0E554FC4FE491EC
:1031F0006E2F7E2F8E2FDF91CF911F910F91FF9019
:10320000EF9008950D2F10E0282F30E0442329F08F
:1032100025543C4FF901249130E0F6E0CF9FC001E6
:103220001124EFEFF0E0BF010E94B52DAB018C2F10
:1032300090E0880F991FA5E5A49FB001A59F700D90
:103240001124861B970B982F990F980FBF01601BB5
:10325000710B629FD001639FB00D729FB00D11245E
:103260008B2F9D9FB0011124672F7727EF01C61B7D
:10327000D70BBE01629FE001639FD00D729FD00DFE
:1032800011247F01E91AF108E09EB001E19E700D62
:10329000F09E700D1124672F7727E61BF70BE29F36
:1032A0008001E39F100DF29F100D1124E12F722F6A
:1032B0004230510599F048F44115510569F041300B
:1032C000510581F0EB2F8D2F07C04430510569F077
:1032D00080F046305105B1F76E2F8DCFE22F7B2F56
:1032E000812FFACFE22F7D2FF7CFEB2F822F712F77
:1032F000F3CF7B2F822FED2FEFCF41E00C94E81816
:103300000895E0E3F1E08083618308950C947D19D2
:10331000CF93DF93762FE901682F842F0E948619BF
:10332000798368838A83DF91CF9108958091180310
:10333000982F9E7F29F481708260809318030895EE
:103340008A34E8F381708864F8CF88E090E00C94C8
:103350006D2ECF92DF92EF92FF926B017C010E9463
:103360009619B701A60188E090E0FF90EF90DF90FA
:10337000CF900C948B2EE8E1F3E083E08083118200
:103380008FEF828383831482A7EDB2E012968C9133
:103390001297836012968C936081718182819381F0
:1033A0000C94A9198091180380FF02C08695089596
:1033B00080E0089590911C03933018F49F5F9093E0
:1033C0001C03882351F060911803709119038091B8
:1033D0001A0390911B030C94A919089581E00C9491
:1033E000DA1990911C03992319F0915090931C03C2
:1033F000882351F0609118037091190380911A038A
:1034000090911B030C94A919089581E00C94F11973
:1034100070E00C94D320609131018091180380FFFB
:103420000AC08091300123E0829FC0011124835E95
:103430009C4F0C94081A809132019091330123E043
:10344000829FF0011124E35EFC4F891750F711822F
:10345000108212828F5F3396F8CF9091180390FFFD
:1034600014C0909132012091330133E0939FF00119
:103470001124E35EFC4F921710F00C940B1A818319
:10348000608342839F5F3396F6CF0895CF93DF9397
:1034900000D00F92CDB7DEB79091180390FF0AC00D
:1034A0009E012F5F3F4F0E9488194B8169818A815D
:1034B0000E942D1A0F900F900F90DF91CF910895D9
:1034C000CF93DF93EC01EC81F0E0EA54FD4F44919F
:1034D000E8E1F3E0628181810E94461A8C818F5F6E
:1034E0008C83DF91CF910895CF93DF93EC01E8E1D6
:1034F000F3E0438162818C810E94461A8C818F5F48
:103500008C83DF91CF9108950F931F93CF93DF9317
:1035100000D00F92CDB7DEB78C018091CA02811125
:103520000AC09E012F5F3F4F4FEF6FEF0E94881937
:103530008A818093CA02F8016481613069F08091C8
:10354000CA0240E0662361F040E0623011F440912D
:10355000CA0280E060E004C06091CA0240E080E0FE
:103560000E942D1AF801848190E0019663E070E0DA
:103570000E94C92D84830F900F900F90DF91CF91FF
:103580001F910F910895AF92BF92CF92DF92EF9269
:10359000FF920F931F93CF93DF9300D00F92CDB77D
:1035A000DEB7182FF62E042FE22E9091180390FF0D
:1035B0003AC0E92FE695AE2FB0E0A254BE4F8C91F1
:1035C0008093D7029E7F9230E1F59E012F5F3F4F9F
:1035D000812F0E9488194B8169818A810E942D1A4E
:1035E00080911903811308C080911A038F1104C0C0
:1035F00080911B03801729F08091D902826080930B
:10360000D90210931903F0921A0300931B03EE20C2
:1036100051F0609118037091190380911A039091F1
:103620001B030E94A9190F900F900F90DF91CF916B
:103630001F910F91FF90EF90DF90CF90BF90AF90D0
:103640000895823019F400911B03CACF863019F413
:1036500010911903C5CF8930D9F3893109F6E951A1
:103660008E2F8170D82EE695F0E0EA54FC4FA5909D
:10367000B490C12CBB2460913401C61618F00E948E
:103680000B1AAECF2C2D30E0A29EC001A39E900D50
:10369000B29E900D112470E00E94B52D812FD110A3
:1036A00013C0860F40913201420F532F511D9A01D2
:1036B000220F331F240F351F235E3C4F402F6F2DE9
:1036C0000E948819C394D7CF861BECCFE8E1F3E0C2
:1036D0009181282F4381628188E0890F0C94C31A5D
:1036E00081E00C94661BE8E1F3E09181282F43818F
:1036F000628188EF890F0C94C31A81E00C94731BCC
:10370000E8E1F3E0628128E0620F08F46FEF282F10
:10371000438181810C94C31A81E00C94801BE8E101
:10372000F3E0628128E0621B08F460E0282F438107
:1037300081810C94C31A81E00C948F1BE8E1F3E0C3
:10374000438128E0420F08F44FEF282F62818181E6
:103750000C94C31A81E00C949E1BE8E1F3E04381D2
:1037600028E0421B08F440E0282F628181810C94FC
:10377000C31A81E00C94AD1B20E00C94C31AEF92A5
:10378000FF921F93CF93DF93EC0110E0EE24EA94B5
:10379000F12C60913401161770F00E940B1A9A8177
:1037A0008C8190FF27C08F5F8C83DF91CF911F9119
:1037B000FF90EF90089520913201422F410F55273D
:1037C000551FCA019A01220F331F280F391F235E8C
:1037D0003C4F70E0C7010E94C92D962F8C8140910B
:1037E0001B0360911A03199F800D11240E948819F0
:1037F0001F5FCFCF8150D8CF8F929F92AF92BF9251
:10380000CF92DF92EF92FF920F931F93CF93DF93AC
:10381000EC018A81BB24BA9480FD02C0BB24B3941E
:103820008C8181110AC081E0B8122AC080913401D4
:1038300081508093CC0281E08C83A12C46E1942EB0
:1038400080913401A816F8F00E940B1A8091CC02E6
:1038500091E0B91261C081115AC080913401815048
:103860008093CC021C82DF91CF911F910F91FF902A
:10387000EF90DF90CF90BF90AF909F908F90089582
:103880001092CC02D8CF00913201CA2CD12C0C0D51
:103890001D2D111DC801880F991F080F191F035EE8
:1038A0001C4FF80111821082128234E0E32EF12CB9
:1038B000812C8091CC02880D87311CF1692D0E94EA
:1038C000A72D892F082E000C990BC816D90691F444
:1038D00080911B038E9DA0018F9D500D1124559545
:1038E000479555954795980160911A038091190362
:1038F0000E9488198B0CF1E0EF1AF108D1F6A3941D
:103900009FCF87FFDFCF90913401890FDBCF8150AC
:103910008093CC02BC82A7CF90E0019660913401E5
:1039200070E00E94C92D8093CC028C839CCFEF92D3
:10393000FF920F931F93CF93DF93EC018C81811142
:1039400009C081E08C831092CB0292E090932F010A
:1039500080932E01809132019091330123E0829F68
:10396000F0011124E35EFC4F891768F110E003E0D9
:1039700060913401161768F10E940B1A80912E0194
:103980002091CB02280F2093CB0290912F01980F0A
:1039900090932F01191654F4022E000C330B409112
:1039A00034014150550B2417350734F0819580932D
:1039B0002E01813009F41C82DF91CF911F910F916C
:1039C000FF90EF9008951182108212828F5F3396DC
:1039D000CBCFE12EF12C70E0C7010E94C92D2091C0
:1039E0003201820F482F50E02091CB02022E000CB2
:1039F000330BE216F306BCF020912F01022E000CCF
:103A0000330B2E153F057CF0809F90011124235E1F
:103A10003C4F40911B0360911A03809119030E944F
:103A200088191F5FA5CFFA01EE0FFF1FE40FF51FE6
:103A3000E35EFC4F118210821282F3CF8F929F922D
:103A4000AF92BF92CF92DF92EF92FF920F931F93AC
:103A5000CF93DF93EC014C81042F10E09801D80143
:103A60000E940D2E9B01AC010E94232E4B015C0194
:103A7000E0E2F0E0E01BF10BA5E5B0E0AC019B015A
:103A80000E94232E6B017C019F01DF010E94052E05
:103A90009B01AC010E942E2E9B01AC01280D391D0B
:103AA0004A1D5B1DC701B6010E94DD2DF22E822F3B
:103AB00090E039E23F1560F143E0249F900111242A
:103AC00035952795122F109500E085E5E82EEF1823
:103AD00080913401081758F10E940B1A9C8181E0F3
:103AE000992319F0903219F48FEF80932D01809172
:103AF0002D01890F8C83DF91CF911F910F91FF9042
:103B0000EF90DF90CF90BF90AF909F908F900895EF
:103B100025E530E0B901681B790B9B01220F331FAB
:103B2000260F371F37FFCCCF2F5F3F4FC9CF8E2DCA
:103B300001FD8F2D20913201622F600F7727771FB3
:103B40009B01220F331F260F371F235E3C4F412F4F
:103B500060911A030E9488190F5FBACF0F931F93C9
:103B6000CF93DF93EC0110E000E0909134019017C7
:103B7000110609F06CF40E940B1A8C8190E00196FA
:103B8000817099278C83DF91CF911F910F910895B8
:103B900020913201A801420F511D9A01220F331FBB
:103BA000240F351F235E3C4F4C8160911A03809196
:103BB000190396959017110651F04CF0442349F0E3
:103BC00040911B030E9488190F5F1F4FCECF4423E3
:103BD000B9F340E0F7CF1092D902089525E0E8E16B
:103BE000F3E0DC0101900D922A95E1F72091D702D4
:103BF0003091D8024091D902FC0125833683478356
:103C00000895E7EDF2E01182828184608283089555
:103C1000E8E1F3E080818E7F80830E94011EE7ED62
:103C2000F2E08281816082832FEF80E792E0215071
:103C300080409040E1F700C000000C940B1AE8E1CE
:103C4000F3E080818E7F80836081718182819381A6
:103C50000E94A9190E94011EE7EDF2E082818160B5
:103C600082832FEF80E792E0215080409040E1F77F
:103C700000C000000C940B1A60911803669570E068
:103C80004BE050E085E391E00E94422E892B19F42D
:103C900081E08093D8020E94A9119093D102809371
:103CA000D0028091D90284608093D90208959091C6
:103CB000180390FF3AC0917081112DC092609093CB
:103CC00018038091D90281608093D902662351F054
:103CD000609118037091190380911A0390911B034E
:103CE0000E94A91960911803669570E04BE050E0BE
:103CF00085E391E00E94422E892BA1F00E94011ED3
:103D000081E08093D30240911B0360911A0380915C
:103D100019030C94BC1B853210F09864D0CF880F27
:103D2000982BCDCF0E943C1EEBCF0895682F909129
:103D30001803969581E0890F853208F081E00C9494
:103D4000571E81E00C94961E682F9091180396954B
:103D50008FEF890F09F484E20C94571E81E00C94D4
:103D6000A41E61E00C94571EE8E1F3E080818160BD
:103D7000808386950C94B11E8091180380FD0C946D
:103D80001F1E0C94B41E60E00C94571E8091D60246
:103D9000811133C00E94EF0D811104C00E94940E66
:103DA0000E94BB190E94A519609318037093190310
:103DB00080931A0390931B038091D90283608093B0
:103DC000D9026E7F61F40E94BB190E94A51960930D
:103DD00018037093190380931A0390931B030E9496
:103DE00096190E94011E8091180380FF03C08695DA
:103DF0000E94C31E81E08093D60208951F93CF9343
:103E0000DF93EC01162F8F8180FF0CC0888180FF2B
:103E100024C080911803816080931803888186955F
:103E20000E94571E8F8181FF06C0212F4B816A811E
:103E300089810E94C31A8F8182FF05C08E818823E9
:103E400079F00E943C1E8F8183FF03C081E0809344
:103E5000D302DF91CF911F9108950E94081EE2CFF7
:103E60000E94011EF0CFEF92FF920F931F93CF930A
:103E7000DF938091D802882309F462C08091D70231
:103E8000E0911803E695E81BE093D202823009F036
:103E90005EC0F0E0EE54FD4FE491CE2FD0E000E69E
:103EA0001AE18091D302882361F01092D3020E941C
:103EB000A9119093D1028093D0021092D502109252
:103EC000D4020E94A911E091D002F091D1029C018C
:103ED0002E1B3F0B2F3F3F4798F52091CF02222307
:103EE000B1F01092CF022091CD023091CE02821B10
:103EF000930B8F3F9F4758F4205D3A483093CE0292
:103F00002093CD028091D90288608093D902E090FD
:103F1000D402F090D502EC0FFD1FF093D102E09394
:103F2000D00280ED92E0F80109958091D402909141
:103F3000D502892B29F4EF2819F081E08093CF0274
:103F4000DF91CF911F910F91FF90EF9008958630F0
:103F500049F4F0E0E155FD4FE491CE2FD0E004E7C5
:103F60001AE19FCF893051F4E695F0E0E455FD4F1A
:103F7000E491CE2FD0E00FEB1BE193CF8F3051F4C3
:103F8000E695F0E0E755FD4FE491CE2FD0E00CEF41
:103F90001BE187CF853149F4F0E0EA55FD4FE4910C
:103FA000CE2FD0E007E91CE17CCFC8E2D0E00EE1E3
:103FB0001DE1883109F475CF833239F4E4EAF2E087
:103FC000C591D49104E81AE16CCFC4EFD1E00EEAB8
:103FD0001DE1843209F465CFC0EDD7E000E819E1B6
:103FE00060CFFA01811101C0FB010994CF93DF93E7
:103FF000C82FD62F0E94D2198C1740F00E94D219D8
:104000008D1720F4DF91CF910C94A11E8C2FDF919E
:10401000CF910C94B11E1F93CF93DF93EC01FB0162
:10402000128111117EC00E94080D8272CD3CFCE508
:10403000DF0709F49CC008F041C0C73CECE5DE078F
:1040400009F481C0D8F4C43C9CE5D90709F471C0D7
:1040500030F4C33CDC4509F469C011E062C0C53CE2
:104060009CE5D90709F46AC04DE75BE160E77BE1B5
:10407000C63CDC4591F70E94F11F53C0CA3CFCE5E9
:10408000DF0709F46AC068F4C83CECE5DE0709F410
:104090005FC04CE85BE16BE97BE1C93CDC4559F36F
:1040A000DCCFCB3C9CE5D90709F45CC045E05AE184
:1040B0006EEE79E1CC3CDC45F1F2CFCFC23DFCE5C0
:1040C000DF0709F465C098F4CF3C9CE5D90709F4F3
:1040D00057C008F451C0C03DFCE5DF0709F455C0E6
:1040E000C13DDC4509F0B9CF6EE089E04BC0C53D6C
:1040F0009CE5D90709F452C058F4C33DFCE5DF073D
:1041000009F449C0C43DDC4509F0A7CF88E135C0BA
:10411000C63D9CE5D90709F444C0CE35DD4509F01C
:104120009CCF812FDF91CF911F9108950E94BC1EDB
:10413000F8CF4EEA5EE161EA7EE19DCF41EA5EE1C1
:104140006EEA7EE198CF40E75BE16DE77BE193CFDC
:104150004BE95BE16CE87BE18ECF49EB5BE16AEA1E
:104160007BE189CF4AEA5BE169EB7BE184CF4EEEEC
:1041700059E165E07AE17FCF81E00E94B11ED1CFA5
:1041800065E082E00E94F61FCCCF68E086E0FACFBF
:1041900064E18FE0F7CF67E185E1F4CF62E289E186
:1041A000F1CF83E2EACF3F9A48B14F7758B15068D8
:1041B000EFB7F8949B01220F331F260F371F280FEC
:1041C000391F2817390741F4EFBF8FE594E00197B5
:1041D000F1F700C000000895DC016D91CD0178E099
:1041E00058B9000000C067FF48B9660F000000C062
:1041F00000C000C048B900C07A9591F7E2CF089599
:10420000FC01680F791F8FEF91E36E177F0709F4A8
:1042100008952191822728E030E087FF06C0880FAB
:10422000892721503109C9F7F0CF880FFACFCF93F2
:10423000DF93EC01FB018281882309F433C1C43090
:10424000FDE5DF07C0F5CB3F9CE5D90730F49E01C3
:1042500022503C4524313105B0F50E94020E909366
:10426000F9028093F802C1318CE5D80709F4EEC059
:1042700008F069C0C930ECE5DE0709F4D5C0C8F51F
:10428000C5308CE5D80709F4C7C000F5C330ECE5AC
:10429000DE0709F4B9C008F0BBC0C230DC4509F440
:1042A000ADC08091F8029091F9020E94100E0E9418
:1042B000FB0780E008C0C236EDE5DE0771F2C63AC2
:1042C000FDE5DF0751F2DF91CF9108958091F8026B
:1042D0008062C7309CE5D90709F493C08091F80249
:1042E0008061C830DC4508F48CC08091F80280649D
:1042F00088C08091F8028B7FCD30FCE5DF0709F4A0
:1043000080C098F48091F8028E7FCB309CE5D9076D
:1043100009F477C08091F8028C60CC30DC4508F459
:1043200070C08091F8028D7F6CC08091F8028F7E02
:10433000CF30FCE5DF0709F464C008F47BC080914E
:10434000F8028F7D5EC0CE3F9CE5D90709F47AC0A4
:1043500050F5C531FCE5DF0709F486C098F480917B
:10436000F802837FC3319CE5D90709F44AC008F4F9
:1043700071C00E94FB079091F802892F97FB87F983
:1043800080583FC0CC3FFCE5DF0709F449C008F086
:1043900055C08091F9028160CB3FDC4509F081CFA7
:1043A0008093F9027ECFC230EDE5DE0709F468C0E4
:1043B000A8F4C1158DE5D80709F452C08091F9021F
:1043C0008360C130DD4560F38091F902982F9095AC
:1043D00091708E7F892B90FB81F9E2CFC236EDE59B
:1043E000DE0709F451C0C63AFDE5DF0709F453C002
:1043F000C330DD4509F055CF80E043C08091F8021D
:1044000081608093F8024DCF8091F8028260F9CFED
:104410008091F8028460F5CF8091F8028860F1CF36
:104420008091F9028260BCCF0E94FB078091F80264
:104430008068E7CF8091F802877FE3CF8091F9020F
:104440008E7FAECF8091F9028D7FAACF8091F80246
:104450008F7BD7CF0E94FB078091F8028F77D1CF57
:104460008091F9028C7F9CCF8091F80282FB992782
:1044700090F921E0922790FB82F990FB83F9C1CF5C
:1044800081E00E94A00E0DCF9091F802892F8F7EBF
:1044900094FF8061B6CF9091F802892F8E7F90FFB4
:1044A0008160AFCF81E00FCFCF93DF93EB018631F7
:1044B0009C4511F50E94080D9A81992399F08A7AFA
:1044C00091E009F490E09093DA02811109C089E249
:1044D0000E94E30C0E94480D80E0DF91CF91089587
:1044E00085E3F6CF8091DA02811104C089E20E944F
:1044F000EA0CF0CF85E3FBCF81E0EFCF0F931F9362
:10450000CF93DF93C42FD22FFC0182818823C9F07F
:104510004093DD020E9456269093DC028093DB02DA
:1045200080E28C0F883008F050C0C77081E001C075
:10453000880FCA95EAF7DF91CF911F910F910C94E4
:1045400070051091DD02141335C08091DB0290914B
:10455000DC020E946E26883C910560F5C0E2CD0F1A
:104560001D17B9F080E2810F883040F4177081E0A8
:1045700001C0880F1A95EAF70E947705C83048F401
:1045800081E09D2F977001C0880F9A95EAF70E94ED
:104590007005802F0E946805C830B8F4D77081E09C
:1045A00001C0880FDA95EAF7DF91CF911F910F9143
:1045B0000C94770580E28C0F883038F4C77081E066
:1045C00001C0880FCA95EAF7EFCFDF91CF911F9115
:1045D0000F9108950F939C01CB01243F4CE53407C4
:1045E00059F1A8F4293DFCE53F0701F12A3D4CE5CE
:1045F0003407D1F1283D3C4591F406E221EE41EE2D
:1046000068ED7CE50E947E2280E00F910895263FB0
:10461000FCE53F07E9F0B0F0273F3C45F9F0FC012D
:104620008281882339F11092DD02EFCF07E225EE77
:1046300045EE69ED7CE5E6CF06E221EE40EE64EF63
:104640007CE5E0CF07E225EE44EE65EF7CE5DACFCE
:1046500006E221EE42EE66EF7CE5D4CF07E225EEDE
:1046600046EE67EF7CE5CECF08E221E045EE6AED4D
:104670007CE5C8CF81E0C9CF80EF499B02C0815063
:10468000E1F7499BFECF089559988FEB90E0019791
:10469000F1F700C00000599A0895FC013AE03A95FC
:1046A000F1F798E020E080E031E040E84A95F1F74A
:1046B000880F499B02C08160232742E04A95F1F7A9
:1046C000000040E84A95F1F7915079F790E89A9503
:1046D000F1F799B132E03A95F1F7000040E84A95D8
:1046E000F1F79695917092272081920F908308950B
:1046F000EF92FF920F931F93CF93DF930F92CDB75B
:10470000DEB719828C017C01E60EF11C0E151F0527
:1047100061F481E09981911180E00F90DF91CF9158
:104720001F910F91FF90EF9008950E943C23CE01BE
:1047300001960E944D23F80181938F01E7CF519A92
:10474000599A08955198599AE99AE9E6F0E08081DA
:10475000837F808308956150770B91E001C0990FAA
:104760006A95EAF720E031E091110BC02223C1F0F5
:10477000599A8FEB90E00197F1F700C0000059982B
:104780000895492F482351F0599A2327EFEBF0E081
:104790003197F1F700C000009695E6CF5998F6CF13
:1047A0005998E7CFFF920F931F93CF93DF93EC01BC
:1047B0008C01060F111DC017D10731F4DF91CF9185
:1047C0001F910F91FF900895F9900E94442368E093
:1047D0008F2D0E94AB23EFCF1F920F920FB60F9237
:1047E00011240F931F932F933F934F935F936F93D6
:1047F0007F938F939F93AF93BF93EF93FF93CF9349
:10480000DF930F92CDB7DEB719820E943C23CE0111
:1048100001960E944D23082F069506950695282F90
:1048200022952570902F9570290F922F93702695C1
:104830002695920F982797708981982B09F05CC074
:10484000053008F059C080E88A95F1F7599A519AD5
:1048500082E08A95F1F700C0599888E0089F8001AE
:104860001124D801AB5FBE4F1696ED91FC911797BE
:104870003097A9F06091BC017091BD0114962D9103
:104880003C911597260F371F11968D919C91129789
:10489000680F791F13964C9113978C910995F80125
:1048A000EB5FFE4F6381662351F02091BC01309194
:1048B000BD0184819581820F931F0E94D2230E94A3
:1048C000442380E88A95F1F759985198599A80E8DD
:1048D0008A95F1F7F801EB5FFE4F6081662351F096
:1048E0002091BC013091BD0181819281820F931F83
:1048F0000E9478230E943C230F90DF91CF91FF917B
:10490000EF91BF91AF919F918F917F916F915F9147
:104910004F913F912F911F910F910F900FBE0F90CC
:104920001F9018950F931F93CF93DF93EC0105977A
:104930000CF04CC0F894519A599885E08A95F1F79B
:1049400000009C2F969595708C2F8570980F892F5D
:1049500083709695969523E0CC0FDD1F2A95E1F79D
:10496000980F8E01092B0E94442300C068E0802F1D
:104970000E94AB2390E89A95F1F75198599A499B78
:104980001EC087E090E049991CC0FE01EB5FFE4F1E
:1049900063816623F9F02091BC013091BD018481CF
:1049A0009581820F931F0E947823811113C0519A21
:1049B000599A7894DF91CF911F910F91089500C07B
:1049C000DECF019729F4519A599A789480E0F2CF7A
:1049D00000C0D9CF0E943C238FEB90E00197F1F704
:1049E00000C000005998519A90E89A95F1F7CB5F72
:1049F000DE4F6881662351F02091BC013091BD01EA
:104A000089819A81820F931F0E94D2230E9444239E
:104A1000789481E0CFCF9093E5018093E4010895ED
:104A20009093E4028093E30208950E94B7138111EA
:104A300003C08091DE020895E091E302F091E40268
:104A4000309721F00190F081E02D099480E00895E5
:104A5000E091E302F091E402309721F00280F381CB
:104A6000E02D09940895E091E302F091E40230977B
:104A700039F022E0DC012C930480F581E02D0994CB
:104A800008952091E1023091E2022817390771F070
:104A90009093E2028093E102E091E302F091E4025C
:104AA000309721F00680F781E02D09940895209138
:104AB000DF023091E0022817390771F09093E0028D
:104AC0008093DF02E091E302F091E402309721F05D
:104AD0000084F185E02D099408959C012E5F3F4FDD
:104AE000AC01485F5F4F80E02417350709F4089553
:104AF000F90191919F019923B9F38F5FF5CF662357
:104B000049F0FC01329608962191261729F0E81702
:104B1000F907D1F780E0089581E008959C01FC0138
:104B200032969FEF80E04191461751F09F3F19F474
:104B3000411101C0982F8F5F8630A9F79F3F09F47C
:104B40000895290F311D97FD3A95F9016283089563
:104B5000FC01329608962191261303C0DF011197BC
:104B60001C92E817F907B9F708950C948E250C9458
:104B7000A825029626E0FC0111922A95E9F70895EE
:104B800008950C94C025811105C081E08093E50251
:104B90000C94C12582E0FACF83E08093E5020C9467
:104BA000C1250C94C32581E08093E5020C94C125B6
:104BB0000C94D325089508950C94DB250895089549
:104BC0000C94DA25CF930E94DE250E942B130E94BD
:104BD000DF25C0E08C2F0E94F611811105C0CF5F48
:104BE000CE30C1F7CF91089581E0FCCF08951F9298
:104BF0001FB61F9211248F939F93AF93BF93809101
:104C0000E602811113C080915F0390916003A0912F
:104C10006103B09162034196A11DB11D80935F03B2
:104C200090936003A0936103B0936203BF91AF912F
:104C30009F918F911F901FBE1F90189580916703C1
:104C4000843031F10E94FC031092E60288E190E08A
:104C500020E40FB6F894A895809360000FBE2093CF
:104C6000600083B7817F846083BF83B7816083BF27
:104C70007894889583B78E7F83BF0FB6F894A895F4
:104C800080916000886180936000109260000FBE88
:104C900008950E94FB070C94000482E084BD93E019
:104CA00095BD9AEF97BD80936E0008952FB7F89445
:104CB00080915F0390916003A0916103B0916203C2
:104CC0002FBF08952FB7F89460915F037091600330
:104CD00080916103909162032FBF08959C014FB7AB
:104CE000F89480915F0390916003A0916103B0916B
:104CF00062034FBF821B930B0895CF92DF92EF9216
:104D0000FF922FB7F894C0905F03D0906003E090BB
:104D10006103F09062032FBFA7019601261B370B9A
:104D2000480B590BCA01B901FF90EF90DF90CF906B
:104D3000089578941F921FB61F9211248F939F930A
:104D4000AF93BF9380915F0390916003A091610343
:104D5000B09162030196A11DB11D80935F039093F2
:104D60006003A0936103B0936203BF91AF919F91E1
:104D70008F911F901FBE1F90189581E08093E000D7
:104D800080E28093D8001092C9008FE19EE40197E1
:104D9000F1F700C0000087E090EBDC018093700326
:104DA00090937103A0937203B093730388E19CE026
:104DB0000FB6F894A895809360000FBE90936000A2
:104DC000FFCF8091F202089508959C0182E08093C4
:104DD000E9009FEF8091E800915085FD06C085EDC8
:104DE0008A95F1F700009111F5CF8091E80085FFD9
:104DF0000CC050E040E066E070E0C9010E940B2961
:104E00008091E8008E778093E8000895CF93DF9338
:104E1000EC0181E08093E9008FEF9091E8008150F0
:104E200095FD06C095ED9A95F1F700008111F5CF3B
:104E30008091E80085FF14C050E040E068E070E039
:104E4000CE010E940B298091E8008E778093E800C4
:104E500088E0FE01AAEEB2E001900D928A95E1F79A
:104E6000DF91CF9108958093E7027093E9026093F8
:104E7000E80280916703843001F582E08093E900C5
:104E80008FEF9091E800815095FD06C095ED9A95C1
:104E9000F1F700008111F5CF8091E80085FF0DC08A
:104EA00050E040E063E070E087EE92E00E940B2962
:104EB0008091E8008E778093E8000895BC0184E03B
:104EC0000C943327BC0183E00C9433278091660354
:104ED000811109C00E949B2A0E94F82A8091E20059
:104EE00084608093E20008951092660308950C9404
:104EF000D3256091630381E0611101C080E00C94CF
:104F0000CC259091670381E0943009F080E06091B6
:104F100063030C94D12542E061EC81E00E94172AE2
:104F200042E261EC82E00E94172A9091670381E0DF
:104F3000943009F080E0609163030C94C325809164
:104F40006903833009F460C030F48130C9F18230E4
:104F500009F49CC008958A3009F488C08B3009F4A4
:104F60006EC0893009F04FC080916803813209F02A
:104F70004AC080916C0390916D03029708F043C082
:104F80008091E800877F8093E8008091E80082FFAD
:104F900036C09091F3008091F200029731F4809135
:104FA000F100813011F0863021F48091F10080937E
:104FB000F2028091E8008B778093E8000C944B2AF2
:104FC00080916803813AF9F48091E800877F8093AB
:104FD000E80080916C0390916D03892B61F468E087
:104FE0008AEE92E070E00E945A298091E8008B7767
:104FF0008093E800089560E090E080E0F3CF809136
:1050000067038111C2CF089580916803813AD9F76F
:1050100080916C0390916D03892BA9F78091E80032
:10502000877F8093E8008091E80080FFFCCF80912B
:105030004C018093F1008091E8008E77BDCF809184
:105040006803813201F780916C0390916D03892B85
:10505000D1F68091E800877F8093E8000E944B2A78
:1050600080916A0380934C010C94FB078091680344
:10507000813249F68091E800877F8093E8000E94A2
:105080004B2A80916B038093F3020895809168030B
:10509000813A09F0B8CF8091E800877F8093E800DB
:1050A0008091E80080FFFCCF8091F302C2CF84B7EB
:1050B000877F84BF0FB6F894A895809160008861BF
:1050C00080936000109260000FBE80E890E00FB601
:1050D000F89480936100909361000FBE0C94D825E2
:1050E0000E949B2A0E94F82AE2EEF0E08081846010
:1050F000808378940C94812D80E491E00C941025A9
:10510000809167038530A9F480916703853011F0A1
:105110000C9449260E941E26809165038823A1F3E2
:105120000E94E225882381F30E94F5280E94FB0754
:10513000EBCF089508950C949D28292F3327233011
:10514000310519F168F42130310509F444C02230E9
:10515000310509F445C090E080E030E020E025C052
:105160002132310549F122323105A9F780E490E07E
:1051700027EC35E061157105C1F08BE790E02CE478
:1051800035E06130710589F0E6CF992781309105CE
:1051900081F0009729F00297F1F6EBEBF4E002C002
:1051A000EBEFF4E0849190E09F01FA0131832083DA
:1051B0000895E5EDF4E0F6CF89E090E021E135E0F7
:1051C0006115710591F389E090E02AE235E06130E4
:1051D000710559F3C0CF82E190E02AE335E0E5CFD5
:1051E0008BE390E02FEF34E0E0CF80E189BD82E1F6
:1051F00089BD09B400FEFDCF8091D8008F7D8093DA
:10520000D8008091E00082608093E0008091E0000F
:1052100081FDFCCF0895AF92BF92CF92DF92FF92B3
:105220000F931F93CF93DF936C01EB018A010E94D0
:105230006A2AF82E811123C00115110539F0F801F1
:1052400080819181C81BD90BC80ED91EB12CA12C0D
:105250002097A9F08091E80085FD22C08091E800A8
:105260008E778093E80001151105A1F0F801808187
:105270009181A80EB91EB182A08285E0F82E8F2DF3
:10528000DF91CF911F910F91FF90DF90CF90BF9052
:10529000AF9008950E946A2A8823D1F2F82EEFCFAA
:1052A000F60181916F018093F1002197FFEFAF1A12
:1052B000BF0ACECFFC0180916E0390916F038617D9
:1052C0009707A0F06115710529F49091E8009E7789
:1052D0009093E80090E06115710551F4911108C0B8
:1052E0008091E80082FF34C080E00895BC01F2CFD5
:1052F000809167038823C1F18530C1F18091E80076
:1053000083FD30C08091E80082FDEACF8091E80003
:1053100080FFE1CF8091F3002091F200382F6115DA
:10532000710519F02830310558F091E02830310529
:1053300009F090E02091E8002E772093E800CBCF91
:1053400081918093F100615071092F5F3F4FE7CF4A
:1053500080916703882341F0853041F08091E80017
:1053600083FFBECF81E0089582E0089583E0089531
:10537000FC0180916E0390916F0386179707A0F050
:105380006115710529F48091E8008E778093E8001B
:1053900090E06115710551F4911108C08091E80009
:1053A00082FF35C080E00895BC01F2CF8091670391
:1053B0008823C9F18530C9F18091E80083FD31C0AF
:1053C0008091E80082FDEACF8091E80080FFE1CF84
:1053D0008091F3002091F200382F6115710519F0CA
:1053E0002830310558F091E02830310509F090E07F
:1053F0008091E8008E778093E800CBCF84918093F2
:10540000F1003196615071092F5F3F4FE6CF8091D7
:105410006703882341F0853041F08091E80083FFE5
:10542000BDCF81E0089582E0089583E00895982F2C
:10543000973028F08F708093E90081E00895909371
:10544000E900242F762F50E0981731F07091EC008E
:105450002091ED005091F00021FD02C09F5FE8CF48
:105460003091EB003E7F3093EB003091ED003D7FBB
:105470003093ED003091EB0031603093EB0070938E
:10548000EC002093ED005093F0002091EE0027FDFA
:10549000E5CF80E008958091680387FF13C0809175
:1054A000E80082FF06C08091E8008B778093E800D7
:1054B00004C0809167038111F2CF08958091670342
:1054C0008823D9F38091E80080FFF8CF8091E8002D
:1054D0008E77ECCF2091E4003091E50095E6A901AC
:1054E0002091EC00822F817020FF06C08091E8009F
:1054F00080FF06C080E008952091E80022FD1AC0D8
:1055000080916703882389F0853089F08091EB00D2
:1055100085FD0FC02091E4003091E500421753074C
:10552000F9F29150E1F684E0089582E0089583E075
:10553000089581E008950E94092B0E94112BE0EE4E
:10554000F0E0808181608083E8EDF0E080818F77FA
:10555000808319BCA7EDB0E08C918E7F8C93808105
:105560008F7E80831092660308950F931F93CF93CD
:10557000DF930E94092B0E94112BC8EDD0E0888197
:105580008F77888388818068888388818F7D8883EE
:1055900019BC109267031092630310926503109276
:1055A000640300EE10E0F80180818B7F80838881A6
:1055B0008160888342E060E080E00E94172AE1EE8B
:1055C000F0E080818E7F8083E2EEF0E08081816078
:1055D0008083808188608083F80180818E7F8083D2
:1055E000888180618883DF91CF911F910F91089509
:1055F000E8EDF0E080818F7E8083E7EDF0E0808150
:105600008160808384E082BF81E0809366030C9494
:10561000B52AE8EDF0E080818E7F80831092E20071
:1056200008951092DA001092E10008951F920F92EF
:105630000FB60F9211242F933F934F935F936F9365
:105640007F938F939F93AF93BF93EF93FF9380913B
:10565000E10082FF0BC08091E20082FF07C08091D1
:10566000E1008B7F8093E1000E94802D8091DA0021
:1056700080FF19C08091D80080FF15C08091DA00AA
:105680008E7F8093DA008091D90080FF96C080E100
:1056900089BD82E189BD09B400FEFDCF81E0809320
:1056A00067030E9466278091E10080FF19C0809106
:1056B000E20080FF15C08091E2008E7F8093E200BF
:1056C0008091E20080618093E2008091D800806246
:1056D0008093D80019BC85E0809367030E947927E6
:1056E0008091E10084FF2BC08091E20084FF27C0FD
:1056F00080E189BD82E189BD89B5982F917080FFD5
:10570000FBCF8091D8008F7D8093D8008091E100FD
:105710008F7E8093E1008091E2008F7E8093E20093
:105720008091E20081608093E2008091630388238E
:1057300009F449C084E0809367030E948127809127
:10574000E10083FF29C08091E20083FF25C08091A2
:10575000E100877F8093E10082E0809367031092ED
:1057600063038091E1008E7F8093E1008091E200ED
:105770008E7F8093E2008091E20080618093E2005E
:1057800042E060E080E00E94172A8091F00088608B
:105790008093F0000E947727FF91EF91BF91AF9126
:1057A0009F918F917F916F915F914F913F912F9139
:1057B0000F900FBE0F901F90189519BC10926703A1
:1057C0000E94742770CF8091E30087FD93E090934F
:1057D0006703B3CF1F920F920FB60F9211242F932E
:1057E0003F934F935F936F937F938F939F93AF9369
:1057F000BF93CF93DF93EF93FF93D091E900DF70D6
:105800008091EC00C82FC17080FDC0E81092E900C3
:105810008091F000877F8093F00078940E942E2C76
:105820001092E9008091F00088608093F000CD2B09
:10583000CF70C093E900FF91EF91DF91CF91BF91BD
:10584000AF919F918F917F916F915F914F913F9118
:105850002F910F900FBE0F901F9018951F93CF930D
:10586000DF93CDB7DEB7AA970FB6F894DEBF0FBEB1
:10587000CDBF88E693E02091F100FC012193CF0198
:10588000F3E080379F07B9F70E949F278091E800D7
:1058900083FF1EC180916803909169039A3008F0DC
:1058A00017C1E92FF0E0E554F14D0C94FF2D80383D
:1058B00099F0823809F00CC180916C038F708730A9
:1058C00008F006C18093E9008091EB0085FB8827F2
:1058D00080F91092E90006C08091640390916503FD
:1058E000911182609091E800977F9093E8008093F7
:1058F000F1001092F1008091E8008E77E5C08823D6
:1059000009F4D3C0823009F0E3C080916A038111A9
:10591000D6C080916C038F702FEF280F263008F0CF
:10592000D7C08093E9002091EB0020FFC8C09330DE
:1059300031F48091EB0080628093EB00C0C09091C5
:10594000EB0090619093EB0021E030E001C0220F6A
:105950008A95EAF72093EA001092EA008091EB0022
:105960008860EACF8111B4C010916A031F778091DB
:10597000E3008078812B8093E3008091E800877FAB
:105980008093E8000E944B2A8091E80080FFFCCFC2
:105990008091E30080688093E30082E0111183E04E
:1059A0008093670395C08058823008F091C0809141
:1059B0006A0390916B038C3D23E09207A1F583E08D
:1059C0008A838AE289834FB7F894DE01139620E038
:1059D0003EE051E2E32FF0E050935700E49120FFC6
:1059E00003C0E295EF703F5FEF708E2F90E0EA30DA
:1059F000C0F0C7968D939D932F5F243159F74FBF09
:105A00008091E800877F8093E8006AE270E0CE0131
:105A100001960E945A298091E8008B778093E800D4
:105A200057C0C096E7CF60916C0370916D03AE01D3
:105A30004F5F5F4F0E949B28BC01892B09F448C02F
:105A40009091E800977F9093E80089819A810E9465
:105A5000B829E1CF8038E1F58091E800877F809315
:105A6000E800809163038093F10045CF811130C03D
:105A700090916A03923060F58091E800877F80936F
:105A8000E800909363030E944B2A8091630388236C
:105A900011F084E005C08091E30087FDFACF81E03A
:105AA000809367030E948B2713C080916A03813023
:105AB00079F481E0933009F080E0809365031092DF
:105AC000E9008091E800877F8093E8000E944B2ADC
:105AD0008091E80083FF0AC08091E800877F80936F
