:100000000C9437040C946F040C946F040C946F04DC
:100010000C946F040C946F040C946F040C946F0494
:100020000C946F040C946F040C94CA210C949E22BF
:100030000C942E1C0C946F040C946F040C946F049D
:100040000C946F040C946F040C946F040C946F0464
:100050000C946F040C94B51C0C946F040C946F04F6
:100060000C946F040C946F040C946F040C946F0444
:100070000C946F040C946F040C946F040C946F0434
:100080000C946F040C946F040C946F040C946F0424
:100090000C946F040C946F040C946F040C946F0414
:1000A0000C946F040C946F040C946F040A002530B8
:1000B000313662003A200025303258000A722F6330
:1000C00020303132333435363738394142434445B4
:1000D000460A006C656674207369646520617474F7
:1000E00061636865640A006C6566742073696465A1
:1000F000206E6F7420726573706F6E64696E670A2C
:1001000000747279696E6720746F2072657365740C
:10011000206D637032333031380A00737461727449
:10012000696E6720696E69740000000000000000BD
:100130000017000A000500E3001500090019002A55
:100140000008000700060021521A0016001B00E2FA
:1001500000140004001D0000002B002900E1000035
:100160000000000000000000001C000B001100282F
:100170000018000D0010002C000C000E00360022AC
:100180005212000F003700E0001300330038000067
:100190000031003400E50000000000010001000112
:1001A0000031023500350201003000270230024CD8
:1001B000002F0026022F0201001F0221022302014C
:1001C000001E022002220200003500010001000092
:1001D00000000001000100010001005000240201A4
:1001E00000010051002E0001000100520036000104
:1001F0000001004F0037000100010022023800001A
:1002000000010034002D00000000003F0045000107
:100210000022003E004400010021003D0043000197
:100220000020003C00420001001F003B0041000193
:10023000001E003A00400000000100010001000023
:1002400000000001000100010023000100AC0001DA
:10025000002400A800AA00010025000100A9000157
:10026000002600AE00AB00010027000100010000E5
:10027000002D0001000100000044454255473A208E
:1002800064697361626C65642E0A00444542554797
:100290003A20656E61626C65642E0A000A002530A2
:1002A0003258006C65645F7461736B3A20004F6E66
:1002B0006573686F743A206163746976653A2025C6
:1002C000640A003F00433E20004C25640A000A09EE
:1002D0002D20537461747573202D0A686F73745FD9
:1002E0006B6579626F6172645F6C65647328293A2B
:1002F00020253032580A6B6579626F6172645F70D5
:10030000726F746F636F6C3A20253032580A6B65D8
:1003100079626F6172645F69646C653A202530327E
:10032000580A74696D65725F726561643332282999
:100330003A202530386C580A002573000A092D2010
:10034000436F6E736F6C65202D0A4553432F713ACE
:1003500009717569740A000A092D204D6167696386
:10036000202D0A443A094465627567204D65737310
:1003700061676520546F67676C650A583A094D617B
:1003800074726978204465627567204D6F646520DA
:10039000546F67676C65202D2053686F77206B65FD
:1003A000797072657373657320696E206D61747204
:1003B000697820677269640A4B3A094B6579626F04
:1003C00061726420446562756720546F67676C656D
:1003D000202D2053686F77206B6579707265737379
:1003E000207265706F72740A4D3A094465627567D0
:1003F000204D6F75736520546F67676C650A563AB8
:100400000956657273696F6E0A533A0953746174C1
:1004100075730A433A0941637469766174652043D0
:100420006F6E736F6C65204D6F64650A46312D46A3
:1004300031303A0953776974636820746F204C61D6
:1004400079657220302D392028463130203D204CEE
:1004500030290A302D393A0953776974636820745A
:100460006F204C6179657220302D390A4752415610
:10047000453A0953776974636820746F204C617939
:10048000657220302028616C7465726E6174652914
:100490000A423A094A756D7020746F20426F6F747A
:1004A0006C6F616465720A4553433A094A756D7011
:1004B00020746F20426F6F746C6F616465722028C6
:1004C000616C7465726E617465290A453A095072EF
:1004D000696E7420454550524F4D205365747469C0
:1004E0006E67730A4241434B53504143453A0943B7
:1004F0006C65617220454550524F4D0A006B65791D
:100500006D61705F636F6E6669672E7261773A2006
:10051000253032580A2E737761705F636F6E747284
:100520006F6C5F636170736C6F636B3A2025750A43
:100530002E636170736C6F636B5F746F5F636F6E5C
:1005400074726F6C3A2025750A2E737761705F6C38
:1005500063746C5F6C6775693A2025750A2E737732
:1005600061705F7263746C5F726775693A2025759C
:100570000A2E737761705F6C616C745F6C6775696C
:100580003A2025750A2E737761705F72616C745F13
:10059000726775693A2025750A2E6E6F5F677569F7
:1005A0003A2025750A2E737761705F6772617665F0
:1005B0005F6573633A2025750A2E737761705F62F9
:1005C00061636B736C6173685F6261636B737061AD
:1005D00063653A2025750A2E6E6B726F3A20257579
:1005E0000A2E737761705F6573636170655F636125
:1005F00070736C6F636B3A2025750A0064656275D1
:10060000675F636F6E6669672E7261773A20253087
:1006100032580A2E656E61626C653A2025750A2E85
:100620006D61747269783A2025750A2E6B6579625E
:100630006F6172643A2025750A2E6D6F7573653A85
:100640002025750A006565636F6E6669673A0A64FE
:10065000656661756C745F6C617965723A202575A9
:100660000A003F000A6D6F7573653A206F66660A6F
:10067000000A6D6F7573653A206F6E0A000A6B652C
:1006800079626F6172643A206F66660A000A6B6570
:1006900079626F6172643A206F6E0A000A6D61744C
:1006A0007269783A206F66660A000A6D6174726931
:1006B000783A206F6E0A000A64656275673A206FA7
:1006C00066660A000A64656275673A206F6E0A0002
:1006D0000A0A4A756D70696E6720746F20626F6FC9
:1006E000746C6F616465722E2E2E2000433E2000D4
:1006F000436C656172696E6720454550524F4D0AE3
:10070000000A002530325820006B6579626F6172F3
:10071000645F7265706F72743A20005B735D005B9A
:10072000575D005B535D005B525D005B445D005BA9
:10073000435D000C0347006500720067006F000016
:1007400000260367002000480065006100760079FC
:1007500000200049006E0064007500730074007290
:100760000069006500730000000403090409025BCE
:1007700000030100A0FA09040000010301010009BF
:100780002111010001224000070581030800010931
:1007900004010001030000000921110100012232BF
:1007A0000007058203200001090402000203000083
:1007B0000009211101000122220007058303200006
:1007C00001070503032000011201000200000008D8
:1007D000EDFE07130100010200010631FF0974A1BB
:1007E000010975150026FF0095207508810209761C
:1007F000150026FF00952075089102C005010980AB
:10080000A101850319012AB700150126B70095013A
:1008100075108100C0050C0901A101850419012A88
:10082000A002150126A002950175108100C00501E6
:100830000906A101050719E029E71500250195081A
:10084000750181029501750881010507190029FFCD
:10085000150026FF00950675088100050819012975
:1008600005950575019102950175039101C011244B
:100870001FBECFEFDAE0DEBFCDBF04B603FE18C067
:100880008091340390913503A0913603B0913703E2
:100890008730904BA740B04B59F41092340310921C
:1008A00035031092360310923703E0E0F8E3099520
:1008B00012E0A0E0B1E0E8EBFCE402C005900D928C
:1008C000A235B107D9F723E0A2E5B2E001C01D923D
:1008D000A433B207E1F70E949A160C941B260C94DD
:1008E0000000FF93EF93E0915202F0915302309792
:1008F00009F00995EF91FF910895FC0185918030F1
:1009000011F0EFDFFBCF0895FF27E0E230E247FF71
:100910000CC0419597FF09C0EDE2609570958095F8
:100920009095611D711D811D911D27FF02C02195AC
:1009300030E350E2AA27660F771F881F991FAA1F6E
:10094000A41710F0A41B63955A95A9F7AA3008F0D4
:10095000A95FA05DAF93F3956115710581059105C0
:1009600041F7ED3211F4EF93F395F21718F43F933A
:10097000F395FBCF8F91B5DFFA95E1F70895E991F3
:10098000F9918591803021F0853219F0AADFF9CFF5
:10099000089520E0E89455915532C1F3503311F495
:1009A000689455915A3348F4505390F3220F022E15
:1009B000220F220F200D250FF4CF0EF421958991DF
:1009C0009991533619F3533729F1533559F1BC0135
:1009D00088279927E8945C3621F489919991689445
:1009E0005591543639F446EF7EF077FF0DC08FEF06
:1009F0009FEF0AC055374AE039F0583540E121F001
:100A0000523642E009F00895FF93EF937DDFEF91B6
:100A1000FF91B7CFFF93EF93FC0181918030B9F341
:100A200060DFFBCFFF93EF9368DFF1CFDF93CF93CE
:100A3000CDB7DEB72596A3DFCF91DF91089580B3C0
:100A40008D7880BB81B3826781BB089584B114B86F
:100A500085B1807F85B93E9846988AB1837F8AB9EF
:100A60008BB1837F8BB985B1806F85B90895CF93A2
:100A7000C82F873078F58091060190910701892B66
:100A800039F568EE73E080E40E942F1A9093070115
:100A900080930601892BD1F468EE73E082E10E9415
:100AA0009B1A9093070180930601892B79F481E0CA
:100AB00090E001C0880FCA95EAF768EE73E0809570
:100AC0000E949B1A90930701809306010E94EC1AE2
:100AD000CF9108958A30B1F038F4883069F08930C8
:100AE00071F0209A2898F4CF8C3091F070F08D300E
:100AF000C1F73E9A4698ECCF219A2998E9CF229ADD
:100B00002A98E6CF239A2B98E3CF529A5A98E0CFAF
:100B1000539A5B98DDCFCF93873008F040C0809127
:100B2000060190910701C0E0892B71F468EE73E033
:100B300080E40E942F1A9093070180930601892B6D
:100B400031F0C0E00E94EC1A8C2FCF91089568EE2E
:100B500073E083E10E949B1A909307018093060142
:100B6000892B79F768EE73E081E40E942F1A909345
:100B7000070180930601892B21F788EE93E00E94FC
:100B8000C91A97FF05C09093070180930601D9CF3A
:100B9000C82FC0951092070110920601D3CFCFB194
:100BA0008FB1C695C1708695869586958E708C2B73
:100BB000C82FC095C9CF089508950E94DC050895F7
:100BC0000E94C50690E090930701809306010E9461
:100BD00026050E941F05E3E6F2E0A5E5B2E01192CA
:100BE0001D9282E0E137F807D1F78EE00E94B3153D
:100BF0000E94B80608950E94C50690E090930701F0
:100C0000809306010E9426050E941F05E3E6F2E09C
:100C1000119282E0E137F807D9F70895EF92FF9239
:100C20000F931F93CF93DF9380910601909107015B
:100C3000892BC1F0809154028F5F809354028111FF
:100C400011C081E091E00E947D040E94C50690E001
:100C50009093070180930601892BF1F187EE90E0D4
:100C60000E947D0405E512E0C0E0D0E087E0E82EB8
:100C7000EC0E8C2F0E9437058E2D0E9437058C2F8D
:100C80000E948B05F80191918F01F12C891721F0B9
:100C900031978083FF24F3948E2D0E948B05F801F9
:100CA00096818917E1F0868381E08F29D82B0E94F5
:100CB0002605CF5FC730D1F62D2F4EE063E672E0F8
:100CC00085E592E00E94CE150E94DD0581E0CDB75A
:100CD000DEB7E6E00C94922483ED90E0C1CF80E093
:100CE000E4CFE82FF0E0ED59FD4F80810895B0E0AA
:100CF000A0E0EDE7F6E00C9474248CEB90E00E9409
:100D00007D0483E6E82E82E0F82ED0E0C0E097EB89
:100D1000C92E90E0D92E0EEA10E0DF93CF93DF9238
:100D2000CF920E94160584EB90E00E947D04F701AB
:100D300081917F0190E00E9453089F938F931F93AE
:100D40000F930E9416058CEA90E00E947D04219684
:100D50008DB79EB708960FB6F8949EBF0FBE8DBF95
:100D6000CE30D105D1F6CDB7DEB7E8E00C949024B3
:100D70003F988AB18F708AB96E98479A8BB1806F0D
:100D80008BB9769A0E94DB0508958BE191E00E9471
:100D90007D0480E290E090930701809306018091AA
:100DA000710281110EC00E94291A81E080937102A4
:100DB0002FEF83ED90E3215080409040E1F700C099
:100DC000000068EE73E080E40E942F1A9093070100
:100DD00080930601892B09F04EC068EE73E080E035
:100DE0000E949B1A9093070180930601892B09F0BA
:100DF00042C068EE73E080E80E949B1A909307015E
:100E000080930601892BB9F568EE73E08FEF0E949D
:100E10009B1A9093070180930601892B61F50E942C
:100E2000EC1A68EE73E080E40E942F1A9093070199
:100E300080930601892BF9F468EE73E08CE00E9440
:100E40009B1A9093070180930601892BA1F468EE09
:100E500073E080E80E949B1A90930701809306013B
:100E6000892B49F468EE73E08FEF0E949B1A9093F0
:100E70000701809306010E94EC1A809106010895F3
:100E80008330C0F46E30B0F44430A0F4E62FF0E0CC
:100E90009EE0899FE00DF11D1124EE0FFF1FEE0F64
:100EA000FF1FE40FF11DEE0FFF1FE75DFE4F859161
:100EB0009491089581E090E008950E94400708957C
:100EC00081E0089581E008950E94620708950895E1
:100ED0000E9467070895A5E0B0E0E1E7F7E00C9411
:100EE000792449835A833091770289819A8131111B
:100EF00019C0662399F0222389F00E94A80D182FAB
:100F0000682F89819A810E94850D69817A81812F5C
:100F10000E9482142596E3E00C9495240E94960D7D
:100F2000182FF3CF0E94A80D69817A81F1CFFC01BF
:100F3000262F408151816281738184810E946B07D9
:100F4000089581E00895CF93DF93EC0160E00E9463
:100F50009707BE010E946807DF91CF910895089519
:100F60000E94540C0E94AF072FEF84E39CE02150B5
:100F700080409040E1F700C0000008950E94B00753
:100F80000E94D91C08950E94B0070E94FD1C08957C
:100F90000F931F93CF93DF938C0161E00E9497071B
:100FA000EC01B8010E946407811106C080E0DF9166
:100FB000CF911F910F910895B801CE010E94E519BC
:100FC0008823A1F3B801CE010E94A716882371F3EC
:100FD000B801CE010E945719882341F3F80182819C
:100FE000882369F0C330FCE7DF0781F160F4C1308A
:100FF000ECE7DE0769F1C0F4C115DC4791F0C801E8
:101000000E946007D4CFCB35ECE7DE0739F1CC3551
:10101000FCE7DF0701F1CA35DC4789F70E94EC11D4
:10102000EECF0E94BE07C2CF9091FC02892F8E7F27
:1010300090FF81608093FC0280FF05C08BE892E006
:101040000E947D04B3CF89E792E0FACF0E94F411A9
:101050000E94C307ABCF0E94E211D1CF0E94F011D2
:10106000CECF0E940C1C0E947D0808950E9481082A
:101070000E94101C0895829590E09C01220F331F5E
:10108000220F331F2C7C95958795959587958373B3
:10109000282B30E0C901880F991F8A7A359527954A
:1010A0002575822B0895CF93DF93D92F0E943B089B
:1010B000C82F8D2F0E943B089C2FDF91CF91089560
:1010C000089581E008950895CF93DF93D82F0E946B
:1010D0006108C82F882319F08D2F0E9463088C2F78
:1010E000DF91CF9108950895CF93C82F0E94600893
:1010F0008C2F0E946408CF91089580E00E947408AC
:1011000008950E94FA1A0E9474080895CF930E94CD
:10111000FA1AC82F809172028C1789F1C09372025B
:101120000E949A1C609373027093740280937502FC
:10113000909376028091FC0282FF1EC080FF1CC04B
:1011400083EA92E00E947D048091FC0280FF14C03B
:101150001F92CF938EE992E09F938F930E94160582
:101160008091FC020F900F900F900F9080FF04C0B1
:101170008CE992E00E947D048C2F0E947408CF912C
:101180000895ABE0B0E0E7ECF8E00C947A244F83EC
:10119000588769877A878B8761110E941A111E828E
:1011A0001D8285E0FE013796DE01119601900D92B9
:1011B0008A95E1F78C819D81892B61F449815A815F
:1011C0006B817C818D819E810E9442102B96E2E092
:1011D0000C94962489819A8189238F3F79F3CE01DB
:1011E00001960E94A1078111E9CFF0CFFC01808117
:1011F00091810E94DA0D0895CF93C82F8823C9F0FA
:101200008238C9F40E94FA1A81FD13C089E30E9452
:10121000D2100E943B112FEF87EE93E021508040C7
:101220009040E1F700C0000089E30E94DA100E94BC
:101230003B11CF9108958338A1F40E94FA1A80FDE2
:10124000F8CF83E50E94D2100E943B112FEF81EE70
:1012500094E0215080409040E1F700C0000083E519
:10126000E4CF8438A1F40E94FA1A82FDE2CF87E429
:101270000E94D2100E943B112FEF81EE94E021508A
:1012800080409040E1F700C0000087E4CECF8CEFB3
:101290008C0F813AB8F48C2F0E940B198111C9CFA1
:1012A0006C2F80910801909109010E94A71B88234F
:1012B00029F08C2F0E94DA100E943B118C2F0E9483
:1012C000D210B5CF80E28C0F883048F4C77081E02F
:1012D00001C0880FCA95EAF70E94FD10A8CFEBE580
:1012E000EC0FE33040F4F0E0E75BFE4F808190E0EC
:1012F0000E944B1B9ECFC85ACB3108F09ACFEC2FDF
:10130000F0E0EE0FFF1FED5EFE4F808191810E94A5
:10131000701B8FCF882309F44DC0823879F40E9466
:10132000FA1A81FF47C089E30E94D2100E943B1144
:1013300089E30E94DA100E943B110895833859F422
:101340000E94FA1A80FF36C083E50E94D2100E94E4
:101350003B1183E5EECF843859F40E94FA1A82FFDC
:1013600029C087E40E94D2100E943B1187E4E1CF9C
:101370009CEF980F913AE8F290E2980F983050F471
:10138000877091E001C0990F8A95EAF7892F0E9432
:101390000311D1CF9BE5980F933028F490E080E0C3
:1013A0000E944B1B0895885A8B3120F490E080E016
:1013B0000E94701B08951F93CF93DF93182FEB01AA
:1013C0000E94FC08209739F4812F0E948A09DF913E
:1013D000CF911F9108958FE99FE00197F1F700C029
:1013E00000002197EFCF70E060E0893311F460E5F1
:1013F00070E00E94DB090895882321F00E94FD100F
:101400000E943B110895882321F00E9403110E943D
:101410003B110895B0E0A0E0E0E1FAE00C94732401
:101420006C01D62FC72FFC011281058102950F7028
:101430000E94F310E82E8823E9F0E12E1123D1F069
:101440008C2F807F803451F080E28D0F8830F8F04F
:10145000011104C08C2F807E8032C9F080911E0360
:1014600082FF15C082E00E949E110E94F31091E05D
:10147000E82EE926BC2EB2949FE0B922FBE0FB15D2
:10148000B8F1EB2DF0E0E35EF94D0C946424E12C0F
:10149000F1CF0C2F0F70C07F11F00295007F112348
:1014A00099F0002359F080E28D0F883010F0D111AF
:1014B00007C0802F0E94FD100E943B118D2F5CC041
:1014C000802F0E940D11F8CF8D2F0E948A090023D2
:1014D00079F080E28D0F883010F0D11104C0802F98
:1014E0000E94031103C0802F0E9413110E943B1120
:1014F000EB2DE850FF0B349720F40E94FA1A0E945B
:101500007408EE2089F00E94EF1080FD0DC0F601F6
:1015100012820E94E9100E94E30CC6010E94180C7E
:101520000E94E9100E94F30CCDB7DEB7E9E00C94FD
:101530008F242C2F2F70F22EC07FC03219F0F2941E
:1015400080EFF822DD2351F0D13009F443C011239C
:1015500009F44AC0002309F442C0B0CF80911E03B1
:1015600082FD15C0112359F0FF2029F08F2D0E9414
:10157000FD100E943B1180E00E94FC08B9CF80E082
:101580000E948A09FF2009F4B3CF8F2DA9CF112320
:1015900081F0011106C00E941D118F290E94FC09D3
:1015A000A7CF0130C1F70E941D118F290E9424117D
:1015B0009FCF011106C00E9431118F2D0E94030A96
:1015C00097CF013009F494CF8F2D0E94030A0E9417
:1015D00031118ECF112329F0023008F089CF8F2DE1
:1015E000DDCF011185CFE9CF002339F3D93349F499
:1015F0003FEF87EE93E0315080409040E1F700C02C
:1016000000008D2F0E948A0973CF8C2F86958695B6
:10161000837069F0813009F06BCF8D2F9C2F937010
:10162000111102C080E090E00E94701B61CF8D2FED
:101630009C2F9370111102C080E090E00E944B1B20
:1016400057CF8C2F8370A1F5111152CF4D2F42959A
:1016500046954770440F440F2D2F2F7030E0042E15
:1016600002C0220F331F0A94E2F790E080E0D4FF1B
:1016700009C08FE090E002C0880F991F4A95E2F7F9
:1016800080959095C695C695C370822B932BC230DA
:1016900049F058F4C13019F00E94B30C29CF0E94D0
:1016A000AA0C26CF0E94BC0C23CF0E94A70C20CFEF
:1016B0008695112311F08C2F8170882309F418CF9F
:1016C0004D2F429546954770440F440F2D2F2F7094
:1016D00030E0042E02C0220F331F0A94E2F790E09C
:1016E00080E0D4FF09C08FE090E002C0880F991F0E
:1016F0004A95E2F780959095C695C695C370822B62
:10170000932BC23049F058F4C13019F00E941E0DDD
:10171000EFCE0E94150DECCE0E94270DE9CE0E945F
:10172000CB0CE6CECF70112329F08C2F0E94E30C56
:101730008D2F34CF8D2F0E94030A8C2F0E94F30C23
:10174000D7CED23F39F160F4D03FB9F0D13F81F02C
:10175000112309F445C00111B1CE8C2F8F711EC029
:10176000D33FF9F0D43FA1F780911E0382FD23C03F
:101770008C2F8F71112311F311C0112339F0011136
:10178000B7CE8C2F8F710E94050DB2CE023008F0BB
:10179000AFCEF7CF8C2F8F711111D0CF0E94E30CF9
:1017A000A7CE112329F08C2F8F710E94D70CA0CEC9
:1017B0000E94D20C9DCE112349F0CF718C2F0E9434
:1017C000E30C63E08C2F0E94801192CE81E00E9496
:1017D0009E11023008F48CCE82E00E949E1188CEC9
:1017E000002359F0D93309F00CCFEFEFF7EE23E0E7
:1017F000E150F0402040E1F702CF8C2F8F719ECF57
:101800000F931F93CF93DF93EC01688179818A81D5
:101810000E94E50D8C010E94300D0E94A60CB801BB
:10182000CE010E940A0ADF91CF911F910F91089576
:10183000CF93DF93EC018B819C81892B29F08881E8
:10184000998189238F3F51F4DF91CF910895CE0183
:101850000E94000CCE010E94A307F6CFCE010E9489
:10186000C8078111F4CF0E94F310882369F38A819D
:10187000882351F380911E0382FFE6CF82E00E940D
:101880009E11E2CF90E080E00E944B1B90E080E050
:101890000E94701B0E941A110E943B1108950E9421
:1018A000E2100E94420C08950E940A110E944F0CFF
:1018B000089592959F70963091F058F4925F9F70C2
:1018C000923058F4803F19F030F4883E30F481E0D3
:1018D00008959A5FF4CF843FD1F380E00895883E65
:1018E000B0F3813FD1F7F3CFFC0183819481892B41
:1018F00029F08081918189238F3F11F480E0089540
:10190000808191810E94DA0D0E94590C0895A5E012
:10191000B0E0EDE8FCE00C947A242596E2E00C942B
:101920009624A6E0B0E0E7E9FCE00C947A24269641
:10193000E2E00C94962408950E949B0C08950E9466
:101940009C0C9093970280939602089508950E94AC
:101950009F0C08952091960230919702822B932B31
:101960000E949F0C08952091960230919702822345
:1019700093230E949F0C0895209196023091970224
:10198000822793270E949F0C08950E949B0C089524
:101990000E94C50C08950E94C80C909395028093F4
:1019A0009402089590E080E00E94CB0C089521E01D
:1019B00030E0A90102C0440F551F8A95E2F7CA0121
:1019C0000E94CB0C089521E030E002C0220F331FAB
:1019D0008A95E2F78091940290919502822B932B45
:1019E0000E94CB0C089521E030E002C0220F331F8B
:1019F0008A95E2F720953095809194029091950216
:101A0000822393230E94CB0C089521E030E002C092
:101A1000220F331F8A95E2F78091940290919502EC
:101A2000822793270E94CB0C089520919402309135
:101A30009502822B932B0E94CB0C08952091940247
:101A400030919502822393230E94CB0C089520911C
:101A5000940230919502822793270E94CB0C08951F
:101A60000895262F277091E001C0990F2A95EAF773
:101A700023E0769567952A95E1F7660F771F660F45
:101A8000771FFA01E60FF71F50E040E0682F70E083
:101A90008191DF0111979B01042E02C03695279595
:101AA0000A94E2F7217021952827292328272C93CF
:101AB0004F5F5F4F4430510559F70895A82FA77025
:101AC00023E0969587952A95E1F7880F991F880F4F
:101AD000991FFB01E80FF91F50E040E080E02191E1
:101AE00030E00A2E02C0369527950A94E2F721705D
:101AF0003327042E01C0220F0A94EAF7822B4F5F8E
:101B00005F4F4430510559F70895262F9E3068F4F1
:101B1000843058F434E0939FB0011124680F711D94
:101B200048E752E0822F0E94310D08959E3070F4F4
:101B3000843060F444E0949F9001112468E772E0DF
:101B4000820F932F911D0E945E0D089580E00895ED
:101B5000B0E0A0E0EEEAFDE00C9473247C0100917B
:101B60009402109195028091960290919702082B11
:101B7000192BCFE0D0E0CC24C394D12CBC2EC601CD
:101B80000C2E02C0880F991F0A94E2F7802391233C
:101B9000892B49F4219790F7B12C8B2DCDB7DEB767
:101BA000E9E00C948F24B7018C2F0E948E140197CA
:101BB00089F3F3CFCF93DF93EC010E94A80DBE0110
:101BC0000E948E14DF91CF9108951F93CF93DF93DE
:101BD000EB0190917702992339F0CB010E94DA0D45
:101BE000DF91CF911F910895882369F0CB010E9466
:101BF000A80D182F682FCE010E94850DBE01812FE0
:101C00000E948E14EDCFCB010E94960D182FF6CFB7
:101C10001F93CF93DF93C091980216E080919902B1
:101C20008C1304C0DF91CF911F910895D0E01C9FC9
:101C3000F0011D9FF00D1124E656FD4F40815181AA
:101C400062817381848195810E94910C2196C77075
:101C5000E5CF4091CA025091CB026091CC027091C5
:101C6000CD028091CE029091CF020E94910C0895F6
:101C7000209198029091990256E0291302C080E0C9
:101C8000089530E0529FF001539FF00D1124E65665
:101C9000FD4F7181761306C07081781303C0728185
:101CA000741304C02F5F3F4F2770E7CF81E0089582
:101CB0001F93CF93DF938091CF02807F09F04BC0B9
:101CC0008091CC02882309F446C080919802C0918B
:101CD00099024091CA025091CB026091CD0270915D
:101CE000CE02D42FD52316E0C817A9F190E06115D4
:101CF0007105A9F1DF3F99F1189FF001199FF00DCF
:101D00001124DF01A656BD4F11962C911197251372
:101D100026C02C91241323C012962C9112972111C6
:101D20001EC013962D913C91261B370B283C310584
:101D3000B0F48091CF028F7080618093CF02E15622
:101D4000FD4F80818F70806180838AEC92E00E94D9
:101D5000180C0E94080EDF91CF911F9108950196F3
:101D60008770C2CFA1E1B0E0E8EBFEE00C947024F4
:101D70008C0185E0F801DE011D9601900D928A9597
:101D8000E1F7F801F2808AECA82E82E0B82E4091AB
:101D9000CD025091CE024115510509F45AC19091DE
:101DA000CA022091CB02892F82238F3F09F451C1AF
:101DB000C080D18083809480E090CC02B401641B09
:101DC000750BEE2009F4F6C08091CF02382F307FDA
:101DD000683C710508F0AFC031117AC0EF2C2D11AD
:101DE00016C09C1114C0F11012C08F7080618093D6
:101DF000CF020E94290EC5010E94180C8091CF02CB
:101E0000F80185838E2D6196ECE00C948C2481146E
:101E10009104C9F18C2D8D218F3FA9F181E08F258F
:101E200080FF05C04F2D6D2D8C2D0E94380E811422
:101E3000910459F18C2D8D218F3F39F181E08F254F
:101E4000F82FF170BF2E80FF39C04F2D6D2D8C2DD6
:101E50000E94380EA82E811131C0CD86DE868D8578
:101E60009E850E94DA0D292F22952F70243078F458
:101E70009F702230A8F09923B9F0F8019581907FE6
:101E800099F4EA2CBFCF80E0CBCF80E0D9CF2A5F96
:101E90002F70223068F0C8010E94180CAB2CF1CFD3
:101EA000992311F0882369F3805E883050F3F3CFD3
:101EB000803F38F3815F833070F7E3CFFF2009F470
:101EC000A1CF8091CF0281608093CF02E12C9ACF85
:101ED0002D1105C09C1103C0FF2009F486C0C80164
:101EE0000E94740C882319F1FF2009F18091CF0220
:101EF000803270F02091CA023091CB0238872F8354
:101F000019869B868A868C87CE0107960E94180CBC
:101F100086E0F801AAECB2E001900D928A95E1F713
:101F20000E94580E0E94290EEE24E3946BCFC80144
:101F30000E94180CF9CF311114C0782D998A888A23
:101F4000A6016F2D89890E94870C8AEC92E00E947D
:101F5000180C86E0F50111928A95E9F70E94290E86
:101F6000B5CF2D110EC09C110CC0F1100AC0858395
:101F7000C8010E94180C86E0F50111928A95E9F7D4
:101F800041CFC8010E94740C882389F2FF2079F2A6
:101F90008091CF02803208F4BBCF2091CA023091E9
:101FA000CB023A8329831B829D828C828E83CE0151
:101FB0000196ACCF683C710508F03DC0EF2CFF20C6
:101FC00009F4B5CF2D1129C09C1127C08091CF02F3
:101FD00080FD1AC0982F907FB9F08583903F31F033
:101FE000982F907F905F8F70892B8583C8010E9406
:101FF000180C86E0F801AAECB2E001900D928A95E7
:10200000E1F70E94290EFECE86E0F801AAECB2E0CC
:1020100001900D928A95E1F7F5CEC8010E94740CEB
:10202000811176CF8091CF0281608093CF02C80169
:102030000E94180CE7CE782D998A888AA6016F2D08
:1020400089890E94870C86E0F50111928A95E9F74B
:10205000D8CFFF2009F46BCFC8010E94740CE82E82
:10206000882309F464CF86E0F801AAECB2E001907D
:102070000D928A95E1F78AEC92E00E94F6080E94A0
:10208000580EBFCFACE0B0E0E8E4F0E10C94792466
:102090004F83588769877A878B879C87CE010796FD
:1020A0000E94B20E8823B1F08A859B85892B39F076
:1020B0004F815885842F85238F3F09F06CC016E02F
:1020C0008091980290919902891343C02C96E3E085
:1020D0000C94952486E0FE013796DE01119601905E
:1020E0000D928A95E1F78A859B85892B41F38F8133
:1020F000988589238F3F19F32091990230E0C90117
:10210000019687709927409198024817190671F433
:102110000E94540C109299021092980286E0EAEC08
:10212000F2E0DF011D928A95E9F7C9CF96E0929F10
:10213000D001939FB00D1124A656BD4FFE013196DC
:1021400001900D929A95E1F7809399020E94080EF2
:10215000B6CF819FC001112486569D4F0E94B20EBA
:10216000882309F4B3CFE09198021E9FF001112457
:10217000E656FD4F40815181628173818481958152
:102180000E94910C8091980290E0019687709927A7
:102190008093980295CF69857A858B859C850E946E
:1021A000910C8DCF682F80910801909109010E94B8
:1021B000DD1B0895682F80910801909109010E940C
:1021C000E01B089580910801909109010E94E31B92
:1021D00008958091D802859585958595089580917B
:1021E000D802877008959091D802977081E009F421
:1021F00080E008958091E30208959091E302892B95
:102200008093E302089580959091E3029823909340
:10221000E30208951092E30208959091E202892B5F
:102220008093E202089580959091E2029823909322
:10223000E20208951092E20208958091D902089571
:1022400008950E942011089590911E0392FF08C0E6
:102250009091D902981721F08093D9020E94211100
:1022600008958091D902882329F01092D90280E044
:102270000E9421110895CF93DF93E0910801F0911E
:1022800009018091E3028083E0910801F091090146
:1022900080819091E202892B80839091D9029923C9
:1022A00081F0E0910801F09109018081892B808300
:1022B00080910801909109010E94951B81110E9453
:1022C0003111C0910801D091090148E050E060ED62
:1022D00072E0CE010E94CC25892B59F088E0FE01E6
:1022E000A0EDB2E001900D928A95E1F7CE010E9437
:1022F000071BDF91CF91089508950E947C110895E6
:1023000090911E0392FF11C098E0899F90011124C3
:10231000622B6093D8020E94E30C8091D8028595CD
:10232000859585950E947D1108950E94E30C08957E
:102330001092D80280E00E947D1108959091D802F9
:10234000809589238093D802282F277091F4282F15
:10235000082E000C330B9217130659F090911E03B0
:1023600092FF07C08595859585950E94F30C0E9484
:1023700098110895CF93C82F80911E0382FB99274F
:1023800090F99C17E9F0C0FB82F980931E038091BD
:102390001D0390911E030E94151282E00E949E115F
:1023A0008091FC0280FF0CC01F92CF938EEA92E0D6
:1023B0009F938F930E9416050F900F900F900F9090
:1023C000CF91089580911E0382FB882780F991E0C8
:1023D00089270E94BA11089581E00E94BA110895D8
:1023E00080E00E94BA1108956FEF7FEF90E080E0E7
:1023F0000E940526089590E080E00E94E12521E0FA
:10240000873E9E4F09F020E0822F089582E090E001
:102410000E94D925089583E090E00E94D92508956F
:1024200084E090E00E94E1250895BC0184E090E002
:102430000E9405260895AB01BC018FE090E00E9448
:10244000F9250895AB01BC0183E190E00E94F925D4
:10245000089560E070E0CB010E942212089560E0D0
:1024600070E0CB010E941B120E942912089567EEB2
:102470007EEF90E080E00E94052660E082E090E040
:102480000E94E72560E083E090E00E94E72510923B
:1024900097021092960260E074E184E090E00E945E
:1024A000052660E086E090E00E94E7256FEF87E078
:1024B00090E00E94E72540E050E0BA0188E090E01B
:1024C0000E94F92560E08DE090E00E94E72540E061
:1024D00050E0BA0188E190E00E94F92560E087E1D0
:1024E00090E00E94E72540E050E0BA018CE190E0E6
:1024F0000E94F92570E060E080E290E00E940526ED
:1025000040E050E0BA0188E190E00E94F9250E9485
:102510002F1208950E9437120895682F8EE090E0E0
:102520000E94E7250895A5E0B0E0E9E9F2E10C9406
:1025300078240E948E1C8C018091E4029091E50227
:1025400080179107A1F08FEF89838A831B820E94F5
:102550008E1C8160782F9D838C8349815A816B8189
:102560008D810E94C1081093E5020093E402259634
:10257000E4E00C9494240E949A1C6093F8027093F7
:10258000F9028093FA029093FB026093F402709335
:10259000F5028093F6029093F70208950895089546
:1025A0000E94CF12089508950E94D312089581E0E9
:1025B00008958CE99EE10E94F01A0E94CE120E94BA
:1025C000D01208950E94D71208950E94E212089531
:1025D000089508950E94E8120E94E91208950E9449
:1025E00095150E94730808950E94851C0E94E005BD
:1025F0000E94EF120E94D4120895A5E0B0E0E3E03B
:10260000F3E10C9472240E94D712811108C00E9439
:1026100093120E9486082596EAE00C948E240E946C
:102620000E0686EEA82E82E0B82E750110E0F701A6
:1026300001917F01812F0E9471061F5F1E3009F4F6
:1026400040C00817A1F38091FC0281FD0E9477062B
:102650000E94E512C82E10E0812F0E947106082FFB
:10266000F50181915F01081731F1D02ED826F12CA8
:10267000EE24E3948D2D8E21B1F0CC20A1F0F982CF
:102680001A8391E0802F8E2109F490E09B830E94B1
:102690008E1C8160782F9D838C8349815A816B8148
:1026A0008D810E94C108F394EE0CF4E0FF12E2CF9A
:1026B000F501319700831F5F1E3071F60E94BB1237
:1026C000A8CF0813C0CFA3CF1F93CF93DF930E944F
:1026D0009314EC01C11580E5D807F0F5C11580E42D
:1026E000D80708F09CC0C03ED10520F5CD3CD105EF
:1026F00008F082C0C83AD10578F4C53AD10508F08F
:1027000073C0C130D10519F1209709F1C430D1054A
:10271000F0F4D0E0C0E01BC0C33CD105D0F7C85AEC
:10272000D0E0CC0FDD1FC45BDE4F0990D881C02DF7
:10273000D4640DC0C11580E2D80708F0D1C0C1151E
:1027400081E0D80708F05AC0C83ED10510F7CE0185
:10275000DF91CF911F910895C03682E5D80718F513
:10276000C03482E5D80708F06BC0C03282E5D807D4
:1027700008F05FC0C11582E5D80708F497C02C2F78
:102780002695269580E2289F900111248C2F837036
:10279000C1E0D0E002C0CC0FDD1F8A95E2F7C22B6A
:1027A000D32BDD68D4CFC03A82E5D80760F4C038B7
:1027B00082E5D80708F459C0CF71D0E0DC2FCC27D0
:1027C000C46FD06AC4CFC03C82E5D80708F462C0A9
:1027D000C03E82E5D80708F09CCFDC2FCC27CC2761
:1027E000DF71C06FD06AB3CFC55AD0E0CE57DE4F8D
:1027F000C881D0E0D064ABCFD065A9CF8D2F0E9427
:102800003515182FCE0199270E949314C12FD0E0BF
:10281000DC2FCC27CC27DF71C82BD92B98CFCE014A
:1028200099270E949314CC27DF70C82BD92BD06A2C
:102830008ECFCF71D0E0DC2FCC27C16FD06A87CF8D
:102840002C2F26952695277080E2289F9001112431
:102850008C2F8370C1E0D0E002C0CC0FDD1F8A95C1
:10286000E2F7C22BD32BDC6872CF2C2F269526954E
:10287000277080E2289F900111248C2F8370C1E083
:10288000D0E002C0CC0FDD1F8A95E2F7C22BD32B1C
:10289000DA685DCF8C2F8F710E943515C82FD0E07C
:1028A000DC2FCC27CC27DF71D06251CF8C2F8F71DA
:1028B0000E94351555E0D695C7955A95E1F7CF702A
:1028C000D0E0DC2FCC27282F30E084FF05C044E087
:1028D000220F331F4A95E1F7C22BD32BD06937CF94
:1028E0008D2F8F710E943515182FCE0199270E94C8
:1028F0009314C12FD0E0DC2FCC27CC27DF71C82B5D
:10290000D92BD2CF462F7E3030F4643020F4672F9D
:102910000E945D07089590E080E008950E9482146F
:102920000E946413089582389105B9F1B0F481339F
:10293000910509F47DC048F48932910509F46DC010
:102940008A32910509F47BC008958533910509F415
:102950005FC08933910509F10895833E9105D9F14E
:1029600038F4803E910529F1823E910579F1089570
:10297000863E9105D9F1873E910509F43EC0843E1B
:10298000910541F520911E0321FF24C080911D0374
:1029900084FD19C087EE90E0089520911D032370F7
:1029A00009F05AC020911E0323FF14C089E290E071
:1029B000089520911D0320FD38C030911E0330FF83
:1029C00009C024FF43C090E080E0089520911D03DA
:1029D00022FDF7CF089520911D0322FD3AC03091CA
:1029E0001E0330FD39C024FFF5CFEDCF20911D032C
:1029F00023FFF0CF24FDE7CFCDCF20911D0323FD92
:102A00002EC030911E0331FFEECF84EE90E008958A
:102A100020911D0325FFDECFC9CF20911D0325FD89
:102A200021C020911E0323FFD5CF89E390E0D2CFB0
:102A300020911D0326FFCECF8AE290E008952091D9
:102A40001D0326FFC7CF81E390E0089583EE90E059
:102A5000089582EE90E0089580EE90E0089586EE6D
:102A600090E0089585E390E0089590911D0392FF12
:102A700006C0282F28712830F9F4877F846093FFDF
:102A800006C0282F28712831F1F4877E84612091B7
:102A90001E0320FF06C0382F38713830D9F4877FE5
:102AA000816021FF06C0282F28712831D1F4877E4C
:102AB000816194FD877E0895282F24712430F9F6D2
:102AC0008B7F8860DCCF282F2471243101F78B7E27
:102AD0008861DDCF382F3171313019F78E7F8860F2
:102AE000E0CF282F2171213121F78E7E8861E1CF3F
:102AF0000E94F41108950E940E062FEF86E791E0E0
:102B0000215080409040E1F700C000000E940E0676
:102B10008DE00E94710682FF04C00E9478150E9419
:102B2000D91C08950E947B1508950E94FB11811104
:102B300002C00E948A120E9406128093FC020E9428
:102B4000101290931E0380931D030E9492150E9401
:102B50000B1290E00E94A70C809194029091950234
:102B60000E94C80C0895CF93C82F24E0829FC00113
:102B700011240E94A12480930103909302039C01DD
:102B800080E08C1302C0CF910895F90194E0119276
:102B90009150E9F78F5F2C5F3F4FF3CFB0E0A0E09B
:102BA000E4EDF5E10C946A24EC01962E172F842EA7
:102BB000522E1092FD020091FE02002309F48BC0F8
:102BC0000E948E1C2091FF0230910003AC01421B39
:102BD000530B9A01909300038093FF024F3F5105DE
:102BE00009F0E0F4452BB9F0722E1092FE024091EC
:102BF0000103509102034090FD02E92DF12F90E076
:102C000080E0612CEE24E394F12C881550F0609262
:102C1000FE024092FD02511066C077C02FEF30E0F7
:102C2000E3CF1A0130E020E06E01C80ED91ED101B9
:102C3000BD901D01BB20F1F0BD01615071097B14F5
:102C400018F1DB011C927081D601AC90672F6A25C8
:102C50005701022E01C0AA0C0A94EAF7A622BA2C48
:102C6000B726642D70E06A2944244394672B09F445
:102C7000412CB0822F5F3F4F24303105C1F64C5FAD
:102C80005F4F01963196C1CFB718DB01BC92602E21
:102C9000F1CF8191D9019D919D018927DB0150E000
:102CA00040E090E06C01042E02C0D594C7940A94D1
:102CB000E2F7C0FE0EC0DC91D11102C0CC9301E05E
:102CC00011964F5F5F4F4430510561F76C5F7F4F46
:102CD00016C01C92F5CF2223C1F00E948E1C909347
:102CE00000038093FF026091010370910203009141
:102CF000FE02FC2E292D312FEC2FFD2FC5E08E2F4B
:102D00008F19881530F20093FE028091FD02CDB735
:102D1000DEB7E2E10C9486240E94181F0E94F41290
:102D20000E94251F08950E942A1F0E94FD120E94E2
:102D3000481F08950E94271C0E94FE1E0E94D9125F
:102D40000E948C160E9493160E94EA12FBCFCF932A
:102D5000DF93EC01FB018281882309F4D2C09E013C
:102D600030572332310508F0B2C00E941012909300
:102D70001E0380931D03FE01E150F047E232F1058E
:102D800020F4E75DF94D0C94642480911D0381606B
:102D900080931D0393C080911E03886080931E035F
:102DA0008DC080911D038260F3CF80911D038460EC
:102DB000EFCF80911D038860EBCF80911E0381606F
:102DC000EDCF80911E038260E9CF80911D03806169
:102DD000DFCF80911D038062DBCF80911D03806473
:102DE000D7CF0E94540C80911D038068D1CF809171
:102DF0001D038C60CDCF80911E038360CFCF809167
:102E00001D038E7FC5CF80911E03877FC7CF809122
:102E10001D038D7FBDCF80911D038B7FB9CF809126
:102E20001D03877FB5CF80911E038E7FB7CF809122
:102E30001E038D7FB3CF80911D038F7EA9CF80911C
:102E40001D038F7DA5CF80911D038F7BA1CF0E9495
:102E5000540C80911D038F779BCF80911D03837F3E
:102E600097CF80911E038C7F99CF80911D0382FBA9
:102E7000992790F921E0922790FB82F990FB83F942
:102E800087CF80911E03982F909591708E7F892B0C
:102E900090FB81F983CF90911D03892F8F7B96FF43
:102EA000806476CF0E94540C90911D03892F97FB6C
:102EB00087F980586DCF81E00E948D1280911D03AB
:102EC00090911E030E9415120E94540C80E0DF9125
:102ED000CF91089580E0F0CF90911D03892F8F7ED0
:102EE00094FF806155CF90911D03892F8E7F90FFB5
:102EF00081604ECF90911E03892F877F93FF88605A
:102F00004DCF81E0E4CFCF93C82F1F928F9389ECF0
:102F100092E09F938F930E94160581E090E002C09B
:102F2000880F991FCA95E2F70E94A70C0E94540CC3
:102F30000F900F900F900F90CF910895EF92FF9206
:102F40000F931F93CF93DF938B3109F410C108F0D7
:102F5000B0C08B3009F4CCC008F082C0863009F4D0
:102F6000DAC048F4853009F4B2C082E696E00E94E7
:102F70007D0480E0E0C0873009F4E2C08830A9F722
:102F80000E940B121F928F9385E496E09F938F937C
:102F90000E9416050E94061283FB992790F91F9242
:102FA0009F9382FB992790F91F929F9381FB99270A
:102FB00090F91F929F93982F91701F929F931F9249
:102FC0008F938CEF95E09F938F930E9416050E943C
:102FD000101293FB222720F91F922F9387FB2227A1
:102FE00020F91F922F9386FB222720F91F922F93FF
:102FF00085FB222720F91F922F9384FB222720F99B
:103000001F922F9383FB222720F91F922F9382FB7D
:10301000222720F91F922F9391FB222720F91F923C
:103020002F93292F21701F922F9381FB222720F9A4
:103030001F922F93282F21701F922F939F938F936E
:103040008DEF94E09F938F930E9416058DB79EB7E6
:103050008A960FB6F8949EBF0FBE8DBF81E06BC0FD
:10306000803109F49CC080F48E3009F07ECF9091BD
:10307000FC02892F8B7F92FF84608093FC0282FF89
:103080008BC08DE896E07FC0863109F498C0893105
:1030900009F06BCF85E891E09F938F9389E393E0EC
:1030A0009F938F930E9416050F900F900F900F9093
:1030B000D5CF8A3249F190F4873211F128F48E315C
:1030C00008F453CF8D511DC0893209F04ECF80EDE9
:1030D00096E00E947D040E94BE07C0CF833468F44E
:1030E0008A3308F091C0853359F0883309F03DCF19
:1030F00087E593E00E947D04B1CF833409F035CF9A
:1031000080E00E948317AACF80EF96E00E947D04A2
:103110000E948A12A3CF8091FC02807F8093FC02E0
:103120008CE393E00E947D048CEE96E00E947D0487
:1031300081E080930303CDB7DEB7E6E00C949224E0
:103140009091FC02892F8E7F90FF81608093FC021A
:1031500080FF03C084EC96E0CDCF87EB96E00E9421
:103160007D048091FC02817F8093FC0277CF909157
:10317000FC02892F8D7F91FF82608093FC0281FF8A
:1031800008C08AEA96E00E947D048091FC0281607A
:10319000EBCF8CE996E0AECF8DE796E0ABCF909188
:1031A000FC02892F877F93FF88608093FC0283FF56
:1031B00003C081E796E0E7CF84E696E09BCF0E94CC
:1031C0009A1C162F072FF82EE92ED0911C03C091C0
:1031D00012010E94FA1AEF92FF920F931F931F920F
:1031E000DF931F92CF931F928F938EEC92E09F9369
:1031F0008F930E9416058DB79EB70C960FB6F89464
:103200009EBF0FBE8DBF2ACF89537BCF80E008952C
:103210000E9406190895CF93C82F80910303882335
:1032200029F08130C1F01092030313C00E94FA10FC
:10323000813159F48C2F0E940619811123C08C2FE3
:103240000E949E178170CF9108950E94FA108232D9
:1032500089F380E0F8CF0E94FA10813159F30E947F
:10326000FA10823239F38C2F0E940819811119C08B
:10327000C431C9F050F4CB3061F083EC92E00E948D
:103280007D0413C081E090E0DDCFC93261F0C83326
:10329000A1F78CE393E00E947D0485EC92E00E940C
:1032A0007D0481E0CFCF1092030380E0CBCFCF939A
:1032B000DF93EB0186319C4711F50E94FA109A8149
:1032C000992399F08A7A91E009F490E090930403AD
:1032D000811109C089E20E94D2100E943B1180E056
:1032E000DF91CF91089585E3F6CF8091040381119A
:1032F00004C089E20E94DA10F0CF85E3FBCF81E0C1
:10330000EFCF0F931F93CF93DF93C42FD22FFC01E6
:1033100082818823C9F0409307030E948E1C9093FA
:1033200006038093050380E28C0F883040F4C77059
:1033300081E001C0880FCA95EAF70E94FC09DF917D
:10334000CF911F910F91089510910703141332C06C
:1033500080910503909106030E94A61C883C91056C
:1033600048F5C0E2CD0F1D17B9F080E2810F88301B
:1033700040F4177081E001C0880F1A95EAF70E94A7
:10338000030AC83048F481E09D2F977001C0880F70
:103390009A95EAF70E94FC09802F0E94F309C83031
:1033A00070F6D77081E001C0880FDA95EAF70E94C5
:1033B000030AC5CF80E28C0F883008F6C77081E021
:1033C00001C0880FCA95EAF7F2CF0F93DB0188514D
:1033D0009C4787309105A0F5FC01E55BF94D0C9405
:1033E000642406E221EE41EE6AE17CE7CD010E9411
:1033F000811980E00F91089507E225EE45EE6BE11B
:103400007CE7F4CF06E221EE40EE68E17CE7EECF08
:1034100007E225EE44EE69E17CE7E8CF06E221EE23
:1034200042EE6CE17CE7E2CF07E225EE46EE6DE18D
:103430007CE7DCCF08E221E045EE6EE17CE7D6CF09
:1034400012968C91882319F010920703D3CF81E054
:10345000D1CF1092B9008CE08093B8000895B0E00D
:10346000A0E0E5E3FAE10C947124B82EEB010E9490
:103470008E1C6C01EE24E394F12CC431D10560F074
:1034800025E0E22EF12CCF3FDC0731F0CE0164E1E4
:1034900070E00E9450247B0184EAA82E94E8992EC3
:1034A0001092BC00A092BC000E948E1C8C018091E6
:1034B000BC0087FF0DC08091B900887F8830F9F08B
:1034C0008091B900887F8031D1F00FEF1FEF08C0E5
:1034D000C8010E94A61CE816F90648F70EEF1FEF78
:1034E000CF3FDC07E9F2C6010E94A61CC817D90726
:1034F000B8F6C801CDB7DEB7EBE00C948D24B092DE
:10350000BB009092BC000E948E1C8C018091BC007C
:1035100087FF0AC08091B900887F883111F080341C
:10352000A1F610E000E0E5CFC8010E94A61CE81655
:10353000F90660F7D3CF0F931F93CF93DF93EB017F
:103540008093BB0084E88093BC000E948E1C8C0199
:103550008091BC0087FF11C02091B900287F81E0D5
:1035600090E0283211F490E080E0919581959109E6
:10357000DF91CF911F910F910895CF3FDC0741F369
:10358000C8010E94A61CC817D90710F78EEF9FEF3D
:10359000EFCF0F931F93CF93DF93EC0184E88093D9
:1035A000BC000E948E1C8C018091BC0087FF08C06B
:1035B0008091BB0090E0DF91CF911F910F91089512
:1035C000CF3FDC0789F3C8010E94A61CC817D907A2
:1035D00058F78EEF9FEFEFCF84E98093BC000895FA
:1035E0009093530280935202089590930D03809319
:1035F0000C030895E0910C03F0910D03309729F02E
:103600000190F081E02D0995089580E00895EF92F2
:10361000FF920F931F93CF93DF938C01E0910C03E4
:10362000F0910D03309791F10280F381E02D09951F
:103630008091FC0282FF2AC080FF04C089E097E0ED
:103640000E947D04D0E0C0E083E0E82E87E0F82E01
:103650008091FC0280FF0EC0F801EC0FFD1F8081FD
:103660001F928F93FF92EF920E9416050F900F907A
:103670000F900F902196C830D10551F78091FC0230
:1036800080FF04C081E097E00E947D04CDB7DEB7E3
:10369000E6E00C949224A3E0B0E0E1E5FBE10C94B9
:1036A0007A2420910A0330910B0328173907A1F0DF
:1036B00090930B0380930A03E0910C03F0910D03A8
:1036C000309751F023E029839B838A830680F7811A
:1036D000E02DCE01019609952396E2E00C94962404
:1036E000A3E0B0E0E6E7FBE10C947A242091080324
:1036F0003091090328173907A1F0909309038093AB
:103700000803E0910C03F0910D03309751F024E091
:1037100029839B838A830680F781E02DCE01019661
:1037200009952396E2E00C9496249C012E5F3F4F6E
:10373000AC01485F5F4F80E02417350709F4089516
:10374000F90191919F019923B9F38F5FF5CF66231A
:1037500049F0FC01329608962191261729F0E817C6
:10376000F907D1F780E0089581E008959C01FC01FC
:1037700032969FEF80E04191461751F09F3F19F438
:10378000411101C0982F8F5F8630A9F79F3F09F440
:103790000895290F311D97FD3A95F9016283089527
:1037A000FC01329608962191261303C0DF01119780
:1037B0001C92E817F907B9F708950E94B61B0895FF
:1037C0000E94D01B0895029626E0FC0111922A95D2
:1037D000E9F7089508950E94EA1B0895811106C033
:1037E00081E080930E030E94EB1B089582E0F9CFE5
:1037F00083E080930E030E94EB1B08950E94EE1B52
:10380000089581E080930E030E94EB1B08950E94AF
:10381000011C0895089508950E940B1C08950895B1
:103820000E940A1C0895CF930E94FB050E940E0679
:103830000E940F1CC0E08C2F0E947106811105C0F0
:10384000CF5FCE30C1F7CF91089581E0FCCF85B72F
:10385000806885BF85B7806885BF08951F921FB6B1
:103860001F9211248F939F93AF93BF9380910F0367
:10387000811113C080911F0390912003A091210317
:10388000B09122034196A11DB11D80931F03909317
:103890002003A0932103B0932203BF91AF919F9186
:1038A0008F911F901FBE1F90189580912703843021
:1038B00031F10E94310810920F0388E190E020E47A
:1038C0000FB6F894A895809360000FBE2093600017
:1038D00083B7817F846083BF83B7816083BF78941F
:1038E000889583B78E7F83BF0FB6F894A895809193
:1038F0006000886180936000109260000FBE0895A0
:103900000E94540C0E943608089582E084BD93E022
:1039100095BD9AEF97BD80936E0008952FB7F894E8
:1039200080911F0390912003A0912103B091220365
:103930002FBF08952FB7F89460911F037091200353
:1039400080912103909122032FBF08959C014FB7CE
:10395000F89480911F0390912003A0912103B091CE
:1039600022034FBF821B930B089578941F921FB6BA
:103970001F9211248F939F93AF93BF9380911F0346
:1039800090912003A0912103B09122030196A11DE3
:10399000B11D80931F0390932003A0932103B09344
:1039A0002203BF91AF919F918F911F901FBE1F90D7
:1039B000189581E08093E00080E28093D800109217
:1039C000C9008FE19EE40197F1F700C0000087E095
:1039D00090EBDC018093340390933503A09336037E
:1039E000B093370388E19CE00FB6F894A8958093D4
:1039F00060000FBE90936000FFCF88E19CE00FB69F
:103A0000F894A895809360000FBE90936000FFCF5C
:103A100080911B03089508959B01BA01909127039B
:103A20009430E9F48F708093E9009FEF8091E80073
:103A3000915085FD06C085ED8A95F1F70000911142
:103A4000F5CF8091E80085FF0AC050E040E0C90151
:103A50000E94BE1F8091E8008E778093E800089551
:103A600043E050E0BC0182E00E940C1D0895CF931A
:103A7000DF93EC0148E050E0BC0181E00E940C1DA6
:103A800088E0FE01A3E1B3E001900D928A95E1F791
:103A9000DF91CF9108958FE297E00E947D0480919D
:103AA0002603811109C00E944E210E94AB21809102
:103AB000E20084608093E20008958BE297E00E9428
:103AC0007D0410922603089587E297E00E947D040A
:103AD0000E94011C089583E297E00E947D0460919A
:103AE000230381E0611101C080E00E94F81B08956A
:103AF0008FE197E00E947D049091270381E094304C
:103B000009F080E0609123030E94FE1B089520913C
:103B100011032F5F822F62E30E944424992319F03E
:103B200020931103089510921103809112038823AA
:103B3000F1F0809127038430C1F49091E9009F70E7
:103B40002091EC00822F817020FD80E8892B93E08A
:103B50009093E9009091EB0090FF04C09091EE00EB
:103B600097FD08C08F708093E900109212030895AA
:103B70001092F1009091E80095FDFACF9091E80045
:103B800090FFF0CF9091E8009E779093E800EACF05
:103B900042E061EC81E00E94CA2042E261EC82E0F6
:103BA0000E94CA2042E261EC83E00E94CA20909108
:103BB000270381E0943009F080E0609123030E94A4
:103BC000EE1B089580912903833009F461C030F41D
:103BD0008130D1F1823009F49EC008958A3009F411
:103BE0008AC08B3009F46FC0893009F050C08091D1
:103BF0002803813209F04BC080912C0390912D0352
:103C0000029708F044C08091E800877F8093E80025
:103C10008091E80082FF37C09091F3008091F2001C
:103C2000029731F48091F100813011F0863021F457
:103C30008091F10080931B038091E8008B77809343
:103C4000E8000E94FE2023C080912803813AF9F405
:103C50008091E800877F8093E80080912C03909109
:103C60002D03892B61F468E083E193E070E00E940A
:103C70000D208091E8008B778093E800089560E044
:103C800090E080E0F3CF809127038111C1CF0895A8
:103C900080912803813AD9F780912C0390912D03CC
:103CA000892BA9F78091E800877F8093E8008091B5
:103CB000E80080FFFCCF809112018093F100809199
:103CC000E8008E77BCCF80912803813201F7809184
:103CD0002C0390912D03892BD1F68091E800877FEA
:103CE0008093E8000E94FE2080912A0380931201B5
:103CF0000E94540C089580912803813241F68091EE
:103D0000E800877F8093E8000E94FE2080912B03CB
:103D100080931C03089580912803813A09F0B7CF5E
:103D20008091E800877F8093E8008091E80080FF21
:103D3000FCCF80911C03C1CF9FB7F894109212035F
:103D40009FBF90912703943009F048C02091E9006B
:103D50002F703091EC00932F917030FD90E8922BF2
:103D600023E02093E9002091EB0020FF34C0209154
:103D7000EE0027FF30C020911003222321F0209174
:103D8000E80025FF28C01092100326E03091E800DB
:103D900035FF14C08093F1008091E80085FD27C0B5
:103DA0008091E80080FFFCCF8091E8008E778093BF
:103DB000E8009F709093E90080E008953091270318
:103DC000343049F43091EB0035FD05C0215041F409
:103DD00081E0809310039F709093E9008FEF089526
:103DE000EFE9FFE03197F1F700C00000CFCF8FB7C8
:103DF000F89421E0209312038FBFDBCF84B7877F35
:103E000084BF0FB6F894A895809160008861809374
:103E10006000109260000FBE80E890E00FB6F8944A
:103E200080936100909361000FBE0E94071C08956B
:103E30000E944E210E94AB21E2EEF0E0808184607E
:103E4000808378940E94292408958AE091E00E945A
:103E5000F51A089580912703853051F48BE197E09E
:103E60000E947D0480912703853019F00E94801CF8
:103E700008950E94551C80912503882399F30E9480
:103E8000131C882379F30E94A81F0E94540CEACFC8
:103E900008959A0140912E0350912F030E94511FC3
:103EA0000895492F55274330510521F168F44130D9
:103EB000510509F443C04230510509F444C090E073
:103EC00080E050E040E026C04132510551F14232DD
:103ED0005105A9F76330710590F7FB01EE0FFF1F45
:103EE000EA5BFD4F408151816D5B7D4FFB0180811D
:103EF00090E010C099278130910581F0009729F05A
:103F00000297E9F6E3E3F7E002C0E9E6F7E084911F
:103F100090E0AF01F901518340830895E1E4F7E0B7
:103F2000F6CF6330710558F6660F771FFB01E45B2F
:103F3000FD4F4081518189E090E0ECCF82E190E03B
:103F400048EC57E0E7CF8BE590E04DE657E0E2CF55
:103F500080E189BD82E189BD09B400FEFDCF809179
:103F6000D8008F7D8093D8008091E000826080939C
:103F7000E0008091E00081FDFCCF0895AF92BF92F8
:103F8000CF92DF92FF920F931F93CF93DF936C0139
:103F9000EB018A010E941D21F82E811123C0011519
:103FA000110539F0F80180819181C81BD90BC80E29
:103FB000D91EB12CA12C2097A9F08091E80085FD95
:103FC00022C08091E8008E778093E80001151105EA
:103FD000A1F0F80180819181A80EB91EB182A08262
:103FE00085E0F82E8F2DDF91CF911F910F91FF90DB
:103FF000DF90CF90BF90AF9008950E941D2188233D
:10400000D1F2F82EEFCFF60181916F018093F1008C
:104010002197FFEFAF1ABF0ACECFFC0180912E038C
:1040200090912F0386179707A0F06115710529F469
:104030009091E8009E779093E80090E061157105FB
:1040400051F4911108C08091E80082FF34C080E0F3
:104050000895BC01F2CF809127038823C1F18530F8
:10406000C1F18091E80083FD30C08091E80082FDBD
:10407000EACF8091E80080FFE1CF8091F3002091AA
:10408000F200382F6115710519F02830310558F00C
:1040900091E02830310509F090E02091E8002E777A
:1040A0002093E800CBCF81918093F100615071099A
:1040B0002F5F3F4FE7CF80912703882341F0853062
:1040C00041F08091E80083FFBECF81E0089582E057
:1040D000089583E00895FC0180912E0390912F03B1
:1040E00086179707A0F06115710529F48091E80003
:1040F0008E778093E80090E06115710551F491117D
:1041000008C08091E80082FF35C080E00895BC01BE
:10411000F2CF809127038823C9F18530C9F18091BE
:10412000E80083FD31C08091E80082FDEACF8091F4
:10413000E80080FFE1CF8091F3002091F200382F5A
:104140006115710519F02830310558F091E02830DB
:10415000310509F090E08091E8008E778093E800C7
:10416000CBCF84918093F1003196615071092F5F1C
:104170003F4FE6CF80912703882341F0853041F0FF
:104180008091E80083FFBDCF81E0089582E008952B
:1041900083E00895982F973028F08F708093E9007E
:1041A00081E008959093E900242F762F50E098172E
:1041B00031F07091EC002091ED005091F00021FD64
:1041C00002C09F5FE8CF3091EB003E7F3093EB0061
:1041D0003091ED003D7F3093ED003091EB00316088
:1041E0003093EB007093EC002093ED005093F000BF
:1041F0002091EE0027FDE5CF80E00895809128030F
:1042000087FF13C08091E80082FF06C08091E8001C
:104210008B778093E80004C0809127038111F2CF4F
:104220000895809127038823D9F38091E80080FFC7
:10423000F8CF8091E8008E77ECCF2091E4003091A8
:10424000E50095E6A9012091EC00822F817020FF06
:1042500006C08091E80080FF06C080E008952091AC
:10426000E80022FD1AC080912703882389F0853059
:1042700089F08091EB0085FD0FC02091E400309122
:10428000E50042175307F9F29150E1F684E00895F2
:1042900082E0089583E0089581E008950E94BD21A1
:1042A0000E94C521E0EEF0E0808181608083E8ED2E
:1042B000F0E080818F77808319BCA7EDB0E08C910E
:1042C0008E7F8C9380818F7E808310922603089549
:1042D0000F931F93CF93DF930E94BD210E94C521AE
:1042E000C8EDD0E088818F77888388818068888353
:1042F00088818F7D888319BC109227031092230335
:10430000109225031092240300EE10E0F801808142
:104310008B7F808388818160888342E060E080E0D9
:104320000E94CA20E1EEF0E080818E7F8083E2EE81
:10433000F0E0808181608083808188608083F801E3
:1043400080818E7F8083888180618883DF91CF9197
:104350001F910F910895E8EDF0E080818F7E8083BA
:10436000E7EDF0E080818160808384E082BF81E0BE
:10437000809326030E9468210895E8EDF0E0808193
:104380008E7F80831092E20008951092DA001092DE
:10439000E10008951F920F920FB60F9211242F93F0
:1043A0003F934F935F936F937F938F939F93AF93BD
:1043B000BF93EF93FF938091E10082FF0BC0809148
:1043C000E20082FF07C08091E1008B7F8093E100D3
:1043D0000E94871D8091DA0080FF19C08091D8006B
:1043E00080FF15C08091DA008E7F8093DA00809183
:1043F000D90080FF96C080E189BD82E189BD09B402
:1044000000FEFDCF81E0809327030E944B1D809129
:10441000E10080FF19C08091E20080FF15C080910B
:10442000E2008E7F8093E2008091E20080618093C1
:10443000E2008091D80080628093D80019BC85E0AA
:10444000809327030E946B1D8091E10084FF2BC0A5
:104450008091E20084FF27C080E189BD82E189BDAF
:1044600089B5982F917080FFFBCF8091D8008F7D08
:104470008093D8008091E1008F7E8093E10080914D
:10448000E2008F7E8093E2008091E2008160809361
:10449000E20080912303882309F449C084E08093DB
:1044A00027030E94781D8091E10083FF29C080913D
:1044B000E20083FF25C08091E100877F8093E100C7
:1044C00082E080932703109223038091E1008E7F86
:1044D0008093E1008091E2008E7F8093E2008091E2
:1044E000E20080618093E20042E060E080E00E94B0
:1044F000CA208091F00088608093F0000E94641DC3
:10450000FF91EF91BF91AF919F918F917F916F91AB
:104510005F914F913F912F910F900FBE0F901F9081
:10452000189519BC109227030E945D1D70CF8091D1
:10453000E30087FD93E090932703B3CF1F920F9280
:104540000FB60F9211242F933F934F935F936F9366
:104550007F938F939F93AF93BF93CF93DF93EF930B
:10456000FF93D091E900DF708091EC00C82FC170FB
:1045700080FDC0E81092E9008091F000877F809371
:10458000F00078940E94E2221092E9008091F000FD
:1045900088608093F000CD2BCF70C093E900FF912D
:1045A000EF91DF91CF91BF91AF919F918F917F91CB
:1045B0006F915F914F913F912F910F900FBE0F9090
:1045C0001F901895AAE2B0E0E8EEF2E20C9479248C
:1045D00088E293E02091F100FC012193CF01F3E008
:1045E00080339F07B9F70E94E21D8091E80083FFA6
:1045F0001EC180912803909129039A3008F017C1B9
:10460000E92FF0E0EE5AF94D0C946424803899F0CB
:10461000823809F00CC180912C038F70873008F02C
:1046200006C18093E9008091EB0085FB882780F923
:104630001092E90006C08091240390912503911106
:1046400082609091E800977F9093E8008093F1005A
:104650001092F1008091E8008E77E5C0882309F47C
:10466000D3C0823009F0E3C080912A038111D6C003
:1046700080912C038F702FEF280F263008F0D7C0C1
:104680008093E9002091EB0020FFC8C0933031F403
:104690008091EB0080628093EB00C0C09091EB00B2
:1046A00090619093EB0021E030E001C0220F8A95E9
:1046B000EAF72093EA001092EA008091EB0088600C
:1046C000EACF8111B4C010912A031F778091E300D3
:1046D0008078812B8093E3008091E800877F80932E
:1046E000E8000E94FE208091E80080FFFCCF8091CE
:1046F000E30080688093E30082E0111183E08093FF
:10470000270395C08058823008F091C080912A0319
:1047100090912B038C3D23E09207A1F583E08A83DF
:104720008AE289834FB7F894DE01139620E03EE0D9
:1047300051E2E32FF0E050935700E49120FF03C0D3
:10474000E295EF703F5FEF708E2F90E0EA30C0F09F
:10475000C7968D939D932F5F243159F74FBF80915A
:10476000E800877F8093E8006AE270E0CE0101965E
:104770000E940D208091E8008B778093E80057C05D
:10478000C096E7CF60912C0370912D03AE014F5F6F
:104790005F4F0E94491FBC01892B09F448C09091CA
:1047A000E800977F9093E80089819A810E946B20AE
:1047B000E1CF8038E1F58091E800877F8093E800C1
:1047C000809123038093F10045CF811130C09091F7
:1047D0002A03923060F58091E800877F8093E8009B
:1047E000909323030E94FE2080912303882311F0DD
:1047F00084E005C08091E30087FDFACF81E08093DB
:1048000027030E94C81D13C080912A03813079F4C8
:1048100081E0933009F080E0809325031092E90055
:104820008091E800877F8093E8000E94FE208091BD
:10483000E80083FF0AC08091E800877F8093E8004A
:104840008091EB0080628093EB00AA96E3E00C94E9
:104850009524CF93809127038823A1F0C091E9008C
:10486000CF709091EC00892F817090FD80E8C82B6B
:104870001092E9008091E80083FD0E94E222CF704F
:10488000C093E900CF910895991B79E004C0991F66
:10489000961708F0961B881F7A95C9F7809508959A
:1048A000AA1BBB1B51E107C0AA1FBB1FA617B70756
:1048B00010F0A61BB70B881F991F5A95A9F7809572
:1048C0009095BC01CD010895EE0FFF1F0590F49166
:1048D000E02D09942F923F924F925F926F927F92B8
:1048E0008F929F92AF92BF92CF92DF92EF92FF9200
:1048F0000F931F93CF93DF93CDB7DEB7CA1BDB0BAC
:104900000FB6F894DEBF0FBECDBF09942A88398850
:1049100048885F846E847D848C849B84AA84B98457
:10492000C884DF80EE80FD800C811B81AA81B98163
:10493000CE0FD11D0FB6F894DEBF0FBECDBFED0177
:1049400008950F931F93CF93DF938230910510F456
:1049500082E090E0E0913203F091330330E020E018
:10496000B0E0A0E0309799F42115310509F447C073
:10497000281B390B24303105C0F58A819B816115D4
:10498000710571F1FB0193838283FE0111C04081A7
:1049900051810281138148175907F8F048175907C8
:1049A00099F4109761F012960C93129713961C933A
:1049B0003296CF01DF91CF911F910F91089500930F
:1049C000320310933303F4CF2115310519F0421748
:1049D000530718F49A01BD01EF01DF01F801C2CFBE
:1049E0009093330380933203D0CFFE01E20FF31F85
:1049F000819391932250310939832883DACF209112
:104A0000300330913103232B41F420910201309186
:104A10000301309331032093300320910001309142
:104A200001012115310541F42DB73EB74091040134
:104A300050910501241B350B4091300350913103F7
:104A40004217530708F0B5CF241B350B2817390739
:104A500008F4AFCFBC016E5F7F4F2617370708F40D
:104A6000A8CF640F751F7093310360933003FA0170
:104A7000819391939ECFCF93DF930097E9F0FC0150
:104A8000329713821282C0913203D0913303DE0138
:104A900030E020E02097A1F420813181820F931F24
:104AA00020913003309131032817390709F067C08E
:104AB000F0933103E0933003DF91CF910895DA0151
:104AC000AE17BF0708F040C012964D915C91139746
:104AD0009D014115510599F7D9011396FC93EE9369
:104AE00012974D915D91A40FB51FEA17FB0779F45A
:104AF000808191810296840F951FD90111969C9314
:104B00008E938281938113969C938E931297B0E03B
:104B1000A0E08A819B810097B9F5FE018191919176
:104B2000E80FF91F80913003909131038E179F0792
:104B300019F6109761F51092330310923203D09357
:104B40003103C0933003B8CFB383A2834081518136
:104B5000840F951FA817B90771F44E5F5F4F8D91B1
:104B60009C911197480F591F5183408312968D9144
:104B70009C91938382832115310509F0ADCFF09389
:104B80003303E093320398CFDE01EC01C2CF1396DA
:104B90001C921E921297D3CFFB01DC0104C08D91B1
:104BA0000190801921F441505040C8F7881B990B9F
:104BB0000895F999FECF92BD81BDF89A992780B5E5
:104BC0000895A8E1B0E042E050E00C940D26262FB5
:104BD000F999FECF92BD81BDF89A019700B40216F3
:104BE00039F01FBA20BD0FB6F894FA9AF99A0FBEA1
:104BF00008950396272F0E94E8250E94E725252F78
:104C00000E94E825242F0C94E8250196272F0E9466
:104C1000E8250C94E725DC01CB01FC01F999FECFD6
:104C200006C0F2BDE1BDF89A319600B40D92415034
:104C30005040B8F70895F894FFCF490A490A990AF5
:104C4000990A050B780A780A780A210B920BA10BB6
:104C5000A10BFF1673170717D116D5160B17D91608
:104C60000F171B17E5166C17E9161F17ED162317FC
:104C70004B17F11627175217F7162D173517DD1694
:104C80001317E1161717FB16311741175B176A1731
:104C9000CB1603177A17021A081AF119FC190E1A03
:104CA000141A1A1A06232E2317242E2317246123DD
:084CB00082231724D923E52318
:104CB8000000380320002000DA02081D371D0B1DF4
:104CC800301D01E200E900EA00B500B600B700CDEA
:104CD800008301CC008A019201940121022302245D
:104CE800022502260227022A02B300B4006F0070D0
:104CF800009F01CB019F02A002818283E200E900AC
:104D0800EA00B500B600B700CD008301CC008A01E7
:104D1800920194012102230224022502260227027D
:104D28002A02B300B4006F0070009F01CB019F02FC
:104D3800A0028182830A092D2056657273696F6EFD
:104D4800202D0A5649443A203078464545442822C1
:104D58006720486561767920496E64757374726955
:104D680065732229205049443A203078313330374E
:104D78002822476572676F2229205645523A20300B
:104D880078303030310A4255494C443A2020284D79
:104D980061722032322032303233290A4F5054495E
:104DA8004F4E533A204C5546412045585452414B9A
:104DB800455920434F4E534F4C4520434F4D4D418D
:104DC8004E4420343039360A4743433A20382E358A
:104DD8002E30204156522D4C4942433A20322E3132
:104DE8002E30204156525F415243483A2061767234
:104DF800350A004032222E08FC07DA077F07980799
:024E0800B107F0
:00000001FF
