:100000000C94AD050C94E5050C94E5050C94E50500
:100010000C94E5050C94E5050C94E5050C94E505B8
:100020000C94E5050C94E5050C94BA280C948E29E3
:100030000C94F8220C94E5050C94E5050C94E50568
:100040000C94E5050C94E5050C94E5050C94E50588
:100050000C94E5050C947E230C94E5050C94E505C1
:100060000C94E5050C94E5050C94E5050C94E50568
:100070000C94E5050C94E5050C94E5050C94E50558
:100080000C94E5050C94E5050C94E5050C94E50548
:100090000C94E5050C94E5050C94E5050C94E50538
:1000A0000C94E5050C94E5050C94E5050A00253053
:1000B000313662003A200025303258000A722F6330
:1000C00020303132333435363738394142434445B4
:1000D000460A004932433A2025640A00723A2564F0
:1000E00020633A2564200A006C6566742073696495
:1000F000652061747461636865640A006C65667488
:100100002073696465206E6F7420726573706F6E02
:1001100064696E670A00747279696E6720746F2073
:100120007265736574206D637032333031380A0044
:100130007374617274696E6720696E69740000007F
:10014000F200F1000F5517000A000500E30015004A
:10015000090019002A0008000700060001511A00D2
:1001600016001B00E200140004001D0000002B001C
:100170002900E100000000004B004E0007551C0064
:100180000B001100280018000D0010002C000C00BE
:100190000E003600025112000F003700E00013007D
:1001A00033003800000031023400E5000000000098
:1001B000F30001000100310235003502010030007A
:1001C000270230024C002F0026022F0201001F02DE
:1001D0002102230201001E0220022202000035003B
:1001E0000100010000000000010001000100010009
:1001F000500024020100010051002E000100010006
:1002000052003600010001004F00370001000100DC
:10021000220238000000310034002D0000000000F0
:100220003F004500010022003E0044000100210083
:100230003D004300010020003C00420001001F007F
:100240003B00410001001E003A0040000000010098
:100250000100010000000000010001000100230076
:100260000100AC0001002400A800AA000100250044
:100270000100A90001002600AE00AB00010027002C
:100280000100010000002D000100010000004445B4
:100290004255473A2064697361626C65642E0A00B6
:1002A00044454255473A20656E61626C65642E0A8A
:1002B000000A0025303258006C65645F7461736B0E
:1002C0003A20004F6E6573686F743A2061637469F9
:1002D00076653A2025640A00290A002575002F005A
:1002E0002575005D2800256400200025640020009D
:1002F00025640020002564007C0025303258006D04
:100300006F7573656B6579205B62746E7C7820799C
:10031000207620685D287265702F61636C293A2011
:100320005B00313A0964656C6179282A31306D735C
:10033000293A2025750A323A09696E746572766128
:100340006C286D73293A2025750A333A096D617856
:100350005F73706565643A2025750A343A097469DB
:100360006D655F746F5F6D61783A2025750A353A67
:1003700009776865656C5F6D61785F73706565644A
:100380003A2025750A363A09776865656C5F7469A5
:100390006D655F746F5F6D61783A2025750A007036
:1003A0003A097072696E742076616C7565730A64BF
:1003B0003A097365742064656661756C74730A75B7
:1003C000703A092B310A646E3A092D310A6C743A7D
:1003D000092B31300A72743A092D31300A455343E2
:1003E0002F713A09717569740A0A73706565642022
:1003F0003D2064656C7461202A206D61785F7370A4
:10040000656564202A2028726570656174202F203C
:1004100074696D655F746F5F6D6178290A776865CF
:1004200072652064656C74613A20637572736F72D3
:100430003D25642C20776865656C3D25640A53650D
:100440006520687474703A2F2F656E2E77696B691A
:1004500070656469612E6F72672F77696B692F4DC4
:100460006F7573655F6B6579730A004D3E20004DB3
:1004700025753A25733E20003F0A003D2025750A68
:10048000003F0A0064656661756C74730A00257527
:100490000A003F0A000A092D2056616C7565732019
:1004A0002D0A00710A000A092D204D6F7573656BC6
:1004B0006579202D0A003F00433E20004C25640A48
:1004C000000A092D20537461747573202D0A686F1A
:1004D00073745F6B6579626F6172645F6C6564737E
:1004E00028293A20253032580A6B6579626F61728B
:1004F000645F70726F746F636F6C3A20253032588E
:100500000A6B6579626F6172645F69646C653A2039
:10051000253032580A74696D65725F7265616433A3
:100520003228293A202530386C580A000A092D2033
:1005300056657273696F6E202D0A5649443A203011
:100540007846454544286720486561767920496E9C
:10055000647573747269657329205049443A203078
:10056000783133303728476572676F2920564552F6
:100570003A203078303030310A4255494C443A20E4
:1005800020284175672032302032303232290A4F1C
:100590005054494F4E533A204C554641204D4F55EB
:1005A00053454B45592045585452414B45592043DA
:1005B0004F4E534F4C4520434F4D4D414E442034F8
:1005C0003039360A4743433A20382E342E30204102
:1005D00056522D4C4942433A20322E302E30204183
:1005E00056525F415243483A20617672350A000AFA
:1005F000092D20436F6E736F6C65202D0A455343A0
:100600002F713A09717569740A6D3A096D6F7573C6
:10061000656B65790A000A092D204D6167696320C1
:100620002D0A443A094465627567204D657373610C
:10063000676520546F67676C650A583A094D6174A5
:10064000726978204465627567204D6F6465205437
:100650006F67676C65202D2053686F77206B657915
:100660007072657373657320696E206D6174726951
:100670007820677269640A4B3A094B6579626F6149
:10068000726420446562756720546F67676C6520EB
:100690002D2053686F77206B6579707265737320B6
:1006A0007265706F72740A4D3A094465627567200D
:1006B0004D6F75736520546F67676C650A563A090C
:1006C00056657273696F6E0A533A09537461747593
:1006D000730A433A09416374697661746520436F14
:1006E0006E736F6C65204D6F64650A46312D46311F
:1006F000303A0953776974636820746F204C6179CC
:10070000657220302D392028463130203D204C3074
:10071000290A302D393A0953776974636820746F58
:10072000204C6179657220302D390A475241564577
:100730003A0953776974636820746F204C61796556
:100740007220302028616C7465726E617465290AAC
:10075000423A094A756D7020746F20426F6F746C55
:100760006F616465720A4553433A094A756D70209A
:10077000746F20426F6F746C6F61646572202861C2
:100780006C7465726E617465290A453A0950726924
:100790006E7420454550524F4D2053657474696EF8
:1007A00067730A4253504143453A09436C6561728D
:1007B00020454550524F4D0A006B65796D61705F61
:1007C000636F6E6669672E7261773A202530325802
:1007D0000A2E737761705F636F6E74726F6C5F6304
:1007E0006170736C6F636B3A2025750A2E636170BC
:1007F000736C6F636B5F746F5F636F6E74726F6C3B
:100800003A2025750A2E737761705F6C63746C5F94
:100810006C6775693A2025750A2E737761705F726F
:1008200063746C5F726775693A2025750A2E737759
:1008300061705F6C616C745F6C6775693A202575D7
:100840000A2E737761705F72616C745F726775698D
:100850003A2025750A2E6E6F5F6775693A202575F7
:100860000A2E737761705F67726176655F65736387
:100870003A2025750A2E737761705F6261636B732E
:100880006C6173685F6261636B73706163653A206A
:1008900025750A2E6E6B726F3A2025750A00646505
:1008A0006275675F636F6E6669672E7261773A2063
:1008B000253032580A2E656E61626C653A202575C6
:1008C0000A2E6D61747269783A2025750A2E6B655F
:1008D00079626F6172643A2025750A2E6D6F7573A7
:1008E000653A2025750A006565636F6E6669673A2B
:1008F0000A64656661756C745F6C617965723A2033
:1009000025750A003F000A6D6F7573653A206F66A2
:10091000660A000A6D6F7573653A206F6E0A000AE9
:100920006B6579626F6172643A206F66660A000ACD
:100930006B6579626F6172643A206F6E0A000A6DAE
:1009400061747269783A206F66660A000A6D617494
:100950007269783A206F6E0A000A64656275673AB8
:10096000206F66660A000A64656275673A206F6EDA
:100970000A000A0A4A756D70696E6720746F2062FA
:100980006F6F746C6F616465722E2E2E2000433E73
:100990002000436C656172696E6720454550524F77
:1009A0004D0A000A002530325820006B6579626FCD
:1009B0006172645F7265706F72743A20005B735D80
:1009C000005B575D005B535D005B525D005B445D07
:1009D000005B435D000C0347006500720067006F19
:1009E00000000026036700200048006500610076D3
:1009F000007900200049006E0064007500730074E7
:100A00000072006900650073000000040309040916
:100A1000025B00030100A0FA0904000001030101C8
:100A2000000921110100012240000705810308008F
:100A30000109040100010300000009211101000166
:100A4000227B000705820320000109040200020343
:100A50000000000921110100012222000705830383
:100A6000200001070503032000011201000200001D
:100A70000008EDFE07130100010200010631FF0925
:100A800074A1010975150026FF00952075088102E3
:100A90000976150026FF00952075089102C0050112
:100AA0000902A10185020901A1000509190129080E
:100AB00015002501950875018102050109300931EC
:100AC0001581257F95027508810609381581257FD6
:100AD000950175088106050C0A38021581257F9558
:100AE0000175088106C0C005010980A101850319AF
:100AF000012AB700150126B700950175108100C0C5
:100B0000050C0901A101850419012AA0021501267D
:100B1000A002950175108100C005010906A101051B
:100B20000719E029E715002501950875018102954F
:100B300001750881010507190029FF150026FF002E
:100B400095067508810005081901290595057501A7
:100B50009102950175039101C00011241FBECFEFD2
:100B6000DAE0DEBFCDBF04B603FE18C08091EB0211
:100B70009091EC02A091ED02B091EE028730904B83
:100B8000A740B04B59F41092EB021092EC02109275
:100B9000ED021092EE02E0E0F8E3099511E0A0E02A
:100BA000B1E0E6E1FAE502C005900D92AE3EB10774
:100BB000D9F722E0AEEEB1E001C01D92AB3EB20724
:100BC000E1F70E9487190C94F32C0C940000FF931A
:100BD000EF93E091EE01F091EF01309709F0099564
:100BE000EF91FF910895FC018591803011F0EFDFC6
:100BF000FBCF0895FF27E0E230E247FF0CC04195AC
:100C000097FF09C0EDE26095709580959095611D04
:100C1000711D811D911D27FF02C0219530E350E217
:100C2000AA27660F771F881F991FAA1FA41710F005
:100C3000A41B63955A95A9F7AA3008F0A95FA05D97
:100C4000AF93F395611571058105910541F7ED327B
:100C500011F4EF93F395F21718F43F93F395FBCF4C
:100C60008F91B5DFFA95E1F70895E991F9918591B2
:100C7000803021F0853219F0AADFF9CF089520E005
:100C8000E89455915532C1F3503311F4689455915D
:100C90005A3348F4505390F3220F022E220F220FA2
:100CA000200D250FF4CF0EF421958991999153369B
:100CB00019F3533729F1533559F1BC018827992786
:100CC000E8945C3621F48991999168945591543651
:100CD00039F446EF7EF077FF0DC08FEF9FEF0AC02B
:100CE00055374AE039F0583540E121F0523642E0BC
:100CF00009F00895FF93EF937DDFEF91FF91B7CF58
:100D0000FF93EF93FC0181918030B9F360DFFBCF5B
:100D1000FF93EF9368DFF1CFDF93CF93CDB7DEB7CB
:100D20002596A3DFCF91DF91089580B38D7880BBA6
:100D300081B3826781BB089584B114B885B1807F87
:100D400085B93E9846988AB1837F8AB98BB1837FF3
:100D50008BB985B1806F85B90895CF93C82F87303F
:100D600070F58091060190910701892B89F568EE55
:100D700073E080E40E94910890930701809306013C
:100D8000892BD1F468EE73E082E10E940B09909305
:100D9000070180930601892B79F481E090E001C07E
:100DA000880FCA95EAF768EE73E080950E940B09F8
:100DB0009093070180930601CF910C945E098A30CD
:100DC000B9F040F4883071F0893079F0209A289891
:100DD000CF9108958C3091F070F08D30B9F73E9A34
:100DE0004698F6CF219A2998F3CF229A2A98F0CFE5
:100DF000239A2B98EDCF529A5A98EACF539A5B9840
:100E0000E7CFCF93873008F04FC0809106019091D3
:100E10000701892B69F468EE73E080E40E94910871
:100E20009093070180930601892B21F00E945E09AF
:100E3000C0E037C068EE73E083E10E940B09909335
:100E4000070180930601892B89F768EE73E081E43E
:100E50000E9491089093070180930601892B31F736
:100E600088EE93E00E943A0997FF05C0909307012E
:100E700080930601DBCFC82FC09510920701109216
:100E800006010E945E09CC2361F01F92CF9383ED8F
:100E900090E09F938F930E948C060F900F900F907D
:100EA0000F908C2FCF910895CFB18FB1C695C1709F
:100EB0008695869586958E708C2BC82FC095F1CF20
:100EC000089508950C9461070E946E0990E0909334
:100ED0000701809306010E949C060E949506EFEF91
:100EE000F1E0A1EFB1E011921D9282E0ED30F80740
:100EF000D1F78EE00E94A3180C943B0A0E946E0961
:100F000090E090930701809306010E949C060E9446
:100F10009506EFEFF1E0119282E0ED30F807D9F796
:100F200008956F927F928F929F92AF92BF92CF92CD
:100F3000DF92EF92FF920F931F93CF93DF938091F5
:100F4000060190910701892BC9F08091F0018F5F14
:100F50008093F001811112C086E191E00E94F305B7
:100F60000E946E0990E09093070180930601892BFF
:100F700009F47FC08CEF90E00E94F30501EF11E0CF
:100F8000C0E0D0E037E0E32EEC0E8C2F0E94AD06DF
:100F90008E2D0E94AD068C2F0E940107F8019081D2
:100FA000F12C891719F08083FF24F3948E2D0E9471
:100FB0000107F8019781891709F45EC0878381E0F2
:100FC0008F29D82B0E949C06CF5F0F5F1F4FC73021
:100FD000C9F62D2F4EE06FEF71E081EF91E00E9496
:100FE000BE180E943D0AD0E0C0E0AA24A394B12C10
:100FF0002CEDE22E20E0F22E3E0165010C2E02C007
:10100000CC0CDD1C0A94E2F78FEF882E81E0982E3D
:1010100010E000E0F40181914F0190E08C219D21CE
:10102000892B71F07F926F921F930F93FF92EF9233
:101030000E948C060F900F900F900F900F900F90C2
:101040000F5F1F4F0E30110529F72196C430D105CF
:1010500099F681E0DF91CF911F910F91FF90EF9072
:10106000DF90CF90BF90AF909F908F907F906F90C8
:10107000089588EE90E080CF80E0A2CFE82FF0E0E6
:10108000E150FE4F80810895CF92DF92EF92FF9260
:101090000F931F93CF93DF938CEB90E00E94F305A7
:1010A0008FEFE82E81E0F82ED0E0C0E097EBC92E5C
:1010B00090E0D92E0EEA10E0DF93CF93DF92CF922B
:1010C0000E948C0684EB90E00E94F305F701819169
:1010D0007F0190E00E94D60A9F938F931F930F93F6
:1010E0000E948C068CEA90E00E94F30521968DB751
:1010F0009EB708960FB6F8949EBF0FBE8DBFCE3038
:10110000D105D1F6DF91CF911F910F91FF90EF9014
:10111000DF90CF9008951092B9008CE08093B800D2
:1011200008959F92AF92BF92CF92DF92EF92FF927B
:101130000F931F93CF93DF93B82EEB010E94572399
:101140006C01EE24E394F12CC431D10560F025E06C
:10115000E22EF12CCF3FDC0731F0CE0164E170E0EC
:101160000E944B2B7B0184EAA82E94E8992E1092C2
:10117000BC00A092BC000E9457238C018091BC004F
:1011800087FF0DC08091B900887F883039F1809148
:10119000B900887F803111F10FEF1FEF09C00E9465
:1011A0005723801B910B8E159F0540F30EEF1FEF09
:1011B000CF3FDC07E1F2C6010E946F238C179D0729
:1011C000B0F2C801DF91CF911F910F91FF90EF9086
:1011D000DF90CF90BF90AF909F900895B092BB00EA
:1011E0009092BC000E9457238C018091BC0087FF25
:1011F0000AC08091B900887F883111F0803461F68F
:1012000010E000E0DECF0E945723801B910B8E156B
:101210009F0558F3CBCF0F931F93CF93DF93EB0131
:101220008093BB0084E88093BC000E9457238C010C
:101230008091BC0087FF11C02091B900287F81E018
:1012400090E0283211F490E080E091958195910929
:10125000DF91CF911F910F910895CF3FDC0741F3AC
:101260000E945723801B910B8C179D0708F38EEF6C
:101270009FEFEECF0F931F93CF93DF93EC0184E8A2
:101280008093BC000E9457238C018091BC0087FF93
:1012900008C08091BB0090E0DF91CF911F910F912A
:1012A0000895CF3FDC0789F30E945723801B910BE1
:1012B0008C179D0750F38EEF9FEFEECF84E980935C
:1012C000BC0008953F988AB18F708AB96E98479A8A
:1012D0008BB1806F8BB9769A0C94600780E391E0B4
:1012E0000E94F30580E290E090930701809306014D
:1012F00080910D0281110EC00E948B0881E08093C5
:101300000D022FEF83ED90E3215080409040E1F7F4
:1013100000C0000068EE73E080E40E9491089093A2
:10132000070180930601892B09F04EC068EE73E037
:1013300080E00E940B099093070180930601892B9E
:1013400009F042C068EE73E080E80E940B099093B8
:10135000070180930601892BB9F568EE73E08FEFE2
:101360000E940B099093070180930601892B61F578
:101370000E945E0968EE73E080E40E9491089093F9
:10138000070180930601892BF9F468EE73E08CE085
:101390000E940B099093070180930601892BA1F409
:1013A00068EE73E080E80E940B0990930701809338
:1013B0000601892B49F468EE73E08FEF0E940B0958
:1013C00090930701809306010E945E0980910601B7
:1013D000089581E0089581E008950C94EB09089543
:1013E0000C94EF091F93CF93DF9300D000D00F929E
:1013F000CDB7DEB749835A836B8330910F02898161
:101400009A8131111DC06623B9F02223A9F00E94F0
:10141000A710182F682F89819A810E945410698122
:101420007A81812F0F900F900F900F900F90DF9186
:10143000CF911F910C9475170E948010182FEFCF39
:101440000E94A71069817A81EDCFFC01262F40818F
:1014500051816281738184810C94F20981E0089545
:10146000CF93DF93EC0160E00E94250ABE01DF917B
:10147000CF910C94F0090C9462090C9462070895C2
:101480000E94010F0E943F0A2FEF84E39CE021504D
:1014900080409040E1F700C000000C94A2230F931D
:1014A0001F93CF93DF938C0161E00E94250AEC012A
:1014B000B8010E94ED098823C1F1B801CE010E9454
:1014C0008121882391F1B801CE010E94951C8823C7
:1014D00061F1B801CE010E94EB20882331F1F801BF
:1014E0008281882361F0CF3DFCE5DF07B1F170F424
:1014F000C115ECE5DE07B9F0C130DC45E1F0C8010B
:10150000DF91CF911F910F910C94E909CC358DE5B6
:10151000D80749F1CD35DC0719F1CB35DD4579F731
:101520000E94F814ECCF0E94400A80E0DF91CF9136
:101530001F910F91089590919D02892F8E7F90FFAA
:10154000816080939D0280FF05C080EA92E00E9446
:10155000F305EBCF8EE892E0FACF0E94A915E5CF14
:101560000E94EF14CCCF0E94FB14C9CF0E94DE2250
:101570000C94F30A0E94F60A0C94E122829590E002
:101580009C01220F331F220F331F2C7C95958795CA
:10159000959587958373282B30E0C901880F991F93
:1015A0008A7A359527952575822B0895CF93DF93F9
:1015B000D92F0E94BE0AC82F8D2F0E94BE0A9C2FD1
:1015C000DF91CF91089508950C94E30A81E0089586
:1015D0000C94E60A0895CF93C82F0E94E40A8C2F3A
:1015E000CF910C94E80A80E00C94EB0A0E94DD2174
:1015F0000C94EB0ACF930E94DD21C82F80910E023C
:101600008C1741F1C0930E0280919D0282FF1EC093
:1016100080FF1CC088EB92E00E94F30580919D0240
:1016200080FF14C01F92CF9383EB92E09F938F9320
:101630000E948C0680919D020F900F900F900F904A
:1016400080FF04C081EB92E00E94F3058C2FCF91C4
:101650000C94EB0ACF910895CF93DF93CDB7DEB70B
:101660002B970FB6F894DEBF0FBECDBF4F835887C0
:1016700069877A878B8761110E942A141E821D82D6
:1016800085E0FE013796DE01119601900D928A9554
:10169000E1F78C819D81892B89F449815A816B8185
:1016A0007C818D819E810E944B132B960FB6F894FE
:1016B000DEBF0FBECDBFDF91CF91089589819A81A2
:1016C00089238F3F51F3CE0101960E942E0A81118A
:1016D000E4CFEBCFFC01808191810C94E910CF9392
:1016E000C82F882309F490C08238C1F40E94DD21FC
:1016F00081FD8AC089E30E94E5130E944A142FEFFE
:1017000081EE94E0215080409040E1F700C000005D
:1017100089E30E94EC13CF910C944A148338A1F40E
:101720000E94DD2180FD70C083E50E94E5130E94C8
:101730004A142FEF81EE94E0215080409040E1F771
:1017400000C0000083E5E5CF8438A1F40E94DD21CC
:1017500082FD5AC087E40E94E5130E944A142FEFCD
:1017600081EE94E0215080409040E1F700C00000FD
:1017700087E4CFCF8CEF8C0F813AB8F48C2F0E9486
:101780008E20811141C06C2F80910A0190910B0134
:101790000E948122882329F08C2F0E94EC130E9442
:1017A0004A148C2F0E94E513B6CF80E28C0F88304C
:1017B00048F4C77081E001C0880FCA95EAF70E941B
:1017C0000D14A9CFEBE5EC0FE33040F4F0E0E35B60
:1017D000FE4F808190E0CF910C944322E8E5EC0F1E
:1017E000E73150F4F0E0EE0FFF1FE15EFE4F808125
:1017F0009181CF910C945922CD3E30F08C2F0E94D4
:101800000B1ACF910C94DE1ACF910895882309F416
:1018100052C0823871F40E94DD2181FF4CC089E3FF
:101820000E94E5130E944A1489E30E94EC130C9471
:101830004A14833859F40E94DD2180FF3CC083E5BF
:101840000E94E5130E944A1483E5EFCF843859F4CF
:101850000E94DD2182FF2FC087E40E94E5130E94D1
:101860004A1487E4E2CF9CEF980F913AF0F290E2AD
:10187000980F983050F4877091E001C0990F8A95C5
:10188000EAF7892F0E941314D2CF9BE5980F93306B
:1018900020F490E080E00C94432298E5980F973173
:1018A00020F490E080E00C9459228D3E20F00E94BC
:1018B000651A0C94DE1A08951F93CF93DF93182FA7
:1018C000EB010E946F0B209731F4812FDF91CF91B4
:1018D0001F910C94060C8FE99FE00197F1F700C06F
:1018E00000002197F0CF70E060E0893311F460E5EB
:1018F00070E00C945C0C882321F00E940D140C9471
:101900004A140895882321F00E9413140C944A1459
:101910000895BF92CF92DF92EF92FF920F931F93A1
:10192000CF93DF936C01D62FC72FFC011281058165
:1019300002950F700E940314E82E8823B9F0E12E5F
:101940001123A1F08C2F807F803421F080E28D0F55
:101950008830C8F08091D50282FD15C082E00E94D7
:10196000AB140E94031491E0E82EE926BC2EB29439
:101970009FE0B922FBE0FB15B8F1EB2DF0E0EB5056
:10198000F34D0C94732BE12CF1CF0C2F0F70C07F13
:1019900011F00295007F112399F0002359F080E2A5
:1019A0008D0F883010F0D11107C0802F0E940D14C8
:1019B0000E944A148D2F5FC0802F0E941D14F8CF03
:1019C0008D2F0E94060C002379F080E28D0F883065
:1019D00010F0D11104C0802F0E94131403C0802F77
:1019E0000E9423140E944A14EB2DE850FF0B3497F9
:1019F00020F40E94DD210E94EB0AEE2009F4A0C130
:101A00000E94FF1380FD9CC1F60112820E94F9130F
:101A10000E94B80FC6010E94C10E0E94F913DF9107
:101A2000CF911F910F91FF90EF90DF90CF90BF90DB
:101A30000C94D90F2C2F2F70F22EC07FC03219F0CA
:101A4000F29480EFF822DD2341F0D130E9F1112347
:101A500009F444C00023E9F1ADCF8091D50282FFA3
:101A600015C0112359F0FF2029F08F2D0E940D146D
:101A70000E944A1480E00E946F0BB6CF80E00E9463
:101A8000060CFF2009F4B0CF8F2DA6CF112381F0D3
:101A9000011106C00E942D148F290E947B0CA4CF37
:101AA0000130C1F70E942D148F290E9433149CCF5E
:101AB000011106C00E9440148F2D0E94820C94CF09
:101AC000013009F491CFF6CF112329F0023008F04C
:101AD0008BCF8F2DE2CF011187CFEECF002361F3A3
:101AE000D93349F43FEF87EE93E031508040904086
:101AF000E1F700C000008D2F0E94060C75CF8C2FDF
:101B000086958695837069F0813009F06DCF8D2FB1
:101B10009C2F9370111102C090E080E00E94592226
:101B200063CF8D2F9C2F9370111102C090E080E045
:101B30000E94432259CF8D2F112329F00E940B1AA6
:101B40000E94DE1A51CF0E94651AFACF8C2F837043
:101B500009F041C0111148CF4D2F4295469547706D
:101B6000440F440F0D2F0F7010E030E020E0042EE2
:101B700004C0000F111F221F331F0A94D2F760E028
:101B800070E0CB01D4FF0FC06FE070E080E090E028
:101B900004C0660F771F881F991F4A95D2F760957A
:101BA000709580959095C695C695C370602B712BE6
:101BB000822B932BC23049F058F4C13019F00E94A7
:101BC0006A0F12CF0E94580F0FCF0E947C0F0CCFCC
:101BD0000E94560F09CF8695112311F08C2F81702A
:101BE000882309F401CF4D2F429546954770440F45
:101BF000440F0D2F0F7010E030E020E0042E04C0E1
:101C0000000F111F221F331F0A94D2F760E070E00B
:101C1000CB01D4FF0FC06FE070E080E090E004C023
:101C2000660F771F881F991F4A95D2F760957095A8
:101C300080959095C695C695C370602B712B822BAD
:101C4000932BC23049F058F4C13019F00E942F1084
:101C5000CBCE0E941D10C8CE0E944110C5CE0E945E
:101C6000920FC2CECF70112329F08C2F0E94B80F93
:101C70008D2F13CF8D2F0E94820C8C2F0E94D90F95
:101C8000B3CED23F39F160F4D03FB9F0D13F81F00B
:101C9000112309F445C001118DCE8C2F8F711EC008
:101CA000D33FF9F0D43FA1F78091D50282FF23C042
:101CB0008C2F8F71112311F311C0112339F00111F1
:101CC00093CE8C2F8F710E94FC0F8ECE023008F0C5
:101CD0008BCEF7CF8C2F8F711111D0CF0E94B80F00
:101CE00083CE112329F08C2F8F710E94A30F7CCEFD
:101CF0000E949E0F79CE112349F0CF718C2F0E9444
:101D0000B80F63E08C2F0E9490146ECE81E00E9489
:101D1000AB14023008F468CE82E00E94AB1464CEAB
:101D2000002359F0D93309F0E6CEEFEFF7EE23E0C8
:101D3000E150F0402040E1F7DCCE8C2F8F719ECF38
:101D4000DF91CF911F910F91FF90EF90DF90CF9097
:101D5000BF9008950F931F93CF93DF93EC01688199
:101D600079818A810E94F3108C010E9453100E9495
:101D7000550FB801CE01DF91CF911F910F910C94B7
:101D8000890CCF93DF93EC018B819C81892B29F007
:101D90008881998189238F3F59F4DF91CF910895EC
:101DA000CE010E94AA0ECE01DF91CF910C94300A91
:101DB000CE010E944F0A8111F3CF0E9403148823A1
:101DC00061F38A81882349F38091D50282FDE5CFB2
:101DD00082E0DF91CF910C94AB1490E080E00E9400
:101DE000432290E080E00E9459220E942A140E941F
:101DF0004A140E94871C0C94DE1A0E94F3130C9460
:101E0000ED0E0E941A140C94FD0E92959F70963060
:101E100091F058F4925F9F70923058F4803F19F01F
:101E200030F4883E30F481E008959A5FF4CF843F27
:101E3000D1F380E00895883EB0F3813FD1F7F3CF2E
:101E4000FC01808191810E94E9100C94050FCF93D1
:101E5000DF9300D000D00F92CDB7DEB70F900F9078
:101E60000F900F900F90DF91CF910895CF93DF9354
:101E700000D000D000D0CDB7DEB726960FB6F894CC
:101E8000DEBF0FBECDBFDF91CF91089508950C94B2
:101E9000460F0E94470F6093370270933802809379
:101EA000390290933A020C94ED0E08950C94490F68
:101EB0000F931F930091370210913802209139023D
:101EC00030913A02602B712B822B932B1F910F9133
:101ED0000C94490F0F931F93009137021091380211
:101EE0002091390230913A02602371238223932397
:101EF0001F910F910C94490F0F931F93009137027C
:101F0000109138022091390230913A0260277127EE
:101F1000822793271F910F910C94490F0C94460F21
:101F20000C948E0F0E94900F6093330270933402D2
:101F300080933502909336020C94ED0E60E070E0D1
:101F4000CB010C94920F0F931F9341E050E060E09F
:101F500070E08A019B0104C0000F111F221F331F74
:101F60008A95D2F7C901B8011F910F910C94920F75
:101F70000F931F9341E050E060E070E004C0440F15
:101F8000551F661F771F8A95D2F780913302909173
:101F90003402A0913502B09136028A019B01082BD0
:101FA000192B2A2B3B2BC901B8011F910F910C94BF
:101FB000920F0F931F9341E050E060E070E004C087
:101FC000440F551F661F771F8A95D2F7CB01BA01C0
:101FD0006095709580959095009133021091340230
:101FE000209135023091360260237123822393239E
:101FF0001F910F910C94920F0F931F9341E050E0AB
:1020000060E070E004C0440F551F661F771F8A957B
:10201000D2F78091330290913402A0913502B091B1
:1020200036028A019B01082719272A273B27C90165
:10203000B8011F910F910C94920F0F931F93009171
:102040003302109134022091350230913602602B18
:10205000712B822B932B1F910F910C94920F0F9346
:102060001F93009133021091340220913502309178
:10207000360260237123822393231F910F910C94C6
:10208000920F0F931F93009133021091340220910D
:1020900035023091360260277127822793271F91DE
:1020A0000F910C94920F0895990F990F890F982F03
:1020B000977041E001C0440F9A95EAF7869586959E
:1020C000869595E0899FF0011124E05FFD4F30E097
:1020D00020E070E05191DF011197CB01022E02C088
:1020E000969587950A94E2F78170819585278423D8
:1020F00085278C932F5F3F4F2530310559F7089581
:10210000990F990F890F982F9770869586958695C8
:1021100025E0829FF0011124E05FFD4F50E040E098
:1021200080E0219130E0092E02C0369527950A946F
:10213000E2F721703327042E01C0220F0A94EAF738
:10214000822B4F5F5F4F4530510559F70895BF927D
:10215000CF92DF92EF92FF920F931F93CF93DF9373
:102160008C01C0903302D0903402E0903502F090A0
:1021700036028091370290913802A0913902B091D5
:102180003A02C82AD92AEA2AFB2ACFE1D0E0BC2E9B
:10219000D701C6010C2E04C0B695A79597958795D3
:1021A0000A94D2F780FD0EC0219788F7B12C8B2DB1
:1021B000DF91CF911F910F91FF90EF90DF90CF9023
:1021C000BF900895B8018C2F0E948917019761F381
:1021D000EECFCF93DF93EC010E94A710BE01DF91F9
:1021E000CF910C9489171F93CF93DF93EB019091BC
:1021F0000F02992331F0CB01DF91CF911F910C9405
:10220000E910882379F0CB010E94A710182F682FBE
:10221000CE010E945410BE01812FDF91CF911F91FA
:102220000C948917CB010E948010182FF4CF1F93B4
:10223000CF93DF93C0913B0216E080913C028C1358
:1022400004C0DF91CF911F910895D0E01C9FF00151
:102250001D9FF00D1124E35CFD4F4081518162818F
:102260007381848195810E94360F2196C770E5CFD6
:1022700040916D0250916E0260916F0270917002F8
:1022800080917102909172020C94360FFF920F931D
:102290001F93CF93DF9380917202807FD1F480915E
:1022A0006F028823B1F080913B0210913C02609153
:1022B0006D0270916E02A0917002B0917102062FB2
:1022C0000723C0910801D091090196E0F92E181357
:1022D00006C0DF91CF911F910F91FF90089590E07C
:1022E000109711F00F3F19F401968770F0CFF89E08
:1022F0009001F99E300D1124F901E35CFD4F4181FD
:102300004713F2CF40814613EFCF42814111ECCF0A
:10231000438154814A1B5B0B4C175D0728F7809162
:1023200072028F70806180937202F901EE5BFD4F43
:1023300080818F70806180838DE692E00E94C10E63
:10234000DF91CF911F910F91FF900C941711AF92D5
:10235000BF92CF92DF92EF92FF920F931F93CF9392
:10236000DF93CDB7DEB761970FB6F894DEBF0FBE2F
:10237000CDBF8C0185E0F801DE011D9601900D9224
:102380008A95E1F7F801E2808DE6C82E82E0D82E2A
:1023900060917002709171026115710509F45FC15D
:1023A00090916D0220916E02892F82238F3F09F454
:1023B00056C140815181A380B480F0906F02F50135
:1023C000E61BF70BBF01E0910801F0910901FF2026
:1023D00009F4F6C080917202382F307F6E177F07A4
:1023E00008F0AFC0311179C0FE2C251323C094131F
:1023F00021C0E1101FC08F708061809372020E9423
:102400003811C6010E94C10E80917202F8018583C5
:102410008F2D61960FB6F894DEBF0FBECDBFDF9152
:10242000CF911F910F91FF90EF90DF90CF90BF90D1
:10243000AF900895AB2829F0842F85238F3F09F0B2
:1024400027C180E0F82FF170DF2E80FF3CC0809123
:102450003B0220913C0236E0821315C04D875E8717
:102460008D859E850E94E910292F22952F7022309C
:10247000F0F0243018F59F70F1F0F8019581907F0D
:10248000D1F4D12C1EC090E0389FF001399FF00D9F
:102490001124E35CFD4F6181651306C06081641304
:1024A00003C062816E110FC001968770D5CF9F70F7
:1024B00011F0882331F3805E883018F3C8010E9440
:1024C000C10EFD2CA5CFEE2009F4A2CF809172029F
:1024D000816080937202F12C9BCF251306C0941368
:1024E00004C0F801EE2009F487C0C8010E94200F43
:1024F000882319F1EE2009F180917202803270F088
:1025000020916D0230916E0238872F831986BB8629
:10251000AA868C87CE0107960E94C10E86E0F8013C
:10252000ADE6B2E001900D928A95E1F70E94461166
:102530000E943811FF24F3946BCFC8010E94C10E92
:10254000F9CF311113C07A2DB98AA88A6E2D8989E5
:102550000E94270F8DE692E00E94C10E86E0F601F0
:1025600011928A95E9F70E943811B5CF25130FC053
:1025700094130DC0E1100BC0F8018583C8010E94BF
:10258000C10E86E0F60111928A95E9F741CFC801A4
:102590000E94200F882389F2EE2079F28091720246
:1025A000803208F4BBCF20916D0230916E023A83E5
:1025B00029831B82BD82AC828E83CE010196ACCF73
:1025C0006E177F0708F03EC0FE2CEE2009F4B5CF51
:1025D00025132AC0941328C08091720280FD1BC06D
:1025E000982F907FC1F0F8018583903F31F0982FAC
:1025F000907F905F8F70892B8583C8010E94C10EE8
:1026000086E0F801ADE6B2E001900D928A95E1F71F
:102610000E943811FDCE86E0F801ADE6B2E00190EF
:102620000D928A95E1F7F4CEC8010E94200F811126
:1026300075CF80917202816080937202C8010E94FE
:10264000C10EE6CE7A2DB98AA88A6E2D89890E949C
:10265000270F86E0F60111928A95E9F7D9CFEE208F
:1026600009F46BCFC8010E94200FF82E882309F4CB
:1026700064CF86E0F801ADE6B2E001900D928A9554
:10268000E1F78DE692E00E946A0B0E944611C0CFEE
:1026900081E08E25D7CE1F93CF93DF93CDB7DEB7E2
:1026A0002C970FB6F894DEBF0FBECDBF4F8358876F
:1026B00069877A878B879C87CE0107960E94A7112E
:1026C000882369F08A859B85892B39F04F8158854D
:1026D000842F85238F3F09F071C016E05FC086E02C
:1026E000FE013796DE01119601900D928A95E1F771
:1026F0008A859B85892B89F38F81988589238F3FD4
:1027000061F320913C0230E0C9010196877099275E
:1027100040913B024817190671F40E94010F109274
:102720003C0210923B0286E0EDE6F2E0DF011D92F2
:102730008A95E9F7D2CF96E0929FD001939FB00D92
:102740001124A35CBD4FFE01319601900D929A9524
:10275000E1F780933C020E941711BFCF819FC00117
:102760001124835C9D4F0E94A7118823E9F0E0911A
:102770003B021E9FF0011124E35CFD4F408151811B
:1027800062817381848195810E94360F80913B0222
:1027900090E001968770992780933B0280913B02DD
:1027A00090913C028913DACF2C960FB6F894DEBFD5
:1027B0000FBECDBFDF91CF911F91089569857A85B6
:1027C0008B859C850E94360F88CF682F80910A01E7
:1027D00090910B010C94B722682F80910A0190917F
:1027E0000B010C94B92280910A0190910B010C9479
:1027F000BB2280917B028595859585950895809172
:102800007B028770089590917B02977081E009F4B4
:1028100080E0089580918602089590918602892B28
:1028200080938602089580959091860298239093D4
:102830008602089510928602089590918502892B50
:1028400080938502089580959091850298239093B6
:102850008502089510928502089580917C02089562
:1028600008950C9430149091D50292FD08C0909177
:102870007C02981721F080937C020C943114089507
:1028800080917C02882329F010927C0280E00C94D5
:1028900031140895CF93DF93E0910A01F0910B0179
:1028A000809186028083E0910A01F0910B01808182
:1028B00090918502892B808390917C02992381F0ED
:1028C000E0910A01F0910B018081892B8083809136
:1028D0000A0190910B010E946F2281110E94401405
:1028E000C0910A01D0910B0148E050E063E772E02B
:1028F000CE010E94A42C892B69F088E0FE01A3E799
:10290000B2E001900D928A95E1F7CE01DF91CF916F
:102910000C94E921DF91CF91089508950C948D14C2
:102920009091D50292FD10C098E0899F90011124EA
:10293000622B60937B020E94B80F80917B02859589
:10294000859585950C948E140C94B80F10927B028B
:1029500080E00C948E1490917B0280958923809363
:102960007B02282F277091F4282F082E000C330BA0
:102970009217130659F09091D50292FD07C08595E4
:10298000859585950E94D90F0C94A6140895CF9330
:10299000C82F8091D50282FB992790F99C17E9F006
:1029A000C0FB82F98093D5028091D4029091D50228
:1029B0000E94251582E00E94AB1480919D0280FF49
:1029C0000CC01F92CF9383EC92E09F938F930E9451
:1029D0008C060F900F900F900F90CF9108958091DB
:1029E000D50282FB882780F991E089270C94C714CF
:1029F00081E00C94C71480E00C94C7146FEF7FEF54
:102A000090E080E00C94DD2C90E080E00E94B92CF6
:102A100021E0893E9E4F09F020E0822F089582E058
:102A200090E00C94B12C83E090E00C94B12CCF9307
:102A300084E090E00E94B12CC82F82E290E00E94D6
:102A4000B12C982F8C2FCF910895CF93C92F682F39
:102A500084E090E00E94BF2C6C2F82E290E0CF9146
:102A60000C94BF2CAB01BC018FE090E00C94D12CF6
:102A7000AB01BC0183E190E00C94D12C60E070E0EC
:102A8000CB010C94381560E070E0CB010E94321548
:102A90000C943E1569EE7EEF90E080E00E94DD2C04
:102AA00060E082E090E00E94BF2C60E083E090E074
:102AB0000E94BF2C109237021092380210923902F5
:102AC00010923A0260E084E090E00E94BF2C60E047
:102AD00082E290E00E94BF2C60E085E090E00E94DE
:102AE000BF2C60E086E090E00E94BF2C6FEF87E093
:102AF00090E00E94BF2C40E050E0BA0188E090E0F6
:102B00000E94D12C60E08DE090E00E94BF2C40E05C
:102B100050E0BA0188E190E00E94D12C60E087E1AA
:102B200090E00E94BF2C40E050E0BA018CE190E0C0
:102B30000E94D12C70E060E080E290E00E94DD2CE9
:102B400040E050E0BA0188E190E00E94D12C0C9462
:102B500043150C944A15682F8EE090E00C94BF2C1E
:102B60000E9463236093990270939A0280939B0260
:102B700090939C02609395027093960280939702C3
:102B800090939802089585B7806885BF85B780685F
:102B900085BF0895089508950C94CB1508950C945D
:102BA000CE150E94C31586E995E20E94D3210E94AA
:102BB000CA150C94CC1581E008950C94DB1508958A
:102BC00008950E94DF150C94E0150E947F180C9464
:102BD000EA0A0E944E230E9464070E94E5150C94A5
:102BE000CF159F92AF92BF92CF92DF92EF92FF925A
:102BF0000F931F93CF93DF93CDB7DEB72A970FB60E
:102C0000F894DEBF0FBECDBF0E949107C82E811180
:102C10000E94B01587E8A82E82E0B82E10E000E0F0
:102C2000902E802F0E943E08E82EF501F1905F0162
:102C3000F81609F445C080919D0281FD0E94440868
:102C40008F2D8E25D12CFF24F394982F9F2199F15D
:102C50000E94DD15882399F0DE829F82EF2081E0BB
:102C600009F480E088870E9457238160782F9A8733
:102C700089874E815F8168858A850E942C0BF801C7
:102C8000E957FD4F8081F826F08281E0C11001C034
:102C900080E02A960FB6F894DEBF0FBECDBFDF915D
:102CA000CF911F910F91FF90EF90DF90CF90BF9049
:102CB000AF909F900895D394FF0CF4E0DF12C5CF3E
:102CC0000F5F1F4F0E30110509F0AACF8FEF8983D8
:102CD0008A831B820E9457238160782F9D838C8377
:102CE00049815A816B818D810E942C0BCECF0E942D
:102CF000F1150E947B1B0C94FA0ACF93DF930E947C
:102D00008D17EC01811521E5920708F042C081156D
:102D100030E5930708F09DC0883E910530F5803E70
:102D2000910508F092C0883A910588F4853A91059A
:102D300008F084C08130910509F487C0009709F438
:102D400084C0049708F081C0D0E0C0E07EC08F3B13
:102D50009105D0F7C85AD0E0CC0FDD1FC05BDE4F25
:102D60000990D881C02DD46470C08115904250F470
:102D7000C11581E0D80708F068C0CD3ED10520F329
:102D8000D06563C0C11590E4D907F0F2DF70D06A56
:102D90005CC0811525E5920700F5811534E59307A0
:102DA00008F08BC0811543E5940708F073C0C11586
:102DB00082E5D80708F469C0CE018370992721E025
:102DC00030E002C0220F331F8A95E2F7C695C69500
:102DD00080E2C89FE001112454C0C11599E5D907CC
:102DE000A8F4C11528E5D20708F06CC0C11536E576
:102DF000D30708F0A9CF8C2F0E942418C82FD0E049
:102E0000DC2FCC27CC27DF71D0621FC0C1154AE56B
:102E1000D40708F45CC0CE0190568115904208F0AA
:102E200093CF8D2F8F710E94241890E0982F8827C0
:102E300088279F719C012C2BE901E6CFC55AD0E071
:102E4000C258DE4FC881D0E0D064CE01DF91CF916F
:102E50000895E4E096958795EA95E1F783702C2F25
:102E600026952695237040E2249F90011124382B4B
:102E70008C2F8370C1E0D0E002C0CC0FDD1F8A959B
:102E8000E2F7C22BD32BDC68E0CFDC2FCC27C16F5D
:102E9000D06ADBCF8370992721E030E002C0220F97
:102EA000331F8A95E2F7C695C69590E2C99FE00167
:102EB0001124C22BD32BDA68C8CFD82FCC27C46FEC
:102EC000D06AC3CFDC2FCC27C06FD06ABECF8C2F87
:102ED0008F700E94241834E0D695C7953A95E1F793
:102EE000CF709C2FEC01D069B0CFE72FF0E09EE0CF
:102EF000899FE00DF11D1124EE0FFF1FEE0FFF1F44
:102F0000E60FF11DEE0FFF1FE25CFE4F85919491DD
:102F100008950E9475170C947D1682389105B1F1C1
:102F2000B0F48133910509F475C048F489329105F4
:102F300009F469C08A32910509F473C00895853394
:102F4000910509F459C08933910501F10895833E33
:102F50009105A9F138F4803E9105F9F0823E910582
:102F600049F10895863E9105A9F1873E9105C9F181
:102F7000843E910519F52091D50221FF1FC0809153
:102F8000D40284FD14C087EE90E008952091D4020D
:102F90002370A1F080EE90E008952091D40220FDEE
:102FA00047C03091D50230FF09C024FF44C090E0F3
:102FB00080E004C02091D40222FDF7CF0895209133
:102FC000D40222FD3BC03091D50230FDE3CF24FF77
:102FD000F5CFEDCF2091D40223FFF0CF24FDE7CF32
:102FE000D2CF2091D40223FD2CC03091D50231FFE5
:102FF000EECF84EE90E008952091D40225FFDECF3D
:1030000089E290E008952091D40225FFD7CF85E38F
:1030100090E008952091D40226FFD0CF8AE290E07C
:1030200008952091D40226FFC9CF81E390E008954E
:1030300089E390E0089583EE90E0089582EE90E0B9
:10304000089586EE90E008959091D40292FF06C014
:10305000282F28712830F9F4877F846093FF06C0F9
:10306000282F28712831F1F4877E84612091D502C0
:1030700020FF06C0382F38713830D9F4877F81603F
:1030800021FF06C0282F28712831D1F4877E816165
:1030900094FD877E0895282F24712430F9F68B7FC4
:1030A0008860DCCF282F2471243101F78B7E886162
:1030B000DDCF382F3171313019F78E7F8860E0CF46
:1030C000282F2171213121F78E7E8861E1CF0C9468
:1030D000FE140E9491078FE39CE90197F1F700C06D
:1030E00000000E9491078DE00E943E0882FF04C00C
:1030F0000E9467180C94A22308950C9469180E94EA
:103100000415811102C00E94A9150E940F15809319
:103110009D020E9417159093D5028093D4020E94BD
:103120007D180E941315682F70E090E080E00E94E7
:10313000560F609133027091340280913502909164
:1031400036020C94900FCF93C82F24E0829FC001C9
:1031500011240E94792B8093A1029093A2029C01DA
:1031600080E08C1302C0CF910895F90194E0119290
:103170009150E9F78F5F2C5F3F4FF3CF2F923F9233
:103180005F926F927F928F929F92AF92BF92CF92F7
:10319000DF92EF92FF920F931F93CF93DF931C0167
:1031A000B62E172FA42E922E00919E02002309F412
:1031B00077C00E94572320919F023091A002AC015A
:1031C000421B530B9A019093A00280939F024F3FA2
:1031D000510509F0B8F4452B91F0722E10929E0221
:1031E0004091A1025091A202EB2DF12F90E080E0DE
:1031F000612C61E070E08A1540F060929E029110AF
:1032000057C067C02FEF30E0E8CFDA0130E020E0B0
:103210007101E80EF91EDC90DD2089F07D14D0F0FC
:103220001C925080E701C880852C8C246B01022EF3
:1032300001C0CC0C0A94EAF7C820C524C0821196BC
:103240002F5F3F4F2430310531F74C5F5F4F0196C0
:103250003196D1CFD718DC92602EF1CF8191D90170
:103260009D919D018927DB0150E040E090E06C01D9
:10327000042E02C0D594C7940A94E2F7C0FE0EC093
:10328000DC91D11102C0CC9301E011964F5F5F4FEA
:103290004430510561F76C5F7F4F15C01C92F5CF2C
:1032A0002223B9F00E9457239093A00280939F029B
:1032B0006091A1027091A20200919E02F22C2B2D2E
:1032C000312FF101C5E08E2F8F198A1538F2009346
:1032D0009E02DF91CF911F910F91FF90EF90DF90B1
:1032E000CF90BF90AF909F908F907F906F905F90A6
:1032F0003F902F9008950E9411260E94E9150C948A
:103300001D260E9421260E9477160C943F260E94BB
:10331000F7220E94F8250E94D1150E947B190E9475
:1033200081190E94E115FBCF8091AB0280FF0DC097
:103330006091100170E0660F771F6038710570F5BD
:103340006115710569F1862F089581FF07C06091AD
:10335000100184E0689FB0011124EFCF609110014B
:1033600082FD0AC08091AA028823A9F020910F0152
:1033700060911001821710F088E0ECCF869FC001A9
:10338000112433E0880F991F3A95E1F7622F70E01E
:103390000E945F2BD2CF68E070E0D5CF8FE7089511
:1033A00081E008958091AB0280FF0CC060910D0117
:1033B00070E075956795759567956115710549F18B
:1033C000862F089581FF06C060910D0170E075950C
:1033D0006795F3CF60910D0182FD0BC09091A9021A
:1033E0009923A1F060910C0180910D01961738F09E
:1033F000682F70E06038710500F38FE70895899FAA
:10340000C001112470E00E945F2BF4CF61E070E0F6
:10341000D7CF81E008958D3E31F40E9494198195B3
:103420008093AF0208958E3E19F40E949419F8CF4C
:103430008F3E31F40E94941981958093AE020895D5
:10344000803F19F40E949419F8CF893F29F40E9413
:10345000D2198093B00208958A3F21F40E94D219B4
:103460008195F7CF8B3F31F40E94D21981958093DB
:10347000B10208958C3F19F40E94D219F8CF9FE051
:10348000980F983070F4815F990B21E030E001C013
:10349000220F8A95EAF78091AD02822B8093AD02CC
:1034A00008958D3F31F48091AB0281608093AB022F
:1034B00008958E3F21F48091AB028260F7CF8F3F59
:1034C000B9F78091AB028460F1CF4091AE028D3E9E
:1034D00059F48091AF0287FF0DC01092AF024111E5
:1034E0000BC01092AA0208C08E3E81F48091AF02F8
:1034F00018169CF3442381F08091B0029091B102A0
:10350000892B09F05AC01092A90208958F3E49F400
:1035100047FFF0CF1092AE028091AF028111ECCF45
:10352000E0CF803F19F41416ACF3E4CF9091B002D1
:10353000893F29F41916F4F61092B002DBCF8A3FC6
:1035400019F497FFD7CFF8CF9091B1028B3F29F4B0
:1035500097FFD0CF1092B102CDCF8C3F19F419163E
:10356000CCF3C8CF9FE0980F983090F4815F990B0F
:1035700021E030E0B90102C0660F771F8A95E2F7BB
:10358000CB0180959091AD0289238093AD02B2CF9B
:103590008D3F31F48091AB028E7F8093AB02AACF36
:1035A0008E3F21F48091AB028D7FF7CF8F3F09F0E2
:1035B000A1CF8091AB028B7FF0CF089580919D02C7
:1035C00083FF7EC08FEF92E00E94F3058091AD02F1
:1035D0001F928F938AEF92E09F938F930E948C06A5
:1035E00088EF92E00E94F3058091AE02282F082E0A
:1035F000000C330B3F938F9385EF92E09F938F9353
:103600000E948C0683EF92E00E94F3058091AF0246
:10361000282F082E000C330B3F938F9380EF92E0FE
:103620009F938F930E948C068EEE92E00E94F3058A
:103630008091B002282F082E000C330B3F938F93FC
:103640008BEE92E09F938F930E948C0689EE92E01E
:103650000E94F3058091B102282F082E000C330B35
:103660003F938F9386EE92E09F938F930E948C06F8
:1036700083EE92E00E94F3058091AA021F928F933D
:1036800080EE92E09F938F930E948C068EED92E0E5
:103690000E94F3058091AB021F928F938BED92E015
:1036A0009F938F930E948C0688ED92E00E94F30511
:1036B0008DB79EB74C960FB6F8949EBF0FBE8DBFC8
:1036C0000E9457239C019091AE028091AF02982BEB
:1036D00021F03093A8022093A7029091B00280912C
:1036E000B102982B21F03093A6022093A5028CEA18
:1036F00092E00C943522EF92FF920F931F93CF9399
:10370000DF9300D000D000D0CDB7DEB786E0ECEA82
:10371000F2E0DE01119601900D928A95E1F7E090BA
:10372000AE02F090AF020091B0021091B10210927F
:10373000AE021092AF021092B0021092B1028E2D22
:103740008F2991F08091A7029091A8020E946F2387
:10375000AC019091AA02992309F43FC08091110114
:103760008417150608F447C0802F812B91F08091B3
:10377000A5029091A6020E946F23AC019091A9022C
:10378000992309F477C080910E018417150608F477
:103790007FC08091AE029091AF02892B9091B002D0
:1037A000892B9091B102892B11F00E94DE1A86E0DC
:1037B000FE013196ACEAB2E001900D928A95E1F7F4
:1037C00026960FB6F894DEBF0FBECDBFDF91CF9126
:1037D0001F910F91FF90EF9008952091A4028AE02D
:1037E000289F900111242417350708F0BDCF9F5F53
:1037F0009093AA0202C09F3FD1F7EE2059F00E9499
:1038000094199FEF1E140CF491E0899F802D1124D0
:103810008093AE02FF2059F00E9494199FEF1F146D
:103820000CF491E0899F802D11248093AF02309198
:10383000AE02332309F498CF2091AF02222309F47A
:1038400093CF45EB3403C0011124992359F0909391
:10385000AE0245EB240390011124332339F0309359
:10386000AF0282CF81E08093AE02F3CF81E08093FC
:10387000AF027ACF2091A3028AE0289F9001112401
:103880002417350708F085CF9F5F9093A90202C0E7
:103890009F3FD1F7002359F00E94D2199FEF1016D5
:1038A0000CF491E0899F802D11248093B0021123A4
:1038B00059F00E94D2199FEF11160CF491E0899FE4
:1038C000802D11248093B1023091B002332309F48A
:1038D00060CF2091B102222309F45BCF45EB340382
:1038E000C0011124992359F09093B00245EB2403B1
:1038F00090011124332339F03093B1024ACF81E093
:103900008093B002F3CF81E08093B10242CF86E092
:10391000ECEAF2E0DF011D928A95E9F71092AA0223
:103920001092A9021092AB020895CF93DF93EC019D
:10393000FB018281882309F433C1C430FDE5DF0730
:10394000C0F5CB3F9CE5D90730F49E0122503C45A1
:1039500024313105B0F50E9417159093D50280935C
:10396000D402C1318CE5D80709F4EEC008F069C073
:10397000C930ECE5DE0709F4D5C0C8F5C5308CE5E3
:10398000D80709F4C7C000F5C330ECE5DE0709F439
:10399000B9C008F0BBC0C230DC4509F4ADC08091AD
:1039A000D4029091D5020E9425150E94010F80E05B
:1039B00008C0C236EDE5DE0771F2C63AFDE5DF0765
:1039C00051F2DF91CF9108958091D4028062C73087
:1039D0009CE5D90709F493C08091D4028061C83076
:1039E000DC4508F48CC08091D402806488C080914A
:1039F000D4028B7FCD30FCE5DF0709F480C098F45A
:103A00008091D4028E7FCB309CE5D90709F477C032
:103A10008091D4028C60CC30DC4508F470C0809179
:103A2000D4028D7F6CC08091D4028F7ECF30FCE5B4
:103A3000DF0709F464C008F47BC08091D4028F7D55
:103A40005EC0CE3F9CE5D90709F47AC050F5C53178
:103A5000FCE5DF0709F486C098F48091D402837FE7
:103A6000C3319CE5D90709F44AC008F471C00E942B
:103A7000010F9091D402892F97FB87F980583FC09E
:103A8000CC3FFCE5DF0709F449C008F055C0809140
:103A9000D5028160CB3FDC4509F081CF8093D50210
:103AA0007ECFC230EDE5DE0709F468C0A8F4C11589
:103AB0008DE5D80709F452C08091D5028360C130EA
:103AC000DD4560F38091D502982F909591708E7F9F
:103AD000892B90FB81F9E2CFC236EDE5DE0709F4D0
:103AE00051C0C63AFDE5DF0709F453C0C330DD45D8
:103AF00009F055CF80E043C08091D402816080936B
:103B0000D4024DCF8091D4028260F9CF8091D4024B
:103B10008460F5CF8091D4028860F1CF8091D50286
:103B20008260BCCF0E94010F8091D4028068E7CFF1
:103B30008091D402877FE3CF8091D5028E7FAECF74
:103B40008091D5028D7FAACF8091D4028F7BD7CF71
:103B50000E94010F8091D4028F77D1CF8091D5023E
:103B60008C7F9CCF8091D40282FB992790F921E031
:103B7000922790FB82F990FB83F9C1CF81E00E94EC
:103B8000AB150DCF9091D402892F8F7E94FF806169
:103B9000B6CF9091D402892F8E7F90FF8160AFCFF6
:103BA00081E00FCF80910C011F928F9380910D01C6
:103BB0001F928F9380910F011F928F93809110011C
:103BC0001F928F93809111011F928F938091A40275
:103BD0001F928F9382E293E09F938F930E948C06B3
:103BE0008DB79EB70E960FB6F8949EBF0FBE8DBFD1
:103BF0000895883228F58E3108F072C08B3041F17B
:103C000030F4873009F4CFC081E894E0DEC083311E
:103C100009F45FC08431C1F783EA94E00E94F305A0
:103C20008091B602882309F4FCC01092B60210926B
:103C3000B5021092B4021092B3021092B20220C0E8
:103C40008F3409F4C5C0D8F5893231F38833E1F6F1
:103C500086EA94E00E94F3050E94D21D1F9281E043
:103C60008F931F9288E08F938FE993E09F938F93B8
:103C70000E948C060F900F900F900F900F900F9056
:103C80002091B602222309F4C7C08091B20290911C
:103C9000B302009711F481E891E09F938F931F92F4
:103CA0002F938FE694E09F938F930E948C060F9042
:103CB0000F900F900F900F900F9081E00895813535
:103CC00009F49AC008F49AC0823509F09DCF81E0CA
:103CD00080C085E994E00E94F3050E94D21DD0CFF8
:103CE0008D518093B602833009F442C058F481307C
:103CF000C1F08230A1F11092B60282E994E00E94F4
:103D0000F3051BC0853009F445C0D8F1863099F71A
:103D10008CE091E09093B5028093B40289EC91E03D
:103D200008C084EA92E09093B5028093B40285E8DB
:103D300091E09093B3028093B2028091B6028823FF
:103D400009F49ECF1F928F938EE894E09F938F93F8
:103D50000E948C060F900F900F900F9091CF81E1F1
:103D600091E09093B5028093B4028EE891E0E1CFA8
:103D700080E191E09093B5028093B4028AE991E0EA
:103D8000D8CF8FE091E09093B5028093B40287EA98
:103D900091E0CFCF8DE091E09093B5028093B40293
:103DA00086EB91E0C6CF1092A40294E190931101AA
:103DB000809310018CE380930F0188E080930D01C4
:103DC00088E280930C0184E894E00E94F30558CFC8
:103DD0008AE0E091B402F091B5023097D1F02081F1
:103DE000082E000C990B820F911D8F3F910541F019
:103DF0003CF08FEF808307C08FEFEBCF86EFE9CFEA
:103E000097FFF8CF108280811F928F938BE794E009
:103E10009DCF88E794E0D9CF8BE694E00E94F3052C
:103E20004CCF80E00895CF93C82F1F928F938CEBD7
:103E300094E09F938F930E948C0661E070E080E095
:103E400090E004C0660F771F881F991FCA95D2F7AC
:103E50000E94560F0F900F900F900F90CF910C94DF
:103E6000010FEF92FF920F931F93CF93DF938B314C
:103E700009F401C108F09FC08B3009F4BBC008F001
:103E80007DC0863009F4C9C048F4853009F4A1C06A
:103E900084E099E00E94F30580E0CFC0873009F408
:103EA000D3C08830A9F70E9413151F928F9387EE15
:103EB00098E09F938F930E948C060E940F1583FBBE
:103EC000992790F91F929F9382FB992790F91F924F
:103ED0009F9381FB992790F91F929F93982F917040
:103EE0001F929F931F928F938EE998E09F938F93D9
:103EF0000E948C060E94171587FB222720F91F922B
:103F00002F9386FB222720F91F922F9385FB2227D0
:103F100020F91F922F9384FB222720F91F922F93C1
:103F200083FB222720F91F922F9382FB222720F95F
:103F30001F922F9391FB222720F91F922F93292F55
:103F400021701F922F9381FB222720F91F922F931C
:103F5000282F21701F922F939F938F9389EB97E0C7
:103F60009F938F930E948C068DB79EB788960FB64D
:103F7000F8949EBF0FBE8DBF81E05FC0803109F411
:103F800092C080F48E3009F083CF90919D02892FEA
:103F90008B7F92FF846080939D0282FF81C08FE2BD
:103FA00099E075C0863109F48EC0893109F070CF6F
:103FB0008CE295E021C08A3249F190F4873211F108
:103FC00028F48E3108F464CF8D511DC0893209F078
:103FD0005FCF82E799E00E94F3050E94400ACCCFB0
:103FE000833468F48A3308F093C0853359F08833FA
:103FF00009F04ECF86E196E00E94F305BDCF8334F1
:1040000009F046CF80E00E94131FB6CF82E999E005
:104010000E94F3050E94A915AFCF80919D02807F79
:1040200080939D028FEE95E00E94F3058EE899E063
:104030000E94F30581E08093B702DF91CF911F9139
:104040000F91FF90EF90089590919D02892F8E7FA0
:1040500090FF816080939D0280FF03C086E699E017
:10406000CBCF89E599E00E94F30580919D02817F85
:1040700080939D0281CF90919D02892F8D7F91FF2A
:10408000826080939D0281FF08C08CE499E00E94C9
:10409000F30580919D028160EBCF8EE399E0ACCF78
:1040A0008FE199E0A9CF90919D02892F877F93FF9F
:1040B000886080939D0283FF03C083E199E0E7CF8E
:1040C00086E099E099CF0E946323162F072FF82EE0
:1040D000E92ED091D302C0911E010E94DD21EF9202
:1040E000FF920F931F931F92DF931F92CF931F9204
:1040F0008F9381EC94E09F938F930E948C068DB7F1
:104100009EB70C960FB6F8949EBF0FBE8DBF34CFEE
:10411000895379CF80E008950C948A20CF93C82FDB
:104120008091B7028130E9F0882331F0823009F4C0
:104130004DC01092B70213C00E940A14813159F485
:104140008C2F0E948A20811125C08C2F0E94311F44
:104150008170CF9108950E940A14823289F380E021
:10416000F8CF0E940A14813159F30E940A14823256
:1041700039F38C2F0E948C2081111BC0C431D9F0DF
:1041800060F4CB3071F0C031D1F086EB94E00E9446
:10419000F30513C081E090E0DBCFC93261F0C83392
:1041A000A1F78FEE95E00E94F30588EB94E00E9462
:1041B000F30581E0CDCF1092B70280E0C9CF82E055
:1041C0008093B70288E30E94F91DF3CF8C2F0E94E1
:1041D000F91D81E0BECFCF93DF93EB0186319C4583
:1041E00011F50E940A149A81992399F08A7A91E034
:1041F00009F490E09093B802811109C089E20E940D
:10420000E5130E944A1480E0DF91CF91089585E381
:10421000F6CF8091B802811104C089E20E94EC13AC
:10422000F0CF85E3FBCF81E0EFCF0F931F93CF93C8
:10423000DF93C42FD22FFC0182818823C9F04093E1
:10424000BB020E9457239093BA028093B90280E286
:104250008C0F883008F050C0C77081E001C0880F13
:10426000CA95EAF7DF91CF911F910F910C947B0CC7
:104270001091BB02141335C08091B9029091BA021B
:104280000E946F23883C910560F5C0E2CD0F1D1799
:10429000B9F080E2810F883040F4177081E001C0EE
:1042A000880F1A95EAF70E94820CC83048F481E022
:1042B0009D2F977001C0880F9A95EAF70E947B0C9A
:1042C000802F0E94730CC830B8F4D77081E001C011
:1042D000880FDA95EAF7DF91CF911F910F910C9437
:1042E000820C80E28C0F883038F4C77081E001C006
:1042F000880FCA95EAF7EFCFDF91CF911F910F9109
:1043000008950F939C01CB01243F4CE5340759F1EC
:10431000A8F4293DFCE53F0701F12A3D4CE53407AF
:10432000D1F1283D3C4591F406E221EE41EE68EDE5
:104330007CE50E94152180E00F910895263FFCE561
:104340003F07E9F0B0F0273F3C45F9F0FC018281DE
:10435000882339F11092BB02EFCF07E225EE45EE3C
:1043600069ED7CE5E6CF06E221EE40EE64EF7CE508
:10437000E0CF07E225EE44EE65EF7CE5DACF06E21A
:1043800021EE42EE66EF7CE5D4CF07E225EE46EE65
:1043900067EF7CE5CECF08E221E045EE6AED7CE5F3
:1043A000C8CF81E0C9CF9093EF018093EE010895CB
:1043B0009093C1028093C0020895E091C002F091F1
:1043C000C102309721F00190F081E02D099480E046
:1043D0000895EF92FF920F931F93CF93DF938C0179
:1043E000E091C002F091C1023097C1F10280F381E7
:1043F000E02D099580919D0282FF30C080FF04C0AE
:104400008BEA99E00E94F305D0E0C0E085EAE82E4F
:1044100089E0F82E80919D0280FF0EC0F801EC0F1C
:10442000FD1F80811F928F93FF92EF920E948C0656
:104430000F900F900F900F902196C830D10551F733
:1044400080919D0280FF0AC083EA99E0DF91CF91BD
:104450001F910F91FF90EF900C94F305DF91CF9196
:104460001F910F91FF90EF900895E091C002F0919D
:10447000C102309739F022E0DC012C930480F581F1
:10448000E02D099408952091BE023091BF022817B3
:10449000390771F09093BF028093BE02E091C00291
:1044A000F091C102309721F00680F781E02D099448
:1044B00008952091BC023091BD022817390771F090
:1044C0009093BD028093BC02E091C002F091C102C2
:1044D000309721F00084F185E02D099408959C0126
:1044E0002E5F3F4FAC01485F5F4F80E024173507D8
:1044F00009F40895F90191919F019923B9F38F5F10
:10450000F5CF662349F0FC013296089621912617D3
:1045100029F0E817F907D1F780E0089581E00895C0
:104520009C01FC0132969FEF80E04191461751F0CB
:104530009F3F19F4411101C0982F8F5F8630A9F772
:104540009F3F09F40895290F311D97FD3A95F90110
:1045500062830895FC01329608962191261303C0C8
:10456000DF0111971C92E817F907B9F708950C9429
:1045700090220C94AA22029626E0FC0111922A9520
:10458000E9F7089508950C94C222811105C081E0D5
:104590008093C2020C94C32282E0FACF83E080931E
:1045A000C2020C94C3220C94C52281E08093C20203
:1045B0000C94C3220C94D522089508950C94DD2206
:1045C00008950C94DC22CF930E947E070E949107ED
:1045D0000E94E022C0E08C2F0E943E08811105C09D
:1045E000CF5FCE30C1F7CF91089581E0FCCF089521
:1045F0001F921FB61F9211248F939F93AF93BF9367
:104600008091C302811113C08091D6029091D7028C
:10461000A091D802B091D9024196A11DB11D8093FD
:10462000D6029093D702A093D802B093D902BF913B
:10463000AF919F918F911F901FBE1F9018958091F1
:10464000DE02843031F10E94B60A1092C30288E182
:1046500090E020E40FB6F894A895809360000FBE18
:104660002093600083B7817F846083BF83B78160BC
:1046700083BF7894889583B78E7F83BF0FB6F894F5
:10468000A89580916000886180936000109260001E
:104690000FBE08950E94010F0C94BA0A82E084BDF7
:1046A00093E095BD9AEF97BD80936E0008952FB764
:1046B000F8948091D6029091D702A091D802B0913F
:1046C000D9022FBF08952FB7F8946091D602709148
:1046D000D7028091D8029091D9022FBF08959C01F2
:1046E0004FB7F8948091D6029091D702A091D8024A
:1046F000B091D9024FBF821B930B089578941F92FB
:104700001FB61F9211248F939F93AF93BF938091F5
:10471000D6029091D702A091D802B091D902019609
:10472000A11DB11D8093D6029093D702A093D80209
:10473000B093D902BF91AF919F918F911F901FBEEF
:104740001F90189581E08093E00080E28093D8006C
:104750001092C9008FE19EE40197F1F700C00000BC
:1047600087E090EBDC018093EB029093EC02A09346
:10477000ED02B093EE0288E19CE00FB6F894A895A4
:10478000809360000FBE90936000FFCF8091D202B3
:10479000089508959C0182E08093E9009FEF809145
:1047A000E800915085FD06C085ED8A95F1F700007F
:1047B0009111F5CF8091E80085FF0CC050E040E0FA
:1047C00066E070E0C9010E94AF268091E8008E7714
:1047D0008093E8000895CF93DF93EC0181E080930C
:1047E000E9008FEF9091E800815095FD06C095EDAE
:1047F0009A95F1F700008111F5CF8091E80085FFCF
:1048000014C050E040E068E070E0CE010E94AF26A6
:104810008091E8008E778093E80088E0FE01AAECA2
:10482000B2E001900D928A95E1F7DF91CF91089562
:104830008093C6027093C8026093C7028091DE0223
:10484000843001F582E08093E9008FEF9091E800D9
:10485000815095FD06C095ED9A95F1F70000811104
:10486000F5CF8091E80085FF0DC050E040E063E0A7
:1048700070E086EC92E00E94AF268091E8008E778F
:104880008093E8000895BC0184E00C941824BC01D6
:1048900083E00C94182481ED99E00E94F305809147
:1048A000DD02811109C00E943F280E949C2880914E
:1048B000E20084608093E20008958DEC99E00E940C
:1048C000F3051092DD02089589EC99E00E94F3054A
:1048D0000C94D52285EC99E00E94F3056091DA02F0
:1048E00081E0611101C080E00C94CE2281EC99E05E
:1048F0000E94F3059091DE0281E0943009F080E09F
:104900006091DA020C94D3222091C5022F5F822F8E
:1049100062E30E943F2B992319F02093C50208956A
:104920001092C5028091C9028823F1F08091DE02C5
:104930008430C1F49091E9009F702091EC00822FA7
:10494000817020FD80E8892B93E09093E90090919D
:10495000EB0090FF04C09091EE0097FD08C08F70AF
:104960008093E9001092C90208951092F10090918D
:10497000E80095FDFACF9091E80090FFF0CF90917C
:10498000E8009E779093E800EACF42E061EC81E096
:104990000E94BB2742E261EC82E00E94BB2742E218
:1049A00061EC83E00E94BB279091DE0281E09430AD
:1049B00009F080E06091DA020C94C5228091E00257
:1049C000833009F460C030F48130C9F1823009F4D9
:1049D0009CC008958A3009F488C08B3009F46EC0F9
:1049E000893009F04FC08091DF02813209F04AC05E
:1049F0008091E3029091E402029708F043C0809115
:104A0000E800877F8093E8008091E80082FF36C04D
:104A10009091F3008091F200029731F48091F100BF
:104A2000813011F0863021F48091F1008093D20220
:104A30008091E8008B778093E8000C94EF278091B9
:104A4000DF02813AF9F48091E800877F8093E800E3
:104A50008091E3029091E402892B61F468E08AEC92
:104A600092E070E00E94FE268091E8008B778093B0
:104A7000E800089560E090E080E0F3CF8091DE02EE
:104A80008111C2CF08958091DF02813AD9F78091D8
:104A9000E3029091E402892BA9F78091E800877FD7
:104AA0008093E8008091E80080FFFCCF80911E0198
:104AB0008093F1008091E8008E77BDCF8091DF0276
:104AC000813201F78091E3029091E402892BD1F6C3
:104AD0008091E800877F8093E8000E94EF27809113
:104AE000E10280931E010C94010F8091DF0281325C
:104AF00049F68091E800877F8093E8000E94EF27C5
:104B00008091E2028093D30208958091DF02813A7E
:104B100009F0B8CF8091E800877F8093E80080910A
:104B2000E80080FFFCCF8091D302C2CF9FB7F894FA
:104B30001092C9029FBF9091DE02943009F048C0E4
:104B40002091E9002F703091EC00932F917030FD8F
:104B500090E8922B23E02093E9002091EB0020FFC6
:104B600034C02091EE0027FF30C02091C4022223E0
:104B700021F02091E80025FF28C01092C40226E011
:104B80003091E80035FF14C08093F1008091E80077
:104B900085FD27C08091E80080FFFCCF8091E80070
:104BA0008E778093E8009F709093E90080E00895ED
:104BB0003091DE02343049F43091EB0035FD05C010
:104BC000215041F481E08093C4029F709093E900EA
:104BD0008FEF0895EFE9FFE03197F1F700C0000093
:104BE000CFCF8FB7F89421E02093C9028FBFDBCFDE
:104BF00084B7877F84BF0FB6F894A8958091600032
:104C0000886180936000109260000FBE80E890E0A1
:104C10000FB6F89480936100909361000FBE0C94DE
:104C2000DA220E943F280E949C28E2EEF0E0808178
:104C30008460808378940C94242B82E191E00C941E
:104C4000D8218091DE028530C9F48DEB99E00E9475
:104C5000F3058091DE02853011F00C944A230E9406
:104C60001F238091DC028823A1F30E94E322882382
:104C700081F30E9499260E94010FEBCF08950895B9
:104C80000C944226292F33272330310521F168F473
:104C90002130310509F443C02230310509F444C004
:104CA00090E080E030E020E026C02132310551F173
:104CB00022323105A9F76330710590F7FB01EE0F41
:104CC000FF1FEF51FE4F2081318162527E4FFB0169
:104CD000808190E010C099278130910581F0009784
:104CE00029F00297E9F6E5EDF9E002C0EBE0FAE021
:104CF000849190E09F01FA01318320830895E3EECF
:104D0000F9E0F6CF6330710558F6660F771FFB01A7
:104D1000E951FE4F2081318189E090E0ECCF82E1C2
:104D200090E02AE63AE0E7CF8BE590E02FE03AE02A
:104D3000E2CF80E189BD82E189BD09B400FEFDCFEB
:104D40008091D8008F7D8093D8008091E0008260B0
:104D50008093E0008091E00081FDFCCF0895AF9248
:104D6000BF92CF92DF92FF920F931F93CF93DF9367
:104D70006C01EB018A010E940E28F82E811123C0DC
:104D80000115110539F0F80180819181C81BD90BFB
:104D9000C80ED91EB12CA12C2097A9F08091E80053
:104DA00085FD22C08091E8008E778093E800011590
:104DB0001105A1F0F80180819181A80EB91EB18280
:104DC000A08285E0F82E8F2DDF91CF911F910F915A
:104DD000FF90DF90CF90BF90AF9008950E940E2873
:104DE0008823D1F2F82EEFCFF60181916F018093E5
:104DF000F1002197FFEFAF1ABF0ACECFFC018091DF
:104E0000E5029091E60286179707A0F061157105FB
:104E100029F49091E8009E779093E80090E0611566
:104E2000710551F4911108C08091E80082FF34C0EF
:104E300080E00895BC01F2CF8091DE028823C1F1A9
:104E40008530C1F18091E80083FD30C08091E80099
:104E500082FDEACF8091E80080FFE1CF8091F300EE
:104E60002091F200382F6115710519F028303105B5
:104E700058F091E02830310509F090E02091E800E9
:104E80002E772093E800CBCF81918093F100615081
:104E900071092F5F3F4FE7CF8091DE02882341F0F9
:104EA000853041F08091E80083FFBECF81E0089516
:104EB00082E0089583E00895FC018091E5029091DD
:104EC000E60286179707A0F06115710529F4809115
:104ED000E8008E778093E80090E06115710551F449
:104EE000911108C08091E80082FF35C080E00895EC
:104EF000BC01F2CF8091DE028823C9F18530C9F16F
:104F00008091E80083FD31C08091E80082FDEACF06
:104F10008091E80080FFE1CF8091F3002091F200C2
:104F2000382F6115710519F02830310558F091E0DE
:104F30002830310509F090E08091E8008E77809369
:104F4000E800CBCF84918093F100319661507109D4
:104F50002F5F3F4FE6CF8091DE02882341F08530FE
:104F600041F08091E80083FFBDCF81E0089582E0A9
:104F7000089583E00895982F973028F08F708093DC
:104F8000E90081E008959093E900242F762F50E006
:104F9000981731F07091EC002091ED005091F000E5
:104FA00021FD02C09F5FE8CF3091EB003E7F309340
:104FB000EB003091ED003D7F3093ED003091EB0040
:104FC00031603093EB007093EC002093ED00509330
:104FD000F0002091EE0027FDE5CF80E0089580915C
:104FE000DF0287FF13C08091E80082FF06C0809136
:104FF000E8008B778093E80004C08091DE02811185
:10500000F2CF08958091DE028823D9F38091E800E1
:1050100080FFF8CF8091E8008E77ECCF2091E400FC
:105020003091E50095E6A9012091EC00822F817076
:1050300020FF06C08091E80080FF06C080E0089550
:105040002091E80022FD1AC08091DE02882389F0B9
:10505000853089F08091EB0085FD0FC02091E40040
:105060003091E50042175307F9F29150E1F684E0E0
:10507000089582E0089583E0089581E008950E94F4
:10508000AD280E94B528E0EEF0E080818160808349
:10509000E8EDF0E080818F77808319BCA7EDB0E068
:1050A0008C918E7F8C9380818F7E80831092DD0225
:1050B00008950F931F93CF93DF930E94AD280E9412
:1050C000B528C8EDD0E088818F7788838881806893
:1050D000888388818F7D888319BC1092DE021092AC
:1050E000DA021092DC021092DB0200EE10E0F8010E
:1050F00080818B7F808388818160888342E060E04B
:1051000080E00E94BB27E1EEF0E080818E7F80830B
:10511000E2EEF0E08081816080838081886080831E
:10512000F80180818E7F8083888180618883DF9110
:10513000CF911F910F910895E8EDF0E080818F7E6F
:105140008083E7EDF0E080818160808384E082BF2E
:1051500081E08093DD020C945928E8EDF0E0808135
:105160008E7F80831092E20008951092DA001092F0
:10517000E10008951F920F920FB60F9211242F9302
:105180003F934F935F936F937F938F939F93AF93CF
:10519000BF93EF93FF938091E10082FF0BC080915A
:1051A000E20082FF07C08091E1008B7F8093E100E5
:1051B0000E9484248091DA0080FF19C08091D80079
:1051C00080FF15C08091DA008E7F8093DA00809195
:1051D000D90080FF96C080E189BD82E189BD09B414
:1051E00000FEFDCF81E08093DE020E944B2480917F
:1051F000E10080FF19C08091E20080FF15C080911E
:10520000E2008E7F8093E2008091E20080618093D3
:10521000E2008091D80080628093D80019BC85E0BC
:105220008093DE020E946A248091E10084FF2BC0FB
:105230008091E20084FF27C080E189BD82E189BDC1
:1052400089B5982F917080FFFBCF8091D8008F7D1A
:105250008093D8008091E1008F7E8093E10080915F
:10526000E2008F7E8093E2008091E2008160809373
:10527000E2008091DA02882309F449C084E0809337
:10528000DE020E9476248091E10083FF29C0809194
:10529000E20083FF25C08091E100877F8093E100D9
:1052A00082E08093DE021092DA028091E1008E7F2C
:1052B0008093E1008091E2008E7F8093E2008091F4
:1052C000E20080618093E20042E060E080E00E94C2
:1052D000BB278091F00088608093F0000E946424D6
:1052E000FF91EF91BF91AF919F918F917F916F91BE
:1052F0005F914F913F912F910F900FBE0F901F9094
:10530000189519BC1092DE020E945D2470CF809126
:10531000E30087FD93E09093DE02B3CF1F920F92DC
:105320000FB60F9211242F933F934F935F936F9378
:105330007F938F939F93AF93BF93CF93DF93EF931D
:10534000FF93D091E900DF708091EC00C82FC1700D
:1053500080FDC0E81092E9008091F000877F809383
:10536000F00078940E94D2291092E9008091F00018
:1053700088608093F000CD2BCF70C093E900FF913F
:10538000EF91DF91CF91BF91AF919F918F917F91DD
:105390006F915F914F913F912F910F900FBE0F90A2
:1053A0001F9018951F93CF93DF93CDB7DEB7AA97C1
:1053B0000FB6F894DEBF0FBECDBF8FED92E0209107
:1053C000F100FC012193CF01F2E0873E9F07B9F77E
:1053D0000E94DE248091E80083FF1EC18091DF02DD
:1053E0009091E0029A3008F017C1E92FF0E0EF5FEA
:1053F000F24D0C94732B803899F0823809F00CC16F
:105400008091E3028F70873008F006C18093E90035
:105410008091EB0085FB882780F91092E90006C097
:105420008091DB029091DC02911182609091E80002
:10543000977F9093E8008093F1001092F1008091A3
:10544000E8008E77E5C0882309F4D3C0823009F0E4
:10545000E3C08091E1028111D6C08091E3028F7098
:105460002FEF280F263008F0D7C08093E900209155
:10547000EB0020FFC8C0933031F48091EB008062D4
:105480008093EB00C0C09091EB0090619093EB0093
:1054900021E030E001C0220F8A95EAF72093EA006C
:1054A0001092EA008091EB008860EACF8111B4C0CD
:1054B0001091E1021F778091E3008078812B809327
:1054C000E3008091E800877F8093E8000E94EF2747
:1054D0008091E80080FFFCCF8091E300806880939A
:1054E000E30082E0111183E08093DE0295C08058D2
:1054F000823008F091C08091E1029091E2028C3DEF
:1055000023E09207A1F583E08A838AE289834FB77B
:10551000F894DE01139620E03EE051E2E32FF0E044
:1055200050935700E49120FF03C0E295EF703F5F76
:10553000EF708E2F90E0EA30C0F0C7968D939D9368
:105540002F5F243159F74FBF8091E800877F809308
:10555000E8006AE270E0CE0101960E94FE2680918A
:10556000E8008B778093E80057C0C096E7CF609142
:10557000E3027091E402AE014F5F5F4F0E9440264C
:10558000BC01892B09F448C09091E800977F909363
:10559000E80089819A810E945C27E1CF8038E1F59B
:1055A0008091E800877F8093E8008091DA02809301
:1055B000F10045CF811130C09091E102923060F549
:1055C0008091E800877F8093E8009093DA020E9440
:1055D000EF278091DA02882311F084E005C08091E2
:1055E000E30087FDFACF81E08093DE020E94C524AC
:1055F00013C08091E102813079F481E0933009F0A9
:1056000080E08093DC021092E9008091E800877FBF
:105610008093E8000E94EF278091E80083FF0AC092
:105620008091E800877F8093E8008091EB008062A2
:105630008093EB00AA960FB6F894DEBF0FBECDBFE5
:10564000DF91CF911F910895CF938091DE0288233F
:10565000A1F0C091E900CF709091EC00892F81708A
:1056600090FD80E8C82B1092E9008091E80083FD4E
:105670000E94D229CF70C093E900CF910895991B61
:1056800079E004C0991F961708F0961B881F7A9539
:10569000C9F780950895AA1BBB1B51E107C0AA1F3B
:1056A000BB1FA617B70710F0A61BB70B881F991FC3
:1056B0005A95A9F780959095BC01CD01089597FB67
:1056C000072E16F4009407D077FD09D00E944B2BCB
:1056D00007FC05D03EF4909581959F4F08957095F5
:1056E00061957F4F0895EE0FFF1F0590F491E02D17
:1056F00009940F931F93CF93DF938230910510F499
:1057000082E090E0E091E902F091EA0230E020E0EE
:10571000B0E0A0E0309799F42115310509F447C0B5
:10572000281B390B24303105C0F58A819B81611516
:10573000710571F1FB0193838283FE0111C04081E9
:1057400051810281138148175907F8F0481759070A
:1057500099F4109761F012960C93129713961C937C
:105760003296CF01DF91CF911F910F910895009351
:10577000E9021093EA02F4CF2115310519F042171E
:10578000530718F49A01BD01EF01DF01F801C2CF00
:105790009093EA028093E902D0CFFE01E20FF31F5B
:1057A000819391932250310939832883DACF209154
:1057B000E7023091E802232B41F42091020130915D
:1057C00003013093E8022093E70220910001309119
:1057D00001012115310541F42DB73EB74091040177
:1057E00050910501241B350B4091E7025091E802CE
:1057F0004217530708F0B5CF241B350B281739077C
:1058000008F4AFCFBC016E5F7F4F2617370708F44F
:10581000A8CF640F751F7093E8026093E702FA0146
:10582000819391939ECFCF93DF930097E9F0FC0192
:10583000329713821282C091E902D091EA02DE010E
:1058400030E020E02097A1F420813181820F931F66
:105850002091E7023091E8022817390709F067C064
:10586000F093E802E093E702DF91CF910895DA0127
:10587000AE17BF0708F040C012964D915C91139788
:105880009D014115510599F7D9011396FC93EE93AB
:1058900012974D915D91A40FB51FEA17FB0779F49C
:1058A000808191810296840F951FD90111969C9356
:1058B0008E938281938113969C938E931297B0E07E
:1058C000A0E08A819B810097B9F5FE0181919191B9
:1058D000E80FF91F8091E7029091E8028E179F0769
:1058E00019F6109761F51092EA021092E902D0932E
:1058F000E802C093E702B8CFB383A283408151810D
:10590000840F951FA817B90771F44E5F5F4F8D91F3
:105910009C911197480F591F5183408312968D9186
:105920009C91938382832115310509F0ADCFF093CB
:10593000EA02E093E90298CFDE01EC01C2CF1396B0
:105940001C921E921297D3CFFB01DC0104C08D91F3
:105950000190801921F441505040C8F7881B990BE1
:105960000895F999FECF92BD81BDF89A992780B527
:105970000895A8E1B0E042E050E00C94E52C262F19
:10598000F999FECF92BD81BDF89A019700B4021635
:1059900039F01FBA20BD0FB6F894FA9AF99A0FBEE3
:1059A00008950396272F0E94C02C0E94BF2C252FFC
:1059B0000E94C02C242F0C94C02C0196272F0E94EB
:1059C000C02C0C94BF2CDC01CB01FC01F999FECF5B
:1059D00006C0F2BDE1BDF89A319600B40D92415077
:1059E0005040B8F70895F894FFCFC50CC50C1A0DB8
:1059F0001A0D7F0D9B0DF40CF40CA60D320E410E0A
:105A0000410EFB29232A0C2B232A0C2B562A772AFA
:065A10000C2BCE2ADA2A5D
:105A16000000EF0220002000C8007D022808503C4C
:105A26000714C623EB23CA2347244324C92301E2D0
:105A360000E900EA00B500B600B700CD008301CC4E
:105A4600008A0192019401210223022402250226E2
:105A56000227022A02B300B4006F0070008182831D
:105A6600E200E900EA00B500B600B700CD00830108
:105A7600CC008A019201940121022302240225020C
:105A8600260227022A02B300B4006F00700081824A
:105A9600833F3F3F006D6B5F64656C6179006D6BA2
:105AA6005F696E74657276616C006D6B5F6D6178AF
:105AB6005F7370656564006D6B5F74696D655F74B7
:105AC6006F5F6D6178006D6B5F776865656C5F6DA4
:105AD60061785F7370656564006D6B5F7768656597
