:100000000C94C0040C9407050C9407050C94070588
:100010000C9407050C9407050C9407050C94070530
:100020000C9407050C9407050C94B5230C948724B5
:100030000C944D1E0C9407050C9407050C940705B1
:100040000C9407050C9407050C9407050C94070500
:100050000C9407050C94A61E0C9407050C94070538
:100060000C9407050C9407050C9407050C940705E0
:100070000C9407050C9407050C9407050C940705D0
:100080000C9407050C9407050C9407050C940705C0
:100090000C9407050C9407050C9407050C940705B0
:1000A0000C9407050C9407050C9407050D06100623
:1000B0001306160619061C061F06A90AA90ADB0A5A
:1000C000DB0A210B540C540C540C3F0BD40BE50BE6
:1000D000E50B440C540C540C4D0CF00CF00C020DC0
:1000E000020DF90C020D020D020DF00CF00CFE0CCD
:1000F000020D020DFE0CF4241B2513261B251326CE
:1001000067258A251326E125F0250A00253031369A
:1001100062003A200025303258000A722F632030E6
:100120003132333435363738394142434445460A53
:10013000006C656674207369646520617474616322
:100140006865640A006C6566742073696465206E76
:100150006F7420726573706F6E64696E670A0074E5
:100160007279696E6720746F207265736574206D93
:10017000637032333031380A007374617274696E9F
:100180006720696E69740000004A004D000F551722
:10019000000A000500E3001500090019002A000804
:1001A000000700060001511A0016001B00E20014AF
:1001B0000004001D0000002B002900E100000000E9
:1001C0000049004C0007551C000B001100280018C6
:1001D000000D0010002C000C000E00360002511221
:1001E000000F003700E0001300330038000000313A
:1001F000023400E5000000000001000100010031B0
:10020000023500350201003000270230024C002F79
:100210000026022F0201001F022102230201001EFC
:10022000022002220200003500010001000000004F
:100230000001000100010001005000240201000142
:100240000051002E000100010052003600010001A3
:10025000004F003700010001002202380000003189
:100260000034002D00000000003F00450001002286
:10027000003E004400010021003D00430001002039
:10028000003C00420001001F003B00410001001E35
:10029000003A0040000000010001000100000000E1
:1002A0000001000100010023000100AC0001002456
:1002B00000A800AA00010025000100A900010026F5
:1002C00000AE00AB00010027000100010000002D7E
:1002D0000001000100000044454255473A2064698E
:1002E0007361626C65642E0A0044454255473A20AA
:1002F000656E61626C65642E0A004F6E6573686F8F
:10030000743A206163746976653A2025640A000AAC
:100310000025303258006B6579626F6172645F73DB
:1003200065745F6C65643A20003F00433E20004CDA
:1003300025640A000A092D20537461747573202DF9
:100340000A686F73745F6B6579626F6172645F6C6A
:1003500065647328293A20253032580A6B65796222
:100360006F6172645F70726F746F636F6C3A202597
:100370003032580A6B6579626F6172645F69646CD0
:10038000653A20253032580A74696D65725F72656E
:100390006164333228293A202530386C580A000A23
:1003A000092D2056657273696F6E202D0A564944D7
:1003B0003A2030784645454428672048656176797B
:1003C00020496E64757374726965732920504944BD
:1003D0003A2030783133303728476572676F2920EB
:1003E0005645523A203078303030310A4255494C27
:1003F000443A202028536570203230203230323188
:10040000290A4F5054494F4E533A204C55464120EB
:1004100045585452414B455920434F4E534F4C453C
:1004200020434F4D4D414E4420343039360A474326
:10043000433A20352E342E30204156522D4C49421D
:10044000433A20322E302E30204156525F415243E3
:10045000483A20617672350A000A092D20436F6EF2
:10046000736F6C65202D0A4553432F713A097175DE
:1004700069740A000A092D204D61676963202D0AFD
:10048000443A094465627567204D65737361676519
:1004900020546F67676C650A583A094D6174726938
:1004A00078204465627567204D6F646520546F67DE
:1004B000676C65202D2053686F77206B65797072AB
:1004C000657373657320696E206D6174726978203D
:1004D000677269640A4B3A094B6579626F617264AD
:1004E00020446562756720546F67676C65202D2016
:1004F00053686F77206B65797072657373207265CE
:10050000706F72740A4D3A094465627567204D6FC9
:1005100075736520546F67676C650A563A095665AE
:100520007273696F6E0A533A095374617475730A72
:10053000433A09416374697661746520436F6E7351
:100540006F6C65204D6F64650A46312D4631303A37
:100550000953776974636820746F204C6179657200
:1005600020302D392028463130203D204C30290ABA
:10057000302D393A0953776974636820746F204CC1
:100580006179657220302D390A47524156453A0942
:1005900053776974636820746F204C6179657220A9
:1005A000302028616C7465726E617465290A423A64
:1005B000094A756D7020746F20426F6F746C6F61A3
:1005C0006465720A4553433A094A756D7020746F29
:1005D00020426F6F746C6F616465722028616C7467
:1005E00065726E617465290A453A095072696E74C4
:1005F00020454550524F4D2053657474696E6773A2
:100600000A4253504143453A09436C6561722045A3
:100610004550524F4D0A006B65796D61705F636F95
:100620006E6669672E7261773A20253032580A2E3D
:10063000737761705F636F6E74726F6C5F6361700C
:10064000736C6F636B3A2025750A2E636170736C4F
:100650006F636B5F746F5F636F6E74726F6C3A2061
:1006600025750A2E737761705F6C63746C5F6C67BD
:1006700075693A2025750A2E737761705F7263740D
:100680006C5F726775693A2025750A2E7377617001
:100690005F6C616C745F6C6775693A2025750A2E12
:1006A000737761705F72616C745F726775693A200D
:1006B00025750A2E6E6F5F6775693A2025750A2EBB
:1006C000737761705F67726176655F6573633A2007
:1006D00025750A2E737761705F6261636B736C615D
:1006E00073685F6261636B73706163653A2025753F
:1006F0000A2E6E6B726F3A2025750A00646562756A
:10070000675F636F6E6669672E7261773A20253086
:1007100032580A2E656E61626C653A2025750A2E84
:100720006D61747269783A2025750A2E6B6579625D
:100730006F6172643A2025750A2E6D6F7573653A84
:100740002025750A006565636F6E6669673A0A64FD
:10075000656661756C745F6C617965723A202575A8
:100760000A003F000A6D6F7573653A206F66660A6E
:10077000000A6D6F7573653A206F6E0A000A6B652B
:1007800079626F6172643A206F66660A000A6B656F
:1007900079626F6172643A206F6E0A000A6D61744B
:1007A0007269783A206F66660A000A6D6174726930
:1007B000783A206F6E0A000A64656275673A206FA6
:1007C00066660A000A64656275673A206F6E0A0001
:1007D0000A0A4A756D70696E6720746F20626F6FC8
:1007E000746C6F616465722E2E2E2000433E2000D3
:1007F000436C656172696E6720454550524F4D0AE2
:10080000000A002530325820006B6579626F6172F2
:10081000645F7265706F72743A20005B735D004BA9
:100820006579626F6172642073746172742E0A005C
:100830005B575D005B535D005B525D005B445D0098
:100840005B435D000C0347006500720067006F00AA
:100850000000260367002000480065006100760064
:100860007900200049006E00640075007300740078
:1008700072006900650073000000040309040902A6
:100880005B00030100A0FA0904000001030101005C
:100890000921110100012240000705810308000A17
:1008A00009040100010300000009211101000122D7
:1008B00032000705820320000A0904020002030037
:1008C00000000921110100012222000705830320F5
:1008D00000010705030320000112010002000000CF
:1008E00008EDFE07130100010200010631FF097443
:1008F000A1010975150026FF0095207508810209E0
:1009000076150026FF00952075089102C0050109A3
:1009100080A101850319012AB700150126B70095AA
:100920000175108100C0050C0901A10185041901A0
:100930002AA002150126A002950175108100C005AC
:10094000010906A101050719E029E7150025019510
:1009500008750181029501750881010507190029B3
:10096000FF150026FF00950675088100050819018E
:100970002905950575019102950175039101C00046
:1009800011241FBECFEFDAE0DEBFCDBF04B603FEF9
:1009900027C08091680290916902A0916A02B0918B
:1009A0006B028730904BA740B04BD1F41092680295
:1009B0001092690210926A0210926B0214BE84B700
:1009C000877F84BF0FB6F894A895809160008861F6
:1009D00080936000109260000FBEE0E0F8E309959C
:1009E00011E0A0E0B1E0E2EAFFE402C005900D9260
:1009F000A638B107D9F722E0A6E8B1E001C01D9200
:100A0000A836B207E1F70E9431180C94CF270C9456
:100A10000000FF93EF93E0918601F09187013097FA
:100A200009F00995EF91FF910895FC0185918030BF
:100A300011F0EFDFFBCF0895FF27E0E230E247FF40
:100A40000CC0419597FF09C0EDE2609570958095C7
:100A50009095611D711D811D911D27FF02C021957B
:100A600030E350E2AA27660F771F881F991FAA1F3D
:100A7000A41710F0A41B63955A95A9F7AA3008F0A3
:100A8000A95FA05DAF93F39561157105810591058F
:100A900041F7ED3211F4EF93F395F21718F43F9309
:100AA000F395FBCF8F91B5DFFA95E1F70895E991C2
:100AB000F9918591803021F0853219F0AADFF9CFC4
:100AC000089520E0E89455915532C1F3503311F464
:100AD000689455915A3348F4505390F3220F022EE4
:100AE000220F220F200D250FF4CF0EF421958991AE
:100AF0009991533619F3533729F1533559F1BC0104
:100B000088279927E8945C3621F489919991689413
:100B10005591543639F446EF7EF077FF0DC08FEFD4
:100B20009FEF0AC055374AE039F0583540E121F0CF
:100B3000523642E009F00895FF93EF937DDFEF9185
:100B4000FF91B7CFFF93EF93FC0181918030B9F310
:100B500060DFFBCFFF93EF9368DFF1CFDF93CF939D
:100B6000CDB7DEB72596A3DFCF91DF91089580B38F
:100B70008D7880BB81B3826781BB089584B114B83E
:100B800085B1807F85B93E9846988AB1837F8AB9BE
:100B90008BB1837F8BB985B1806F85B90895CF9371
:100BA000E82F873080F58091060190910701892B0D
:100BB00009F047C0CE2F68EE73E080E40E944C1C21
:100BC0009093070180930601892BD1F468EE73E0BE
:100BD00082E10E94CD1C9093070180930601892B2E
:100BE00079F481E090E001C0880FCA95EAF768EED9
:100BF00073E080950E94CD1C9093070180930601BD
:100C0000CF910C94221D90E0FC013797E730F1055D
:100C1000C0F4EA5AFF4F0C946626209A289811C017
:100C2000219A29980EC0229A2A980BC0239A2B98B1
:100C300008C0529A5A9805C0539A5B9802C03E9ACF
:100C40004698CF910895CF93873008F03FC08091A8
:100C5000060190910701892B09F045C068EE73E009
:100C600080E40E944C1C9093070180930601892B1D
:100C700011F0C0E027C068EE73E083E10E94CD1C54
:100C80009093070180930601892B99F768EE73E032
:100C900081E40E944C1C9093070180930601892BEC
:100CA00041F788EE93E00E94FD1C97FF05C09093EA
:100CB000070180930601DDCFC82FC0951092070170
:100CC000109206010E94221D8C2F0EC08FB12FB1F1
:100CD00081FB992790F9822F807786958695869556
:100CE000892B809501C080E0CF91089508950C94E0
:100CF00076060C9476060E94660790E090930701B2
:100D0000809306010E94BE050E94B705E7E9F1E065
:100D1000A9E8B1E011921D9281E0E53AF807D1F718
:100D20008EE00E9498170C9433080E94660790E0AA
:100D300090930701809306010E94BE050E94B705AB
:100D4000E7E9F1E0119281E0E53AF807D9F7089573
:100D5000EF92FF920F931F93CF93DF938091060141
:100D600090910701892BD9F0809188018F5F809342
:100D70008801811114C08FE591E00E9415050E9441
:100D8000660790E09093070180930601892B19F084
:100D900085E491E002C081E391E00E94150509E835
:100DA00011E0C0E0F12C87E0E82EEC0E8C2F0E94C1
:100DB000CF058E2D0E94CF058C2F0E942306F801AF
:100DC0009081891719F08083D1E001C0D0E08E2D89
:100DD0000E942306F8019781891719F0878381E023
:100DE00001C080E0D82BFD2A0E94BE05CF5F0F5FB7
:100DF0001F4FC730C1F62F2D4EE067E971E089E83B
:100E000091E00E94AB170E94390881E0DF91CF91F9
:100E10001F910F91FF90EF900895E82FF0E0E956B1
:100E2000FE4F80810895CF92DF92EF92FF920F9351
:100E30001F93CF93DF938AE191E00E94150587E924
:100E4000E82E81E0F82EC0E0D0E095E1C92E91E0D7
:100E5000D92E0CE011E0DF93CF93DF92CF920E9466
:100E6000AE0582E191E00E941505F70181917F01B5
:100E700090E00E94CE089F938F931F930F930E9440
:100E8000AE058AE091E00E94150521968DB79EB7C8
:100E900008960FB6F8949EBF0FBE8DBFCE30D10519
:100EA000D1F6DF91CF911F910F91FF90EF90DF90DE
:100EB000CF9008953F988AB18F708AB96E98479AFB
:100EC0008BB1806F8BB9769A0C94770689E791E0A5
:100ED0000E94150580E290E090930701809306013F
:100EE0008091A50181110EC00E94461C81E0809373
:100EF000A5012FEF83ED90E3215080409040E1F772
:100F000000C0000068EE73E080E40E944C1C9093E7
:100F1000070180930601892B09F04EC068EE73E04B
:100F200080E00E94CD1C9093070180930601892BDD
:100F300009F042C068EE73E080E80E94CD1C9093F7
:100F4000070180930601892BB9F568EE73E08FEFF6
:100F50000E94CD1C9093070180930601892B61F5B7
:100F60000E94221D68EE73E080E40E944C1C909366
:100F7000070180930601892BF9F468EE73E08CE099
:100F80000E94CD1C9093070180930601892BA1F448
:100F900068EE73E080E80E94CD1C90930701809377
:100FA0000601892B49F468EE73E08FEF0E94CD1C97
:100FB00090930701809306010E94221D80910601F3
:100FC000089581E0089581E008950C94E307089561
:100FD0000C94E7071F93CF93DF9300D000D01F92AC
:100FE000CDB7DEB749835A836B833091A6018981DF
:100FF0009A81311114C0662359F0222349F00E94CE
:10100000920E182F682F89819A810E943D0E03C08D
:101010000E94670E182F69817A81812F04C00E9477
:10102000920E69817A810F900F900F900F900F9020
:10103000DF91CF911F910C944F15FC01262F408119
:1010400051816281738184810C94EA0781E0089563
:10105000CF93DF93EC0160E00E941D08BE01DF9199
:10106000CF910C94E8070E9474170E94E8080C9432
:101070005A070C94790608950E94DE0C0E943B08E2
:101080002FEF84E39CE0215080409040E1F700C0C6
:1010900000000C94CC1E0F931F93CF93DF938C0111
:1010A00061E00E941D08EC01B8010E94E507882359
:1010B00009F45BC0B801CE010E94981A882309F494
:1010C00054C0B801CE010E94EA1A882309F44DC029
:1010D000B801CE010E94151C882309F446C0F8010E
:1010E00082818823D9F1CF3D8CE5D80779F140F48E
:1010F000C115FCE5DF0791F0C130DC4591F02EC051
:10110000CC35EDE5DE0741F1CD35FDE5DF0709F131
:10111000CB35DD4519F50E94CE1220C00E943C0857
:1011200024C080912E02C82FC095C170C0FB80F9E9
:1011300080932E02CC2329F089EE92E00E941505BF
:1011400014C087ED92E00E94150510C00E94411462
:101150000CC00E94C51202C00E94D112C801DF91CA
:10116000CF911F910F910C94E107C0E08C2FDF917C
:10117000CF911F910F9108958295982F937344E01A
:10118000949F900111248C7C86958695282B822F24
:101190008575880F2A7A2695822B0895CF93DF9341
:1011A000D92F0E94BC08C82F8D2F0E94BC082C2F5D
:1011B00030E0322F2227A901482BCA01DF91CF91BD
:1011C000089508950C94E10881E008950C94E408D2
:1011D0000895CF93C82F0E94E2088C2F0E94E60842
:1011E000CF910895CF93DF93CDB7DEB72B970FB68E
:1011F000F894DEBF0FBECDBF4F83588769877A87CB
:101200008B8761110E94F4129E012F5F3F4F86E091
:10121000F90111928A95E9F785E0FE013796D90127
:1012200001900D928A95E1F789819A814C815D81C7
:10123000452B31F09F3F31F491E08F3F19F403C00B
:1012400091E001C090E090FF09C049815A816B8113
:101250007C818D819E810E94E01105C0C9010E94A0
:1012600026088111F2CF2B960FB6F894DEBF0FBE81
:10127000CDBFDF91CF910895FC01808191810E94C3
:10128000D40E0895CF93882309F4A1C0C82F8238C3
:10129000C1F40E942B1D81FD9AC069E38091080171
:1012A000909109010E94EE1D0E9426132FEF81EEFE
:1012B00094E0215080409040E1F700C0000069E3D5
:1012C00019C0833801F50E942B1D80FD80C063E5A5
:1012D00080910801909109010E94EE1D0E94261341
:1012E0002FEF81EE94E0215080409040E1F700C064
:1012F000000063E580910801909109010E94F01DB2
:10130000CF910C9426138438C1F40E942B1D82FDCA
:101310005EC067E480910801909109010E94EE1D72
:101320000E9426132FEF81EE94E0215080409040E0
:10133000E1F700C0000067E4DDCF8CEF8C0F813A4D
:10134000F8F48C2F0E94D319811141C06C2F809129
:101350000801909109010E94B81D882349F06C2F63
:1013600080910801909109010E94F01D0E942613AE
:101370006C2F80910801909109010E94EE1DC0CF51
:1013800080E28C0F883048F4C77081E001C0880F7C
:10139000CA95EAF70E94D712B3CFEBE5EC0FE33022
:1013A00040F4F0E0ED5BFE4F808190E0CF910C9433
:1013B000801DC85AC73158F4EC2FF0E0EE0FFF1F24
:1013C000EB5EFE4F80819181CF910C94961DCF9161
:1013D0000895882309F45BC0682F823879F40E944D
:1013E0002B1D81FF54C069E3809108019091090190
:1013F0000E94EE1D0E94261369E310C08338B1F4E9
:101400000E942B1D80FF43C063E5809108019091ED
:1014100009010E94EE1D0E94261363E580910801D8
:10142000909109010E94F01D0C942613843879F4E0
:101430000E942B1D82FF2BC067E4809108019091D0
:1014400009010E94EE1D0E94261367E4E7CF8CEF8E
:10145000860F813A18F380E2860F883048F467706F
:1014600081E001C0880F6A95EAF70E94DD12DCCFA7
:101470008BE5860F833020F480E090E00C94801D93
:10148000685A673120F480E090E00C94961D08952E
:101490001F93CF93DF93182FEB010E9442092097EF
:1014A00041F08FE99FE00197F1F700C0000021971C
:1014B000F6CF812FDF91CF911F910C94E9098933E9
:1014C00019F060E070E002C060E570E00C94480A3A
:1014D000882321F00E94D7120C94261308958823A4
:1014E00021F00E94DD120C9426130895CF92DF9212
:1014F000EF92FF920F931F93CF93DF937C01062F00
:10150000C72FFC01D281158112951F700E9498127D
:10151000882399F0DD2389F08C2F807F803421F09F
:1015200080E2800F883048F082E00E9476130E94AB
:10153000981291E0D82ED92601C0D12CCC2EC2947D
:101540008FE0C8228C2D90E0FC01E35AFF4F0C94F1
:1015500066268C2F807FCF70882311F0C295C07FC4
:10156000DD2399F0CC2309F47AC180E2800F883022
:1015700010F0011104C08C2F0E94D71203C08C2FD1
:101580000E94E7120E9426136AC1802F0E94E90977
:10159000CC2309F489C180E2800F883010F001115A
:1015A00004C08C2F0E94DD1203C08C2F0E94ED120C
:1015B0000E94261379C18C2F807FCF70803211F06A
:1015C000C295C07F002319F00130C9F024C0DD238B
:1015D00071F0112341F0113031F40E9407138C2B6C
:1015E0000E940F1361C10E9407138C2B0EC01123A0
:1015F00019F0113009F458C10E941C131EC0DD23DC
:1016000039F0123008F050C18C2F0E94680A4CC18A
:1016100011114AC112C0DD2319F01123A9F31FC112
:10162000112359F0093309F02BC1FFEF27EE83E0B6
:10163000F15020408040E1F721C18C2F0E946F0AB9
:1016400033C18C2F86958695837019F0813061F0B7
:101650002BC1DD2321F0802F9C2F937002C080E0EE
:1016600090E00E94801D28C1DD2321F0802F9C2F57
:10167000937002C080E090E00E94961D1DC18C2FE7
:10168000837009F045C0D11113C1402F4295469592
:101690004770440F440F602F6F70862F90E0A0E0DA
:1016A000B0E0042E04C0880F991FAA1FBB1F0A9424
:1016B000D2F704FF10C00FE010E020E030E004C0DB
:1016C000000F111F221F331F4A95D2F70095109566
:1016D0002095309503C000E010E09801C695C695AE
:1016E000C370BC01CD01602B712B822B932BC230B8
:1016F00049F058F4C13019F00E94530DD9C00E942E
:10170000410DD6C00E94650DD3C00E943F0DD0C0D0
:10171000DD2319F08C2F817001C08695882309F490
:10172000C7C0402F429546954770440F440F602F25
:101730006F70862F90E0A0E0B0E0042E04C0880F08
:10174000991FAA1FBB1F0A94D2F704FF10C00FE015
:1017500010E020E030E004C0000F111F221F331FF3
:101760004A95D2F7009510952095309503C000E07A
:1017700010E09801C695C695C370BC01CD01602BE1
:10178000712B822B932BC23049F058F4C13019F0E1
:101790000E94180E8DC00E94060E8AC00E942A0E5A
:1017A00087C00E94790D84C0CF70DD2339F08C2F63
:1017B0000E949F0D802F0E94680A7AC0802F0E948D
:1017C0006F0A8C2F0E94C00D73C0023FF9F028F4FD
:1017D000003F41F0013F99F03EC0033FF1F0043F6C
:1017E00031F139C0DD2339F011115EC08C2F8F71BA
:1017F0000E94E50D59C0123008F056C0F7CFDD2326
:1018000039F08C2F8F710E949F0D4EC0DD23C9F3DC
:101810008C2F8F710E94C00D47C0DD2329F08C2FC3
:101820008F710E948A0D40C00E94850D3DC0DD234E
:1018300049F0CF718C2F0E949F0D63E08C2F0E9486
:101840005B1332C081E00E947613123068F182E0AF
:101850000E94761329C0DD2331F0112391F2802FED
:101860000E94420921C0112399F2093349F49FEFE4
:10187000E7EEF3E09150E040F040E1F700C00000F7
:10188000802F0E94E90910C04C2F4F70602FC701B4
:101890000E944B150E94020F0FC04C2F4F70602FFB
:1018A000C7010E944E1508C088EF8C0D843020F4CB
:1018B0000E942B1D0E94E908DD20C9F00E949412AD
:1018C00080FD15C0F70112820E948E120E949F0DAA
:1018D000C7010E94980C0E948E12DF91CF911F9138
:1018E0000F91FF90EF90DF90CF900C94C00DDF919F
:1018F000CF911F910F91FF90EF90DF90CF900895BF
:101900000F931F93CF93DF93EC01688179818A81D4
:101910000E94DF0E8C010E943C0E0E942D0DB8012A
:10192000CE010E94760ADF91CF911F910F91089509
:10193000CF93DF93EC01988189812B813C81232B0C
:1019400031F08F3F31F481E09F3F19F403C081E013
:1019500001C080E080FD19C0CE010E944B088111BA
:101960000CC00E949812882381F08A81882369F034
:1019700082E0DF91CF910C947613CE010E94800C0F
:10198000CE01DF91CF910C942808DF91CF9108957B
:1019900080E090E00E94801D80E090E00E94961D13
:1019A0000E94F4120E9404130C94261380910801E3
:1019B000909109010E94F21D0C94C80C0E94E4123F
:1019C0000C94D60CE92FE295EF704E2F50E0FA01FF
:1019D0003297EE30F105B0F4E359FF4F0C946626D0
:1019E000803F91F018F4883E68F40EC0843F51F4B3
:1019F0000BC0883E48F0813F29F406C093FB88273E
:101A000080F9089580E0089581E00895FC018081C7
:101A100091810E94D40E0E94E20C0895CF93DF932F
:101A200000D000D01F92CDB7DEB70F900F900F906F
:101A30000F900F90DF91CF910895CF93DF9300D057
:101A400000D000D0CDB7DEB726960FB6F894DEBF33
:101A50000FBECDBFDF91CF910895089508950C94E6
:101A60002E0D0C942F0D0E94310D6093CE017093BA
:101A7000CF018093D0019093D1010C94C80C0C94A9
:101A8000330D0F931F930091CE011091CF01209140
:101A9000D0013091D101602B712B822B932B1F91A0
:101AA0000F910C94330D0F931F930091CE01109161
:101AB000CF012091D0013091D10160237123822385
:101AC00093231F910F910C94330D0F931F9300914B
:101AD000CE011091CF012091D0013091D10160272A
:101AE0007127822793271F910F910C94330D0C942B
:101AF0002E0D0E94770D6093CA017093CB018093E5
:101B0000CC019093CD010C94C80C60E070E0CB0147
:101B10000C94790D0F931F9341E050E060E070E06A
:101B20008A019B0104C0000F111F221F331F8A95D9
:101B3000D2F7C901B8011F910F910C94790D0F9341
:101B40001F9341E050E060E070E004C0440F551F77
:101B5000661F771F8A95D2F78091CA019091CB01B9
:101B6000A091CC01B091CD018A019B01082B192BCA
:101B70002A2B3B2BC901B8011F910F910C94790DB1
:101B80000F931F9341E050E060E070E004C0440F09
:101B9000551F661F771F8A95D2F74095509560951F
:101BA00070958091CA019091CB01A091CC01B09128
:101BB000CD018A019B01082319232A233B23C90154
:101BC000B8011F910F910C94790D0F931F9341E071
:101BD00050E060E070E004C0440F551F661F771F9F
:101BE0008A95D2F78091CA019091CB01A091CC0146
:101BF000B091CD018A019B01082719272A273B278D
:101C0000C901B8011F910F910C94790D0F931F9387
:101C10000091CA011091CB012091CC013091CD01EE
:101C2000602B712B822B932B1F910F910C94790DAC
:101C30000F931F930091CA011091CB012091CC0109
:101C40003091CD0160237123822393231F910F9143
:101C50000C94790D0F931F930091CA011091CB0141
:101C60002091CC013091CD016027712782279327E5
:101C70001F910F910C94790D0895990F990F890F69
:101C8000E82FE695E695E695877051E001C0550F7F
:101C90008A95EAF785E0E89FF0011124E955FE4FA7
:101CA00020E030E070E04081CB01022E02C096952A
:101CB00087950A94E2F7817081958427852384278C
:101CC00081932F5F3F4F2530310569F70895990FB4
:101CD000990F890F682F669566956695982F97706E
:101CE00085E0689FB001112440E050E080E0FB01F6
:101CF000E40FF51FE955FE4F208130E0092E02C0A8
:101D0000369527950A94E2F721703327042E01C0F7
:101D1000220F0A94EAF7822B4F5F5F4F453051053F
:101D200031F70895BF92CF92DF92EF92FF920F9317
:101D30001F93CF93DF938C01C090CA01D090CB0149
:101D4000E090CC01F090CD018091CE019091CF0137
:101D5000A091D001B091D101C82AD92AEA2AFB2A40
:101D6000CFE1D0E0D701C6010C2E04C0B695A795EF
:101D7000979587950A94D2F780FD04C0219790F734
:101D8000B12C07C0BC2EB8018C2F0E948016019781
:101D9000A9F38B2DDF91CF911F910F91FF90EF90C1
:101DA000DF90CF90BF900895CF93DF93EC010E9416
:101DB000920EBE010E948016DF91CF9108951F936D
:101DC000CF93DF93EB019091A601992321F0CB01F2
:101DD0000E94D40E13C0882349F0CB010E94920EBA
:101DE000182F682FCE010E943D0E04C0CB010E9427
:101DF000670E182FBE01812F0E948016DF91CF91B0
:101E00001F910895EF92FF920F931F93CF93DF934B
:101E10008C01892B09F46CC0F12CEE24E394E801C9
:101E20002196F8018491843740F4843008F051C041
:101E3000813081F0823019F15BC0853709F444C0EC
:101E4000A8F19CE7980F903708F052C08F770E9456
:101E5000E90941C00E5F1F4FFE01849190E2980F87
:101E6000983050F48770FE2D01C0FF0F8A95EAF775
:101E70008F2F0E94F71214C00E9442092DC00E5FDE
:101E80001F4FFE01849190E2980F983060F48770A4
:101E9000FE2D01C0FF0F8A95EAF78F2F0E94FD12D9
:101EA0000E94261319C00E94E90916C00E5F1F4F39
:101EB000FE01C491CC2381F08FE99FE00197F1F7F7
:101EC00000C00000C150F6CF0E5F1F4FFE01F4901E
:101ED00003C00E9442098E018F2D882309F49FCFF1
:101EE000EFE9FFE03197F1F700C000008150F5CF36
:101EF000DF91CF911F910F91FF90EF9008951F9365
:101F0000CF93DF93C091D20116E08091D301C8171F
:101F100099F0D0E01C9FF0011D9FF00D1124EC52B0
:101F2000FE4F4081518162817381848195810E943D
:101F30001D0D2196C770E9CFDF91CF911F910895B4
:101F400040910402509105026091060270910702CF
:101F500080910802909109020C941D0D0F931F931C
:101F6000CF93DF938091090282958F7009F05DC055
:101F700080910602882309F458C08091D201109103
:101F8000D3016091040270910502C0910702D091C3
:101F9000080291E06F3F09F090E0292F06E08117D9
:101FA00009F443C0209721F07F3F21F030E003C0C7
:101FB00031E001C0322F90E030FD34C0089FF001C5
:101FC000099FF00D1124DF01AC52BE4F11963C91D8
:101FD0001197371327C03C91361324C012963C91B9
:101FE000129731111FC013964D915C9114974C1BA1
:101FF0005D0B483C5105B0F4809109028F708061FF
:1020000080930902E752FE4F80818F708061808348
:1020100084E092E00E94980CDF91CF911F910F9184
:102020000C947F0F01968770BACFDF91CF911F91EB
:102030000F9108959F92AF92BF92CF92DF92EF924D
:10204000FF920F931F93CF93DF93CDB7DEB76197C6
:102050000FB6F894DEBF0FBECDBF8C0185E0F8014E
:10206000DE011D9601900D928A95E1F7F801E2805C
:1020700090910402609105022091070230910802BC
:102080002115310531F06F3F31F481E09F3F19F4A4
:1020900003C081E001C080E0F82FF1709F2E80FD29
:1020A0003FC1F80140815181A380B48084E0C82EF3
:1020B00082E0D82EF0900602F501E21BF30BFF2020
:1020C00009F4D9C080910902E83CF10508F095C0F7
:1020D000282F207F09F052C0561313C0491311C096
:1020E000FE2CE1100EC08F708061809309020E9467
:1020F000A00FC6010E94980C80910902F801858307
:102100004CC1AB2831F05F3F31F481E04F3F19F40F
:1021100003C081E001C080E080FD03C081E08E2526
:1021200002C080E090E0F82FF170FF2E80FF1CC00D
:102130008091D2012091D30136E0821709F40BC1BE
:1021400090E0389FF001399FF00D1124EC52FE4FC2
:102150006181561306C06081461303C06281E61296
:1021600003C001968770E9CFFE2CEE2009F415C15B
:102170008091090281608093090254C0561306C001
:10218000491304C0E11002C0F80199C0C8010E94BF
:10219000060D882361F1EE2051F120910902822F72
:1021A00082958F7090E0029774F080910402909174
:1021B000050298878F831986BB86AA862C87CE0155
:1021C00007960E94980C86E0F801A4E0B2E0019026
:1021D0000D928A95E1F70E94AE0F0E94A00F0AC0EF
:1021E000561711F1C8010E94060D81112CC0C801BB
:1021F0000E94980CFF24F394D0C0282F207F81F7F1
:102200007A2DB98AA88A6E2D89890E940E0D84E0E4
:1022100092E00E94980C86E0F60111928A95E9F707
:102220000E94A00FF12CB9C04913DCCFE110DACF26
:10223000F8018583C8010E94980C86E0F60111928E
:102240008A95E9F7AAC0EE2091F220910902822F27
:1022500082958F7090E002970CF4B5CF80910402C4
:10226000909105029A8389831B82BD82AC822E8362
:10227000CE010196A6CFE83CF10508F044C0FE2C43
:10228000EE2009F4B4CF561330C049132EC020916C
:10229000090220FD21C0822F82958F70482F50E0C7
:1022A00041155105C9F0F80125834F30510541F022
:1022B0008F5F982F9295907F822F8F70892B8583C7
:1022C000C8010E94980C86E0F801A4E0B2E00190F9
:1022D0000D928A95E1F73CC086E0F801A4E0B2E0F7
:1022E00001900D928A95E1F758C0C8010E94060D31
:1022F000811169CF80910902816080930902C80130
:102300000E94980C4AC07A2DB98AA88A6E2D8989B4
:102310000E940E0D86E0F60111928A95E9F718C029
:10232000EE2009F464CFC8010E94060DF82E882320
:1023300009F45DCF86E0F801A4E0B2E001900D92CF
:102340008A95E1F784E092E00E943C090E94AE0F7A
:102350000E94A00F22C04D875E878D859E850E94BA
:10236000D40E292F22952F70223028F49F7039F037
:10237000811105C00BC0243028F49F7049F4805EA1
:10238000883020F0C8010E94980C9F2CF92C05C0C1
:10239000F8019581907F99F7F9CF8F2D61960FB64F
:1023A000F894DEBF0FBECDBFDF91CF911F910F918B
:1023B000FF90EF90DF90CF90BF90AF909F900895E7
:1023C0001F93CF93DF93CDB7DEB72C970FB6F8945A
:1023D000DEBF0FBECDBF4F83588769877A878B8753
:1023E0009C87CE0107960E941A108823D1F09F8106
:1023F00088852A853B85232B31F08F3F31F481E09E
:102400009F3F19F403C081E001C080E080FD47C018
:102410004F81588569857A858B859C850E941D0D25
:102420003EC086E0FE013796DE01119601900D92C6
:102430008A95E1F7FF81E8856A857B8561157105DD
:1024400031F0EF3F31F481E0FF3F19F403C081E048
:1024500001C080E080FD23C02091D30130E0C9019C
:102460000196877099274091D20150E08417950713
:10247000F1F1F983EA837D836C8396E0929FD0012A
:10248000939FB00D1124AC52BE4FFE0131960190C6
:102490000D929A95E1F78093D3010E947F0F16E089
:1024A0008091D2019091D301891771F1189FC001D9
:1024B00011248C529E4F0E941A10882329F1E0911A
:1024C000D2011E9FF0011124EC52FE4F4081518138
:1024D00062817381848195810E941D0D8091D2015A
:1024E00090E00196877099278093D201D9CF0E94FE
:1024F000DE0C1092D3011092D201E4E0F2E086E00B
:10250000DF011D928A95E9F72C960FB6F894DEBF8D
:102510000FBECDBFDF91CF911F91089580910A0228
:10252000859585958595089580910A02877008950F
:1025300090910A02977081E009F480E00895CF93AA
:102540009091520292FB222720F92817E1F0C82F20
:10255000892FC0FB82F980935202809151029091A1
:1025600052020E94BD1380912E0280FF0CC01F9268
:10257000CF938AEF92E09F938F930E94AE050F90C6
:102580000F900F900F90CF9108958091520282FB8F
:10259000882780F991E089270C949F1281E00C94A0
:1025A0009F1280E00C949F128091160208959091E2
:1025B0001602892B80931602089580959091160239
:1025C000892380931602089510921602089590911F
:1025D0001502892B8093150208958095909115021C
:1025E0008923809315020895109215020895909101
:1025F0001402892B809314020895809590911402FF
:1026000089238093140208951092140208958091F2
:102610000B02089508950C940A130C940B139091D7
:10262000520292FD08C090910B02981721F08093FE
:102630000B020C940D13089580910B02882329F04E
:1026400010920B0280E00C940D130895E0910801A4
:10265000F0910901809116028083E0910801F091C8
:102660000901908180911502892B8083E0910801F6
:10267000F0910901908180911402892B80838091CF
:102680000B02882381F0E0910801F091090190810B
:10269000892B808380910801909109010E94AC1DD3
:1026A00081110E941C1380910801909109010C94E2
:1026B000371D0C940A139091520292FD10C098E0BD
:1026C000899F90011124262B20930A020E949F0DBE
:1026D00080910A028595859585950C9459130C94E3
:1026E0009F0D10920A0280E00C94591320910A0267
:1026F0008095822380930A02982F977041F430E0EE
:10270000482F082E000C550B2417350721F4909103
:10271000520292FF07C08595859585950E94C00D50
:102720000C94711308956FEF7FEF80E090E00C94AC
:10273000B92780E090E00E94952721E0893E9E4FD6
:1027400009F020E0822F089582E090E00C948D271C
:1027500083E090E00C948D27CF9384E090E00E947A
:102760008D27C82F82E290E00E948D272C2F30E029
:10277000A901582BCA01CF910895CF93C92F682F73
:1027800084E090E00E949B276C2F82E290E0CF9142
:102790000C949B27AB01BC018FE090E00C94AD271B
:1027A000AB01BC0183E190E00C94AD2760E070E0E8
:1027B000CB010C94D01360E070E0CB010E94CA13EF
:1027C0000C94D61369EE7EEF80E090E00E94B9276A
:1027D00060E082E090E00E949B2760E083E090E070
:1027E0000E949B271092CE011092CF011092D0012F
:1027F0001092D10160E084E090E00E949B2760E0AD
:1028000082E290E00E949B2760E085E090E00E94D9
:102810009B2760E086E090E00E949B276FEF87E0B7
:1028200090E00E949B2740E050E0BA0188E090E0F1
:102830000E94AD2760E08DE090E00E949B2740E081
:1028400050E0BA0188E190E00E94AD2760E087E1A6
:1028500090E00E949B2740E050E0BA018CE190E0BC
:102860000E94AD2760E070E080E290E00E94B9270E
:1028700040E050E0BA0188E190E00E94AD270C945E
:10288000DB130C94E213682F8EE090E00C949B27EE
:102890000E948B1E60932A0270932B0280932C025D
:1028A00090932D0260932602709327028093280252
:1028B00090932902089585B7806885BF85B78068A1
:1028C00085BF089581E008950C94621408950C94D6
:1028D00066140C9466140C9469140C9466140C948D
:1028E0006D140C9466140E945B148AE890E20E94B6
:1028F000F01E0E9471140C946F140E9467140C94C3
:1029000066140E94761E0E947B060C946B14CF9373
:10291000C82F80912E0282FF1EC080FF04C086E176
:1029200093E00E94150580912E0280FF0CC01F923B
:10293000CF9381E193E09F938F930E94AE050F9018
:102940000F900F900F9080912E0280FF04C08FE0B7
:1029500093E00E9415058C2FCF910C94E9089F926B
:10296000AF92BF92CF92DF92EF92FF920F931F939D
:10297000CF93DF93CDB7DEB72A970FB6F894DEBFBB
:102980000FBECDBF0E94A80681110E94481488E1A5
:10299000A82E82E0B82E00E010E0902E802F0E943A
:1029A0000D07D82EF501C1905F01C826B1F40F5F65
:1029B0001F4F0E30110589F78FEF89838A831B82A1
:1029C0000E947F1E8160782F9D838C8349815A816C
:1029D0006B818D810E94F2082FC080912E0281FDB3
:1029E0000E941307E12CFF24F3948C2D8F21F1F02A
:1029F0000E946414882399F0EE829F82DF2081E098
:102A000009F480E088870E947F1E8160782F9A8772
:102A100089874E815F8168858A850E94F208F80166
:102A2000E85EFD4F8081F826F08206C0E394FF0C3B
:102A3000F4E0EF12DACFBBCF0E942B1D909117026A
:102A40008917B9F00E942B1D809317022A960FB6A2
:102A5000F894DEBF0FBECDBFDF91CF911F910F91D4
:102A6000FF90EF90DF90CF90BF90AF909F900C942D
:102A700087142A960FB6F894DEBF0FBECDBFDF9144
:102A8000CF911F910F91FF90EF90DF90CF90BF906B
:102A9000AF909F90089580E090E008950895E72F0B
:102AA000F0E09EE0899FE00DF11D1124EE0FFF1F65
:102AB000EE0FFF1FE60FF11DEE0FFF1FE957FE4F50
:102AC000859194910895880F991FFC01E75DFC4F53
:102AD000859194910895CF93DF930E948516EC0120
:102AE000811520E5920708F041C0811540E4940764
:102AF00008F0CBC0803E910520F5803C910508F0A0
:102B0000B8C0883A910570F4853A910508F0A8C0DC
:102B10008130910509F4A1C008F4EBC0049708F0D6
:102B2000EBC0E7C08F3B910508F0E3C0885AC82F7F
:102B3000D0E0CC0FDD1FCA5BDE4F888199819464A1
:102B4000DCC0811550E2950750F4C11581E0D8072B
:102B500008F0D2C0C83ED10508F4CEC0CAC0811565
:102B600020E3920708F08AC09F7085C0811545E573
:102B7000940708F046C0811554E5950708F09DC0FC
:102B8000C11582E5D80718F5C11521E5D20708F06F
:102B90007FC0CE01F4E096958795FA95E1F7282F4E
:102BA00023703C2F337081E090E002C0880F991FA2
:102BB0003A95E2F79C68922B2C2F2F70269526953C
:102BC00040E2249F90011124822B932B96C09E01FA
:102BD000237033279C2F96959695C115D34508F001
:102BE0005CC041E050E002C0440F551F2A95E2F757
:102BF00080E2989F90011124CA01822B932B9C683C
:102C00007CC0811559E5950798F4C11588E5D8076A
:102C100008F058C0C11526E5D20708F06AC08C2F0D
:102C20000E9419178F7190E0982F8827906265C0D5
:102C300081154AE5940708F44AC0905681159042E0
:102C400008F057C08D2F8F710E9419179E013327EE
:102C500030628F71A901582B4AC081E090E04DC0CD
:102C6000855AC82FD0E0CC58DE4F888190E0906420
:102C700044C0805C91090E9463153FC09927D3FF2F
:102C800002C0986C3AC0906C38C09F70906A35C092
:102C90009C2F8827816F906A30C041E050E002C0CD
:102CA000440F551F2A95E2F780E2989F9001112466
:102CB000CA01822B932B9A6820C0982F8827846F93
:102CC000906A1BC09C2F8827806F906A16C08F70F7
:102CD0000E9419179E0194E0369527959A95E1F781
:102CE0002F7030E0322F22273069A901482BCA010A
:102CF00004C080E090E001C0CE01DF91CF91089543
:102D00000E944F150E946B1508958238910569F154
:102D1000B0F48133910509F46DC048F4893291050E
:102D200009F463C08A32910509F469C008958533B6
:102D3000910509F455C089339105B9F00895833E92
:102D4000910569F138F4803E9105B1F0823E91051C
:102D500009F10895863E9105A9F1873E9105B9F1E3
:102D6000843E910509F064C023C02091510220FDEA
:102D70004FC021FD4DC008958091510280FD44C097
:102D80008091520280FF44C08091510284FD42C074
:102D900083EE4DC08091510282FF38C0F5CF809103
:102DA000510282FD33C08091520280FD31C0ECCFD0
:102DB0008091520281FF32C08091510284FD2AC06D
:102DC00087EE35C08091510283FF26C0F5CF8091F8
:102DD000510283FD21C08091520281FD1FC0ECCFC2
:102DE0008091510285FD1CC01DC08091510285FD5E
:102DF00019C016C08091510286FD16C017C080917F
:102E0000510286FD13C010C089E311C082EE0FC0CD
:102E100080EE0DC080E00BC086EE09C084EE07C0D6
:102E200089E205C085E303C08AE201C081E390E046
:102E300008959091510292FF0DC0282F28712830DB
:102E400019F4877F846006C0282F2471243011F480
:102E50008B7F886093FF0DC0282F2871283119F4CB
:102E6000877E846106C0282F2471243111F48B7E63
:102E700088612091520220FF0DC0382F3871383000
:102E800019F4877F816006C0382F3171313011F419
:102E90008E7F886021FF0DC0282F2871283119F4FA
:102EA000877E816106C0282F2171213111F48E7E29
:102EB000886194FD877E08950C9493130E94A80660
:102EC0008FE39CE90197F1F700C000000E94A8067B
:102ED0008DE00E940D0782FF04C00E945C170C94D5
:102EE000CC1E08950C945E170E949913811102C0A4
:102EF0000E9441140E94A41380932E020E94AC13DE
:102F000090935202809351020E9472170E94A8135C
:102F1000682F70E080E090E00E943F0D6091CA0150
:102F20007091CB018091CC019091CD010C94770DE3
:102F3000CF93C82F90E00E946C268093320290932A
:102F40003302282FFC018E2F821B8C1710F4119254
:102F5000FACFCF910895DF92EF92FF920F931F93D4
:102F6000CF93DF93082FF92EE62ED72E142FD22FD2
:102F7000C0912F02CC23C9F10E947F1E2091300204
:102F800030913102AC01421B530B9A0190933102F4
:102F9000809330024F3F510509F020F4452B09F48E
:102FA00054C002C02FEF30E010922F021092340272
:102FB00040913202E42FF091330290E030E08E2F06
:102FC000841B811768F48081882341F0281718F04A
:102FD00010829C2F03C0821B80833C2F3196EFCF41
:102FE00030932F029093340230C0222331F10E949B
:102FF0007F1E909331028093300290913202809133
:103000002F02AE2DBD2DC02FDF2DE92FF091330201
:1030100035E02E2F291B211768F429914C91421776
:1030200031F04081411103C030832C9381E031960F
:103030001196EFCF80932F020CC080E09091340264
:10304000992339F08111D9CFD2CFD111D6CF81E0D8
:10305000F5CFDF91CF911F910F91FF90EF90DF900F
:1030600008950E94F91D0E94ED200E9406210E94F1
:103070001C210E947D14FBCFCF93C82F1F928F93EA
:103080008FE293E09F938F930E94AE0581E090E0E2
:10309000A0E0B0E0BC01CD0104C0660F771F881F1F
:1030A000991FCA95D2F70E943F0D0F900F900F9075
:1030B0000F90CF910C94DE0CEF92FF920F931F9321
:1030C000CF93DF938B3109F4EDC008F08EC08B30C5
:1030D00009F4B1C008F078C0863009F4AFC020F41C
:1030E000853009F4BDC04EC1873009F4C0C08830B6
:1030F00009F048C10E94A8131F928F9385E497E0BE
:103100009F938F930E94AE050E94A41383FB99277F
:1031100090F91F929F9382FB992790F91F929F939A
:1031200081FB992790F91F929F93982F91701F927E
:103130009F931F928F938CEF96E09F938F930E94A3
:10314000AE050E94AC1387FB222720F91F922F9314
:1031500086FB222720F91F922F9385FB222720F937
:103160001F922F9384FB222720F91F922F9383FB1A
:10317000222720F91F922F9382FB222720F91F92EA
:103180002F9391FB222720F91F922F93292F217033
:103190001F922F9381FB222720F91F922F93282F14
:1031A00021701F922F939F938F9387E196E09F93B7
:1031B0008F930E94AE058DB79EB788960FB6F89490
:1031C0009EBF0FBE8DBF35C0803109F495C020F47D
:1031D0008E3009F47BC0D6C0863109F4A8C089318D
:1031E00009F0D0C08FE993E084C08A32E1F060F446
:1031F000873209F4C3C028F48E3108F4C3C08D515E
:10320000BEC0893269F1BEC0833448F48A3308F005
:10321000B3C0853309F4B2C0883369F0B3C08334D6
:1032200009F4ACC0AFC080EF97E00E9415050E9482
:103230004114C1E0ACC084E794E05BC080912E02F1
:10324000817F8E7F80932E0289E594E00E94150590
:103250008CEE97E00E94150581E080933502E9CF5E
:1032600080ED97E00E9415050E943C08E2CF809116
:103270002E02C82FC095C170C0FB80F980932E022A
:10328000CC2329F084EC97E00E94150580C087EBE1
:1032900097E00E94150580912E02897F877F809399
:1032A0002E02C7CF90912E0291FBCC27C0F981E06E
:1032B000C827892FC0FB81F980932E02CC2319F0F7
:1032C0008AEA97E029C08CE997E013C090912E021A
:1032D00092FBCC27C0F981E0C827892FC0FB82F977
:1032E00080932E02CC2319F08DE897E015C08DE76E
:1032F00097E00E9415059DCF90912E0293FBCC275D
:10330000C0F981E0C827892FC0FB83F980932E0282
:10331000CC2351F081E797E00E94150580912E02A1
:10332000816080932E0233C084E697E0E2CF0E9452
:103330008B1E162F072FF82EE92ED0915002C09128
:1033400014010E942B1DEF92FF920F931F931F9267
:10335000DF931F92CF931F928F9384E393E09F9309
:103360008F930E94AE058DB79EB70C960FB6F8945A
:103370009EBF0FBE8DBF5DCF895301C080E00E940C
:103380003C1857CF82E697E00E941505C0E08C2FCD
:10339000DF91CF911F910F91FF90EF90089580E002
:1033A00008950C94CF19CF93C82F809135028823AC
:1033B00019F0813051F041C00E94D412813149F09E
:1033C0000E94D4128232D9F504C00E94D4128131F5
:1033D00049F48C2F0E94D119811109C08C2F0E94B1
:1033E0005C1829C00E94D412823221F4F2CF81E00D
:1033F00090E021C08C2F0E94CF1981111BC0C431D5
:1034000089F018F4CB3029F010C0C93259F0C83314
:1034100061F489E594E00E9415058BE293E00E9437
:10342000150508C0109235020CC089E293E00E9495
:10343000150507C081E0817006C01092350280E05A
:1034400002C080E0F8CFCF9108950F931F93CF93E0
:10345000DF93C42FD22FFC0182818823C9F04093CF
:1034600038020E947F1E909337028093360280E2DA
:103470008C0F883008F057C0C77081E001C0880FFA
:10348000CA95EAF7DF91CF911F910F910C94680ACA
:1034900080913802481330C08091360290913702F3
:1034A0000E94971E883C910538F510E21D0FCD173C
:1034B000B9F080E28C0F883040F4C77081E001C021
:1034C000880FCA95EAF70E946F0A183028F581E044
:1034D0009D2F977001C0880F9A95EAF70E94680A9D
:1034E000802F0E945F0A1830F0F4D77081E001C08D
:1034F000880FDA95EAF70AC080E28C0F883098F4DA
:10350000C77081E001C0880FCA95EAF7DF91CF91BB
:103510001F910F910C946F0A802FDF91CF911F9113
:103520000F910C945F0ADF91CF911F910F91089535
:103530000F939C01CB01243F4CE5340731F188F413
:10354000293DFCE53F07D9F02A3D4CE5340779F1E8
:10355000283D3C45A9F506E221EE41EE68ED7CE50B
:103560002BC0263FFCE53F07E1F0A8F0273F3C4594
:1035700039F507E225EE46EE67EF7CE51DC007E270
:1035800025EE45EE69ED7CE517C006E221EE40EE42
:1035900064EF7CE511C007E225EE44EE65EF7CE5C3
:1035A0000BC006E221EE42EE66EF7CE505C008E2C4
:1035B00021E045EE6AED7CE50E94251A80E008C016
:1035C000FC018281882319F01092380201C081E049
:1035D0000F910895CF93DF93EC01FB018281882343
:1035E00009F41FC1C230FCE5DF0708F41BC1C63176
:1035F0009CE5D90738F09E012B5F3C452930310509
:1036000008F010C10E94AC139093520280935102B3
:10361000C031ECE5DE0709F4C3C008F041C0C83092
:103620008CE5D80709F49AC0F0F4C430ECE5DE0765
:1036300009F487C068F4C2308CE5D80709F477C074
:10364000C330DC4509F0E3C080915102826076C04E
:10365000C630ECE5DE0709F46EC008F07BC080914F
:10366000510288606BC0CC308CE5D80709F485C066
:1036700068F4CA30ECE5DE0709F474C008F079C0DC
:103680000E94DE0C80915102806858C0CE308CE5DB
:10369000D80709F476C008F07FC0809151028BC032
:1036A000CC3FECE5DE0709F44FC018F5C3318CE5DB
:1036B000D80709F47DC078F4C131ECE5DE0709F4E0
:1036C00073C0C231DC4509F0A2C00E94DE0C8091BB
:1036D00051028F7733C0C5318CE5D80709F472C029
:1036E00008F486C0CB3FDC4509F091C080915202BE
:1036F0003EC0C115FDE5DF0709F45FC058F4CE3FB9
:103700009CE5D90709F444C008F43FC080915202F7
:1037100082602DC0C230FDE5DF0709F475C008F4F2
:103720005DC0C330DD4509F072C080E06EC080919D
:103730005102816003C080915102806180935102E7
:1037400066C08091510211C08091520282608093C4
:1037500052025DC0809151028062F0CF809151028F
:103760008064ECCF8091510288608460E7CF8160F3
:10377000EECF809151028E7FE1CF809151028D7FFB
:10378000DDCF80915102877FD9CF8091520218C03E
:10379000809152028D7FDBCF809151028F7ECECF00
:1037A000809151028F7DCACF809151028F7BC6CF0D
:1037B00080915102877F8B7FC1CF809152028D7F94
:1037C0008E7FC5CF8091510282FB222720F991E0A4
:1037D000922790FB82F990FB83F9B0CF809152023F
:1037E000982F909591708E7F892B90FB81F9AFCFA8
:1037F0000E94DE0C8091510287FB222720F991E084
:10380000922790FB87F99ACF81E00E944314809120
:103810005102909152020E94BD130E94DE0C80E082
:1038200001C081E0DF91CF910895CF93DF9386317E
:103830009C4541F5EB010E94D412982F8A8120917A
:10384000080130910901882379F09A7A81E009F41E
:1038500080E080933902911102C069E201C065E302
:10386000C9010E94EE1D0AC080913902811102C077
:1038700069E201C065E3C9010E94F01D0E942613A0
:1038800080E001C081E0DF91CF9108951092B900EE
:103890008CE08093B80008959F92AF92BF92CF9230
:1038A000DF92EF92FF920F931F93CF93DF93B82E87
:1038B000EB010E947F1E6C01C431D10558F0CF3F4F
:1038C0008FEFD80759F0CE0164E170E00E945226D4
:1038D0007B0107C0EE24E394F12C03C025E0E22E27
:1038E000F12C84E8A82E94EA992E1092BC009092B4
:1038F000BC000E947F1E8C018091BC0087FD08C027
:103900000E947F1E801B910B8E159F05A8F32AC075
:103910008091B900887F883041F08091B900887F1C
:10392000803119F00FEF1FEF1FC0B092BB00A092C3
:10393000BC000E947F1E8C018091BC0087FD08C0E6
:103940000E947F1E801B910B8E159F05A8F30AC055
:103950008091B900887F883111F0803419F700E038
:1039600010E00EC00EEF1FEFCF3F8FEFD80709F426
:10397000BCCFC6010E94971E8C179D0708F4B5CFD7
:10398000C801DF91CF911F910F91FF90EF90DF90D1
:10399000CF90BF90AF909F9008950F931F93CF93B8
:1039A000DF93EB018093BB0084E88093BC000E940E
:1039B0007F1E8C018091BC0087FD0EC0CF3F8FEF32
:1039C000D807C1F30E947F1E801B910B8C179D07A7
:1039D00088F38EEF9FEF0CC02091B900287F81E023
:1039E00090E0283211F480E090E091958195910962
:1039F000DF91CF911F910F9108950F931F93CF9354
:103A0000DF93EC0184E88093BC000E947F1E8C0150
:103A10008091BC0087FD0EC0CF3F8FEFD807C1F368
:103A20000E947F1E801B910B8C179D0788F38EEFE1
:103A30009FEF03C08091BB0090E0DF91CF911F9179
:103A40000F91089584E98093BC00089590933F02FC
:103A500080933E020895E0913E02F0913F0230973C
:103A600021F00190F081E02D099480E00895EF921B
:103A7000FF920F931F93CF93DF93E0913E02F0915B
:103A80003F023097B1F18C010280F381E02D09955E
:103A900080912E0282FF2DC080FF04C089E098E053
:103AA0000E941505E80118E083E0E82E88E0F82E72
:103AB00080912E0280FF0BC088811F928F93FF920E
:103AC000EF920E94AE050F900F900F900F90115043
:103AD00021961111EDCF80912E0280FF0AC081E066
:103AE00098E0DF91CF911F910F91FF90EF900C9490
:103AF0001505DF91CF911F910F91FF90EF900895E1
:103B000020913C0230913D022817390771F09093C3
:103B10003D0280933C02E0913E02F0913F023097DB
:103B200021F00680F781E02D0994089520913A0252
:103B300030913B022817390771F090933B02809334
:103B40003A02E0913E02F0913F02309721F000846A
:103B5000F185E02D09940895FC01329697E080E00C
:103B6000915029F021912223D9F38F5FF9CF089545
:103B7000662349F0FC01329608962191621729F0DC
:103B8000E817F907D1F780E0089581E008959C01D6
:103B9000FC0132969FEF80E04191461789F09F3FEC
:103BA00019F4411101C0982F8F5F8630A9F79F3F0C
:103BB00039F0F901E90FF11D97FDFA956283089537
:103BC00008959C012A5F3F4FFC014281461301C0CA
:103BD0001282019682179307B9F708950C94C71DB6
:103BE0000C94E11D029626E0FC0111922A95E9F75A
:103BF0000895089508950C94FA1DCF930E94950698
:103C00000E94A8060E94FB1DC0E08C2F0E940D0799
:103C1000811104C0CF5FCE30C1F701C081E0CF91E8
:103C200008950C94FA1D0C94111E80915B0284304F
:103C300049F10E94131E80E00E94E90810924002A0
:103C400020E488E190E00FB6F894A8958093600096
:103C50000FBE2093600083B7817F846083BF83B7EA
:103C6000816083BF7894889583B78E7F83BF0FB6BA
:103C7000F894A8958091600088618093600010920C
:103C800060000FBE08950C94FA1D0E94DE0C0E9485
:103C90002B1D0E94E9080C94431E1F920F920FB631
:103CA0000F9211248F939F93AF93BF938091400203
:103CB000811113C08091530290915402A09155023A
:103CC000B09156024196A11DB11D8093530290936D
:103CD0005402A0935502B0935602BF91AF919F91A9
:103CE0008F910F900FBE0F901F90189582E084BDAA
:103CF00093E095BD9AEF97BD80936E0008952FB71E
:103D0000F8948091530290915402A0915502B09181
:103D100056022FBF08952FB7F89460915302709107
:103D2000540280915502909156022FBF08959C0134
:103D30004FB7F8948091530290915402A09155028C
:103D4000B09156024FBF821B930B089578941F9237
:103D50000F920FB60F9211248F939F93AF93BF933F
:103D60008091530290915402A0915502B091560255
:103D70000196A11DB11D8093530290935402A0930C
:103D80005502B0935602BF91AF919F918F910F90C2
:103D90000FBE0F901F90189581E08093E00080E2A5
:103DA0008093D8001092C9008FE19EE40197F1F74B
:103DB00000C0000087E090EBDC01809368029093E4
:103DC0006902A0936A02B0936B029CE088E10FB68F
:103DD000F894A895809360000FBE90936000FFCF89
:103DE0009093870180938601089580914F020895F2
:103DF00090915B02943031F58093430270934502B9
:103E00006093440282E08093E9008FEF9091E80094
:103E1000815095FD06C095ED9A95F1F7000081114E
:103E2000F5CF8091E80085FF0DC040E050E063E0F1
:103E300070E083E492E00E94A9218091E8008E77EF
:103E40008093E8000895BC0184E00C94F81EBC0146
:103E500083E00C94F81ECF93DF9321E02093E900D8
:103E60002FEF3091E800215035FD06C035ED3A9531
:103E7000F1F700002111F5CF2091E80025FF14C0D3
:103E8000EC0140E050E068E070E00E94A9218091E0
:103E9000E8008E778093E80088E0FE01A7E4B2E0B6
:103EA00001900D928A95E1F7DF91CF9108950895E1
:103EB00080E498E00E94150580915A02811109C0A2
:103EC0000E943A230E9497238091E20084608093AD
:103ED000E20008958CE398E00E94150510925A02C2
:103EE000089588E398E00C94150584E398E00C9419
:103EF000150580E398E00C941505209142022F5F90
:103F0000822F62E30E944626992319F020934202F1
:103F100008951092420280914602882371F18091A7
:103F20005B02843041F58091E9008F702091EC00B4
:103F3000922F917020FD90E8892B93E09093E900F7
:103F40009091EB0090FF14C09091EE0097FF10C08D
:103F50009091E80095FF03C01092F100F9CF909185
:103F6000E80090FF05C09091E8009E779093E800EC
:103F70008F708093E90010924602089542E061EC50
:103F800081E00E94B32242E261EC82E00E94B3220F
:103F900042E261EC83E00C94B32280915D028330B5
:103FA00009F460C030F4813071F0823009F499C0B6
:103FB00008958A3009F485C08B3009F46BC08930CC
:103FC00009F0A7C020C080915C02813A09F0A1C02D
:103FD0008091E800877F8093E80080916002909153
:103FE0006102892B21F468E087E492E003C060E07D
:103FF00080E090E070E00E94F4218091E8008B77EF
:104000008093E800089580915C02813209F081C0BC
:104010008091600290916102029708F07AC08091CD
:10402000E800877F8093E8008091E80082FD05C06A
:1040300080915B028111F8CF6CC02091F3008091D8
:10404000F20090E0922B029729F48091F1008B7F8F
:10405000813021F48091F10080934F028091E8003B
:104060008B7753C080915C02813A09F052C08091F5
:10407000600290916102892B09F04BC08091E800A9
:10408000877F8093E8008091E80080FFFCCF8091DB
:10409000140136C080915C028132D9F580916002B2
:1040A00090916102892BA9F58091E800877F809328
:1040B000E8000E94E82280915E02809314010C9433
:1040C000DE0C80915C02813221F58091E800877FCF
:1040D0008093E8000E94E82280915F028093500262
:1040E000089580915C02813AA1F48091E800877F75
:1040F0008093E8008091E80080FFFCCF809150021F
:104100008093F1008091E8008E778093E8000C9412
:10411000E82208959FB7F894109246029FBF9091AD
:104120005B02943009F057C09091E9009F70309184
:10413000EC00232F217030FD20E8922B23E0209308
:10414000E9002091EB0020FF43C02091EE0027FF03
:104150003FC020914102222321F02091E80025FF59
:1041600037C01092410226E03091E80035FD15C0BD
:1041700030915B02343061F53091EB0035FD28C0A1
:10418000215021F481E08093410222C0EFE9FFE059
:104190003197F1F700C00000E7CF8093F1008091E4
:1041A000E80085FD0AC08091E80080FFFCCF809187
:1041B000E8008E778093E80006C08FB7F89421E07E
:1041C000209346028FBF9F709093E90080E008958E
:1041D0009F709093E9008FEF089584B7877F84BF25
:1041E0000FB6F894A8958091600088618093600074
:1041F000109260000FBE90E080E80FB6F8948093B4
:104200006100909361000FBE0C9473140E943A23D6
:104210000E949723E2EEF0E08081846080837894AE
:104220000E942B260E9481148AE091E00E94261DA4
:104230008FE198E00C94150580915B028530C9F4FC
:104240008BE198E00E94150580915B02853079F43E
:104250000E94151E809159028823B1F30E94FD1D12
:10426000882391F30E9493210E94DE0CEDCF0E94DF
:10427000451E0C94AF140C943D21292F3327233075
:104280003105C9F060F42130310581F0223031056B
:1042900009F041C08BE590E02EE738E040C02132C4
:1042A0003105E1F02232310531F135C082E190E093
:1042B00029ED38E034C099278130910549F028F084
:1042C000029749F5E4E4F8E005C0EAE7F8E002C047
:1042D000E2E5F8E0849190E09F0121C06330710530
:1042E000D0F4660F771FFB01E058FE4F208131812B
:1042F00089E090E014C06330710568F4FB01EE0FB3
:10430000FF1FE658FE4F20813181FB01E958FE4F27
:10431000808190E004C080E090E020E030E0FA018D
:1043200031832083089580E189BD82E189BD09B48C
:1043300000FEFDCF8091D8008F7D8093D8008091C2
:10434000E00082608093E0008091E00081FDFCCF7E
:104350000895CF92DF92EF92FF920F931F93CF9326
:10436000DF93EC018B017A010E940723811133C096
:10437000E114F10439F0F70180819181081B190BD8
:10438000C80FD91FC12CD12C0115110519F180912D
:10439000E80085FD16C08091E8008E778093E800E4
:1043A000E114F10449F0F70180819181C80ED91E12
:1043B000D182C08285E00FC00E940723882321F3A9
:1043C0000AC089918093F10001501109FFEFCF1AC3
:1043D000DF0ADACF80E0DF91CF911F910F91FF903C
:1043E000EF90DF90CF9008952091620230916302A8
:1043F0002617370748F06115710539F42091E80058
:104400002E772093E80001C0B901FC0120E061157E
:10441000710579F180915B028823F1F18530F1F12A
:104420008091E80083FD3CC08091E80082FD2EC0B1
:104430008091E80080FFEBCF2091F3008091F200A3
:1044400090E0922B6115710551F08830910538F498
:1044500021912093F100615071090196F3CF21E081
:10446000089709F020E08091E8008E778093E800BB
:10447000CECF2111CFCF0AC080915B02882361F09B
:10448000853061F08091E80083FD0AC08091E800EA
:1044900082FFF2CF80E0089582E0089583E00895DE
:1044A00081E0089520916202309163022617370758
:1044B00048F06115710539F42091E8002E772093BA
:1044C000E80001C0B901FC0120E06115710591F11E
:1044D00080915B02882309F440C0853009F43FC015
:1044E0008091E80083FD3DC08091E80082FD2FC0EF
:1044F0008091E80080FFE9CF2091F3008091F200E5
:1045000090E0922B6115710559F08830910540F4C7
:1045100024912093F1003196615071090196F2CFF8
:1045200021E0089709F020E08091E8008E778093E1
:10453000E800CBCF2111CCCF0AC080915B02882349
:1045400061F0853061F08091E80083FD0AC08091C0
:10455000E80082FFF2CF80E0089582E0089583E0D2
:10456000089581E00895982F973068F59093E900B9
:10457000981739F07091EC002091ED005091F00007
:1045800003C0242F762F50E021FD02C09F5FECCFA7
:104590003091EB003E7F3093EB003091ED003D7F9A
:1045A0003093ED003091EB0031603093EB0070936D
:1045B000EC002093ED005093F0002091EE0027FDD9
:1045C000E5CF80E008958F708093E90081E0089541
:1045D00080915C0287FF11C08091E80082FD05C0D8
:1045E00080915B028111F8CF11C08091E8008B7738
:1045F0000BC080915B02882349F08091E80080FF26
:10460000F8CF8091E8008E778093E800089520919C
:10461000E4003091E50095E64091EC00842F817034
:1046200040FF23C08091E80080FD1DC080915B02A7
:10463000882399F0853099F08091EB0085FD11C0B9
:104640004091E4005091E5002417350729F391507B
:1046500011F09A01E1CF84E0089582E0089583E0AB
:10466000089581E0089580E008954091E80042FFB8
:10467000DDCF08950E94A8230E94B023E0EEF0E071
:10468000808181608083E8EDF0E080818F77808396
:1046900019BCA7EDB0E08C918E7F8C9380818F7ECA
:1046A000808310925A0208950F931F93CF93DF9344
:1046B0000E94A8230E94B023C8EDD0E088818F77A4
:1046C000888388818068888388818F7D888319BCEE
:1046D00010925B02109257021092590210925802E7
:1046E00000EE10E0F80180818B7F808388818160FB
:1046F000888342E060E080E00E94B322E1EEF0E0D7
:1047000080818E7F8083E2EEF0E080818160808313
:10471000808188608083F80180818E7F808388819A
:1047200080618883DF91CF911F910F910895E8ED0B
:10473000F0E080818F7E8083E7EDF0E08081816012
:10474000808384E082BF81E080935A020C945423DA
:10475000E8EDF0E080818E7F80831092E200089582
:104760001092DA001092E10008951F920F920FB696
:104770000F9211242F933F934F935F936F937F93E7
:104780008F939F93AF93BF93EF93FF938091E1003B
:1047900082FF0BC08091E20082FF07C08091E100A0
:1047A0008B7F8093E1000E947D1F8091DA0080FF63
:1047B0001FC08091D80080FF1BC08091DA008E7FDF
:1047C0008093DA008091D90080FF0DC080E189BD1F
:1047D00082E189BD09B400FEFDCF81E080935B02D8
:1047E0000E94581F05C019BC10925B020E946A1FEC
:1047F0008091E10080FF19C08091E20080FF15C028
:104800008091E2008E7F8093E2008091E2008061DF
:104810008093E2008091D80080628093D80019BC18
:1048200085E080935B020E94751F8091E10084FF08
:1048300030C08091E20084FF2CC080E189BD82E11C
:1048400089BD09B400FEFDCF8091D8008F7D809393
:10485000D8008091E1008F7E8093E1008091E2009A
:104860008F7E8093E2008091E20081608093E2007D
:1048700080915702882311F084E007C08091E30003
:1048800087FD02C081E001C083E080935B020E944B
:10489000791F8091E10083FF29C08091E20083FFAE
:1048A00025C08091E100877F8093E10082E08093C2
:1048B0005B02109257028091E1008E7F8093E100AD
:1048C0008091E2008E7F8093E2008091E20080611F
:1048D0008093E20042E060E080E00E94B322809199
:1048E000F00088608093F0000E94711FFF91EF91AB
:1048F000BF91AF919F918F917F916F915F914F91F8
:104900003F912F910F900FBE0F901F9018951F92FF
:104910000F920FB60F9211242F933F934F935F93F3
:104920006F937F938F939F93AF93BF93CF93DF93B7
:10493000EF93FF93C091E900CF708091EC00D82FE6
:10494000D17080FDD0E81092E9008091F000877F5F
:104950008093F00078940E94CB241092E90080911B
:10496000F00088608093F000CD2BCF70C093E900F9
:10497000FF91EF91DF91CF91BF91AF919F918F9177
:104980007F916F915F914F913F912F910F900FBE4B
:104990000F901F9018951F93CF93DF93CDB7DEB77D
:1049A000AA970FB6F894DEBF0FBECDBFECE5F2E0DC
:1049B0008091F100819322E0E436F207C9F70E946A
:1049C000CD1F8091E80083FF2EC180915C02909101
:1049D0005D02492F50E04A30510508F024C1FA0128
:1049E000E558FF4F0C946626803821F0823809F094
:1049F0001AC108C08091580290915902992389F0F8
:104A000082600FC0809160028F70873008F00BC108
:104A10008093E9008091EB0085FB882780F9109254
:104A2000E9009091E800977F9093E8008093F1006F
:104A30001092F100D1C0282F2D7F09F0F4C08823F7
:104A400019F0823061F0EFC080915E02813009F090
:104A5000EAC0933009F080E0809359022EC0809123
:104A60005E0281112AC0809160028F702FEF280FA3
:104A7000263008F0D8C08093E9002091EB0020FF99
:104A80001CC0933021F48091EB00806214C090919F
:104A9000EB0090619093EB0021E030E0A90102C0AF
:104AA000440F551F8A95E2F74093EA001092EA00FE
:104AB0008091EB0088608093EB001092E900809178
:104AC000E800877F8093E8000E94E822ACC0811153
:104AD000AAC010915E021F778091E3008078812B3D
:104AE0008093E3008091E800877F8093E8000E9434
:104AF000E8228091E80080FFFCCF8091E30080688D
:104B00008093E300111102C082E001C083E0809332
:104B10005B0289C08058823008F085C080915E02B7
:104B200090915F028C3D53E0950779F583E08A838D
:104B30008AE289834FB7F894DE01139620E03EE0C5
:104B400051E2E32FF0E050935700E49120FF03C0BF
:104B5000E295EF703F5FEF708E2F90E0EA3010F03B
:104B6000C79601C0C0968D939D932F5F243149F75E
:104B70004FBF8091E800877F8093E8006AE270E091
:104B8000CE0101960E94F42116C0609160027091DE
:104B90006102AE014F5F5F4F0E943B21BC01892B38
:104BA00009F441C09091E800977F9093E8008981D3
:104BB0009A810E9452228091E8008B778093E800CE
:104BC00032C0803881F58091E800877F8093E800CB
:104BD000809157028093F1008091E8008E7772CF28
:104BE000811121C080915E0290915F029927029706
:104BF000D4F48091E800877F8093E80080915E0282
:104C0000809357020E94E82280915702811106C0CA
:104C10008091E30087FD02C081E001C084E08093C1
:104C20005B020E94BE1F8091E80083FF0AC0809152
:104C3000E800877F8093E8008091EB00806280939A
:104C4000EB00AA960FB6F894DEBF0FBECDBFDF9182
:104C5000CF911F910895CF9380915B028823A1F09B
:104C6000C091E900CF709091EC00892F817090FD88
:104C700080E8C82B1092E9008091E80083FD0E9433
:104C8000CB24CF70C093E900CF910895991B79E0B0
:104C900004C0991F961708F0961B881F7A95C9F7CC
:104CA00080950895AA1BBB1B51E107C0AA1FBB1F1B
:104CB000A617B70710F0A61BB70B881F991F5A95A8
:104CC000A9F780959095BC01CD010895EE0FFF1FC7
:104CD0000590F491E02D09940F931F93CF93DF93E8
:104CE0008230910510F482E090E0E0916602F0914C
:104CF000670220E030E0A0E0B0E0309719F1408199
:104D000051810281138148175907C8F0841795070C
:104D100069F4109731F012960C93129713961C9326
:104D200027C0009366021093670222C02115310547
:104D300019F04217530718F49A01BD01EF01DF0182
:104D4000F801DBCF21153105F9F0281B390B243090
:104D5000310580F48A819B816115710521F0FB0189
:104D60009383828304C09093670280936602FE015E
:104D7000329644C0FE01E20FF31F819391932250BB
:104D80003109398328833AC0209164023091650249
:104D9000232B41F4209102013091030130936502ED
:104DA0002093640220910001309101012115310509
:104DB00041F42DB73EB74091040150910501241BE9
:104DC000350BE0916402F0916502E217F307A0F45D
:104DD0002E1B3F0B2817390778F0AC014E5F5F4F51
:104DE0002417350748F04E0F5F1F5093650240931C
:104DF00064028193919302C0E0E0F0E0CF01DF9183
:104E0000CF911F910F910895CF93DF93009709F4ED
:104E100081C0FC01329713821282A0916602B09188
:104E20006702109781F420813181820F931F2091B6
:104E30006402309165022817390751F5F093650235
:104E4000E093640267C0ED0120E030E0CE17DF0799
:104E500040F44A815B819E0141155105F1F0EA0160
:104E6000F5CFD383C28340815181840F951FC8172A
:104E7000D90759F488819981840F951F02969183EF
:104E800080838A819B81938382832115310529F454
:104E9000F0936702E09366023DC0E901FB83EA8379
:104EA00049915991C40FD51FEC17FD0761F480811A
:104EB0009181840F951F0296E901998388838281ED
:104EC00093819B838A83E0E0F0E012968D919C9120
:104ED0001397009719F0FD01DC01F7CF8D919C919C
:104EE00011979D012E5F3F4F820F931F2091640207
:104EF000309165022817390769F4309729F4109228
:104F000067021092660202C013821282B093650299
:104F1000A0936402DF91CF910895F999FECF92BDDD
:104F200081BDF89A992780B50895A8E1B0E042E0E4
:104F300050E00C94C127262FF999FECF92BD81BD78
:104F4000F89A019700B4021639F01FBA20BD0FB6C7
:104F5000F894FA9AF99A0FBE08950396272F0E94A3
:104F60009C270E949B27252F0E949C27242F0C946E
:104F70009C270196272F0E949C270C949B27DC01DD
:104F8000CB01FC01F999FECF06C0F2BDE1BDF89A54
:104F9000319600B40D9241505040B8F70895F894FE
:024FA000FFCF41
:104FA20000006C02200020000C02F51E2B1F571F70
:104FB200271F231F01E200E900EA00B500B600B78F
:104FC20000CD008301CC008A0192019401210223C9
:104FD2000224022502260227022A02B300B4006F2D
:104FE200007000818283E200E900EA00B500B600A9
:104FF200B700CD008301CC008A0192019401210205
:10500200230224022502260227022A02B300B40048
:105012006F0070008182834032223F090D09EB0844
:065022009008A908C20875
:00000001FF
